{"abi":[{"type":"constructor","inputs":[{"name":"_lzEndpoint","type":"address","internalType":"address"},{"name":"celoSender","type":"address","internalType":"address"},{"name":"celoChainId","type":"uint16","internalType":"uint16"}],"stateMutability":"nonpayable"},{"type":"function","name":"checkKYC","inputs":[{"name":"user","type":"address","internalType":"address"}],"outputs":[{"name":"isVerified","type":"bool","internalType":"bool"},{"name":"kycUrl","type":"string","internalType":"string"},{"name":"qrCodeUrl","type":"string","internalType":"string"}],"stateMutability":"view"},{"type":"function","name":"isKYCVerified","inputs":[{"name":"","type":"address","internalType":"address"}],"outputs":[{"name":"","type":"bool","internalType":"bool"}],"stateMutability":"view"},{"type":"function","name":"lzEndpoint","inputs":[],"outputs":[{"name":"","type":"address","internalType":"contract ILayerZeroEndpoint"}],"stateMutability":"view"},{"type":"function","name":"lzReceive","inputs":[{"name":"_srcChainId","type":"uint16","internalType":"uint16"},{"name":"_srcAddress","type":"bytes","internalType":"bytes"},{"name":"_nonce","type":"uint64","internalType":"uint64"},{"name":"_payload","type":"bytes","internalType":"bytes"}],"outputs":[],"stateMutability":"nonpayable"},{"type":"function","name":"owner","inputs":[],"outputs":[{"name":"","type":"address","internalType":"address"}],"stateMutability":"view"},{"type":"function","name":"setTrustedRemote","inputs":[{"name":"_srcChainId","type":"uint16","internalType":"uint16"},{"name":"_srcAddress","type":"bytes","internalType":"bytes"}],"outputs":[],"stateMutability":"nonpayable"},{"type":"function","name":"trustedRemoteLookup","inputs":[{"name":"","type":"uint16","internalType":"uint16"}],"outputs":[{"name":"","type":"bytes","internalType":"bytes"}],"stateMutability":"view"},{"type":"event","name":"KYCRequired","inputs":[{"name":"user","type":"address","indexed":true,"internalType":"address"},{"name":"kycUrl","type":"string","indexed":false,"internalType":"string"},{"name":"qrCodeUrl","type":"string","indexed":false,"internalType":"string"}],"anonymous":false},{"type":"event","name":"KYCStatusUpdated","inputs":[{"name":"user","type":"address","indexed":true,"internalType":"address"}],"anonymous":false}],"bytecode":{"object":"0x60e060405234801561000f575f5ffd5b5060405161123e38038061123e83398181016040528101906100319190610186565b8273ffffffffffffffffffffffffffffffffffffffff1660808173ffffffffffffffffffffffffffffffffffffffff16815250503360015f6101000a81548173ffffffffffffffffffffffffffffffffffffffff021916908373ffffffffffffffffffffffffffffffffffffffff1602179055508173ffffffffffffffffffffffffffffffffffffffff1660a08173ffffffffffffffffffffffffffffffffffffffff16815250508061ffff1660c08161ffff16815250505050506101d6565b5f5ffd5b5f73ffffffffffffffffffffffffffffffffffffffff82169050919050565b5f61011e826100f5565b9050919050565b61012e81610114565b8114610138575f5ffd5b50565b5f8151905061014981610125565b92915050565b5f61ffff82169050919050565b6101658161014f565b811461016f575f5ffd5b50565b5f815190506101808161015c565b92915050565b5f5f5f6060848603121561019d5761019c6100f1565b5b5f6101aa8682870161013b565b93505060206101bb8682870161013b565b92505060406101cc86828701610172565b9150509250925092565b60805160a05160c0516110376102075f395f61021401525f61028501525f8181610186015261059a01526110375ff3fe608060405234801561000f575f5ffd5b506004361061007a575f3560e01c80638846594b116100595780638846594b146100fa5780638da5cb5b1461012c578063b353aaa71461014a578063eb8d72b7146101685761007a565b80621d35671461007e57806354b7636e1461009a5780637533d788146100ca575b5f5ffd5b61009860048036038101906100939190610756565b610184565b005b6100b460048036038101906100af9190610853565b6103c4565b6040516100c19190610898565b60405180910390f35b6100e460048036038101906100df91906108b1565b6103e0565b6040516100f1919061094c565b60405180910390f35b610114600480360381019061010f9190610853565b61047b565b604051610123939291906109be565b60405180910390f35b610134610573565b6040516101419190610a10565b60405180910390f35b610152610598565b60405161015f9190610a84565b60405180910390f35b610182600480360381019061017d9190610a9d565b6105bc565b005b7f000000000000000000000000000000000000000000000000000000000000000073ffffffffffffffffffffffffffffffffffffffff163373ffffffffffffffffffffffffffffffffffffffff1614610212576040517f08c379a000000000000000000000000000000000000000000000000000000000815260040161020990610b44565b60405180910390fd5b7f000000000000000000000000000000000000000000000000000000000000000061ffff168661ffff161461027c576040517f08c379a000000000000000000000000000000000000000000000000000000000815260040161027390610bac565b60405180910390fd5b5f5f86015190507f000000000000000000000000000000000000000000000000000000000000000073ffffffffffffffffffffffffffffffffffffffff168173ffffffffffffffffffffffffffffffffffffffff1614610311576040517f08c379a000000000000000000000000000000000000000000000000000000000815260040161030890610c14565b60405180910390fd5b5f83838101906103219190610c6d565b905060015f5f8373ffffffffffffffffffffffffffffffffffffffff1673ffffffffffffffffffffffffffffffffffffffff1681526020019081526020015f205f6101000a81548160ff0219169083151502179055508073ffffffffffffffffffffffffffffffffffffffff167f80191cc8824172d30e31275c29dd4ca1ba907f057bb32c04f8cb801b3fd93d9160405160405180910390a25050505050505050565b5f602052805f5260405f205f915054906101000a900460ff1681565b6002602052805f5260405f205f9150905080546103fc90610cc5565b80601f016020809104026020016040519081016040528092919081815260200182805461042890610cc5565b80156104735780601f1061044a57610100808354040283529160200191610473565b820191905f5260205f20905b81548152906001019060200180831161045657829003601f168201915b505050505081565b5f6060805f5f8573ffffffffffffffffffffffffffffffffffffffff1673ffffffffffffffffffffffffffffffffffffffff1681526020019081526020015f205f9054906101000a900460ff16156104f857600160405180602001604052805f81525060405180602001604052805f81525092509250925061056c565b6040518060400160405280601c81526020017f68747470733a2f2f6b79632e73656c662e78797a2f616164686161720000000081525091506040518060400160405280601f81526020017f68747470733a2f2f6b79632e73656c662e78797a2f616164686161722f71720081525090505f92505b9193909250565b60015f9054906101000a900473ffffffffffffffffffffffffffffffffffffffff1681565b7f000000000000000000000000000000000000000000000000000000000000000081565b60015f9054906101000a900473ffffffffffffffffffffffffffffffffffffffff1673ffffffffffffffffffffffffffffffffffffffff163373ffffffffffffffffffffffffffffffffffffffff161461064b576040517f08c379a000000000000000000000000000000000000000000000000000000000815260040161064290610d3f565b60405180910390fd5b818160025f8661ffff1661ffff1681526020019081526020015f209182610673929190610f34565b50505050565b5f5ffd5b5f5ffd5b5f61ffff82169050919050565b61069781610681565b81146106a1575f5ffd5b50565b5f813590506106b28161068e565b92915050565b5f5ffd5b5f5ffd5b5f5ffd5b5f5f83601f8401126106d9576106d86106b8565b5b8235905067ffffffffffffffff8111156106f6576106f56106bc565b5b602083019150836001820283011115610712576107116106c0565b5b9250929050565b5f67ffffffffffffffff82169050919050565b61073581610719565b811461073f575f5ffd5b50565b5f813590506107508161072c565b92915050565b5f5f5f5f5f5f608087890312156107705761076f610679565b5b5f61077d89828a016106a4565b965050602087013567ffffffffffffffff81111561079e5761079d61067d565b5b6107aa89828a016106c4565b955095505060406107bd89828a01610742565b935050606087013567ffffffffffffffff8111156107de576107dd61067d565b5b6107ea89828a016106c4565b92509250509295509295509295565b5f73ffffffffffffffffffffffffffffffffffffffff82169050919050565b5f610822826107f9565b9050919050565b61083281610818565b811461083c575f5ffd5b50565b5f8135905061084d81610829565b92915050565b5f6020828403121561086857610867610679565b5b5f6108758482850161083f565b91505092915050565b5f8115159050919050565b6108928161087e565b82525050565b5f6020820190506108ab5f830184610889565b92915050565b5f602082840312156108c6576108c5610679565b5b5f6108d3848285016106a4565b91505092915050565b5f81519050919050565b5f82825260208201905092915050565b8281835e5f83830152505050565b5f601f19601f8301169050919050565b5f61091e826108dc565b61092881856108e6565b93506109388185602086016108f6565b61094181610904565b840191505092915050565b5f6020820190508181035f8301526109648184610914565b905092915050565b5f81519050919050565b5f82825260208201905092915050565b5f6109908261096c565b61099a8185610976565b93506109aa8185602086016108f6565b6109b381610904565b840191505092915050565b5f6060820190506109d15f830186610889565b81810360208301526109e38185610986565b905081810360408301526109f78184610986565b9050949350505050565b610a0a81610818565b82525050565b5f602082019050610a235f830184610a01565b92915050565b5f819050919050565b5f610a4c610a47610a42846107f9565b610a29565b6107f9565b9050919050565b5f610a5d82610a32565b9050919050565b5f610a6e82610a53565b9050919050565b610a7e81610a64565b82525050565b5f602082019050610a975f830184610a75565b92915050565b5f5f5f60408486031215610ab457610ab3610679565b5b5f610ac1868287016106a4565b935050602084013567ffffffffffffffff811115610ae257610ae161067d565b5b610aee868287016106c4565b92509250509250925092565b7f4f6e6c7920656e64706f696e74000000000000000000000000000000000000005f82015250565b5f610b2e600d83610976565b9150610b3982610afa565b602082019050919050565b5f6020820190508181035f830152610b5b81610b22565b9050919050565b7f496e76616c696420736f7572636520636861696e0000000000000000000000005f82015250565b5f610b96601483610976565b9150610ba182610b62565b602082019050919050565b5f6020820190508181035f830152610bc381610b8a565b9050919050565b7f496e76616c69642073656e6465720000000000000000000000000000000000005f82015250565b5f610bfe600e83610976565b9150610c0982610bca565b602082019050919050565b5f6020820190508181035f830152610c2b81610bf2565b9050919050565b5f610c3c826107f9565b9050919050565b610c4c81610c32565b8114610c56575f5ffd5b50565b5f81359050610c6781610c43565b92915050565b5f60208284031215610c8257610c81610679565b5b5f610c8f84828501610c59565b91505092915050565b7f4e487b71000000000000000000000000000000000000000000000000000000005f52602260045260245ffd5b5f6002820490506001821680610cdc57607f821691505b602082108103610cef57610cee610c98565b5b50919050565b7f4e6f74206f776e657200000000000000000000000000000000000000000000005f82015250565b5f610d29600983610976565b9150610d3482610cf5565b602082019050919050565b5f6020820190508181035f830152610d5681610d1d565b9050919050565b5f82905092915050565b7f4e487b71000000000000000000000000000000000000000000000000000000005f52604160045260245ffd5b5f819050815f5260205f209050919050565b5f6020601f8301049050919050565b5f82821b905092915050565b5f60088302610df07fffffffffffffffffffffffffffffffffffffffffffffffffffffffffffffffff82610db5565b610dfa8683610db5565b95508019841693508086168417925050509392505050565b5f819050919050565b5f610e35610e30610e2b84610e12565b610a29565b610e12565b9050919050565b5f819050919050565b610e4e83610e1b565b610e62610e5a82610e3c565b848454610dc1565b825550505050565b5f5f905090565b610e79610e6a565b610e84818484610e45565b505050565b5b81811015610ea757610e9c5f82610e71565b600181019050610e8a565b5050565b601f821115610eec57610ebd81610d94565b610ec684610da6565b81016020851015610ed5578190505b610ee9610ee185610da6565b830182610e89565b50505b505050565b5f82821c905092915050565b5f610f0c5f1984600802610ef1565b1980831691505092915050565b5f610f248383610efd565b9150826002028217905092915050565b610f3e8383610d5d565b67ffffffffffffffff811115610f5757610f56610d67565b5b610f618254610cc5565b610f6c828285610eab565b5f601f831160018114610f99575f8415610f87578287013590505b610f918582610f19565b865550610ff8565b601f198416610fa786610d94565b5f5b82811015610fce57848901358255600182019150602085019450602081019050610fa9565b86831015610feb5784890135610fe7601f891682610efd565b8355505b6001600288020188555050505b5050505050505056fea264697066735822122064d81bada5816b0678af4601da62f6fc3c7f5f996b00efed0cfc58230ab1de1e64736f6c634300081c0033","linkReferences":{}},"methodIdentifiers":{"checkKYC(address)":"8846594b","isKYCVerified(address)":"54b7636e","lzEndpoint()":"b353aaa7","lzReceive(uint16,bytes,uint64,bytes)":"001d3567","owner()":"8da5cb5b","setTrustedRemote(uint16,bytes)":"eb8d72b7","trustedRemoteLookup(uint16)":"7533d788"},"id":3}