{
	"src/core/FragmentManager.sol": {
		"FragmentManager": {
			"abi": [
				{
					"inputs": [
						{
							"internalType": "address",
							"name": "_token",
							"type": "address"
						},
						{
							"internalType": "address",
							"name": "_poolA",
							"type": "address"
						},
						{
							"internalType": "address",
							"name": "_poolB",
							"type": "address"
						},
						{
							"internalType": "address",
							"name": "_poolC",
							"type": "address"
						},
						{
							"internalType": "address",
							"name": "_poolD",
							"type": "address"
						}
					],
					"stateMutability": "nonpayable",
					"type": "constructor"
				},
				{
					"inputs": [
						{
							"internalType": "address",
							"name": "owner",
							"type": "address"
						}
					],
					"name": "OwnableInvalidOwner",
					"type": "error"
				},
				{
					"inputs": [
						{
							"internalType": "address",
							"name": "account",
							"type": "address"
						}
					],
					"name": "OwnableUnauthorizedAccount",
					"type": "error"
				},
				{
					"inputs": [],
					"name": "ReentrancyGuardReentrantCall",
					"type": "error"
				},
				{
					"anonymous": false,
					"inputs": [
						{
							"indexed": true,
							"internalType": "uint256",
							"name": "userId",
							"type": "uint256"
						},
						{
							"indexed": false,
							"internalType": "uint256[]",
							"name": "amounts",
							"type": "uint256[]"
						},
						{
							"indexed": false,
							"internalType": "uint256",
							"name": "level",
							"type": "uint256"
						}
					],
					"name": "FragmentsDeposited",
					"type": "event"
				},
				{
					"anonymous": false,
					"inputs": [
						{
							"indexed": true,
							"internalType": "uint256",
							"name": "userId",
							"type": "uint256"
						},
						{
							"indexed": false,
							"internalType": "uint256[]",
							"name": "amounts",
							"type": "uint256[]"
						},
						{
							"indexed": false,
							"internalType": "address",
							"name": "stealthAddr",
							"type": "address"
						},
						{
							"indexed": false,
							"internalType": "uint256",
							"name": "level",
							"type": "uint256"
						}
					],
					"name": "FragmentsWithdrawn",
					"type": "event"
				},
				{
					"anonymous": false,
					"inputs": [
						{
							"indexed": true,
							"internalType": "address",
							"name": "previousOwner",
							"type": "address"
						},
						{
							"indexed": true,
							"internalType": "address",
							"name": "newOwner",
							"type": "address"
						}
					],
					"name": "OwnershipTransferred",
					"type": "event"
				},
				{
					"inputs": [
						{
							"internalType": "uint256[]",
							"name": "amounts",
							"type": "uint256[]"
						},
						{
							"internalType": "uint256",
							"name": "userId",
							"type": "uint256"
						},
						{
							"internalType": "uint256",
							"name": "level",
							"type": "uint256"
						}
					],
					"name": "depositFragments",
					"outputs": [],
					"stateMutability": "nonpayable",
					"type": "function"
				},
				{
					"inputs": [
						{
							"internalType": "address",
							"name": "to",
							"type": "address"
						}
					],
					"name": "emergencyWithdraw",
					"outputs": [],
					"stateMutability": "nonpayable",
					"type": "function"
				},
				{
					"inputs": [],
					"name": "getPools",
					"outputs": [
						{
							"internalType": "address[4]",
							"name": "",
							"type": "address[4]"
						}
					],
					"stateMutability": "view",
					"type": "function"
				},
				{
					"inputs": [],
					"name": "owner",
					"outputs": [
						{
							"internalType": "address",
							"name": "",
							"type": "address"
						}
					],
					"stateMutability": "view",
					"type": "function"
				},
				{
					"inputs": [],
					"name": "poolA",
					"outputs": [
						{
							"internalType": "address",
							"name": "",
							"type": "address"
						}
					],
					"stateMutability": "view",
					"type": "function"
				},
				{
					"inputs": [],
					"name": "poolB",
					"outputs": [
						{
							"internalType": "address",
							"name": "",
							"type": "address"
						}
					],
					"stateMutability": "view",
					"type": "function"
				},
				{
					"inputs": [],
					"name": "poolC",
					"outputs": [
						{
							"internalType": "address",
							"name": "",
							"type": "address"
						}
					],
					"stateMutability": "view",
					"type": "function"
				},
				{
					"inputs": [],
					"name": "poolD",
					"outputs": [
						{
							"internalType": "address",
							"name": "",
							"type": "address"
						}
					],
					"stateMutability": "view",
					"type": "function"
				},
				{
					"inputs": [],
					"name": "renounceOwnership",
					"outputs": [],
					"stateMutability": "nonpayable",
					"type": "function"
				},
				{
					"inputs": [],
					"name": "token",
					"outputs": [
						{
							"internalType": "contract IERC20",
							"name": "",
							"type": "address"
						}
					],
					"stateMutability": "view",
					"type": "function"
				},
				{
					"inputs": [
						{
							"internalType": "uint256",
							"name": "",
							"type": "uint256"
						}
					],
					"name": "totalDeposited",
					"outputs": [
						{
							"internalType": "uint256",
							"name": "",
							"type": "uint256"
						}
					],
					"stateMutability": "view",
					"type": "function"
				},
				{
					"inputs": [
						{
							"internalType": "address",
							"name": "newOwner",
							"type": "address"
						}
					],
					"name": "transferOwnership",
					"outputs": [],
					"stateMutability": "nonpayable",
					"type": "function"
				},
				{
					"inputs": [
						{
							"internalType": "uint256[]",
							"name": "amounts",
							"type": "uint256[]"
						},
						{
							"internalType": "uint256",
							"name": "userId",
							"type": "uint256"
						},
						{
							"internalType": "address",
							"name": "stealthAddr",
							"type": "address"
						},
						{
							"internalType": "uint256",
							"name": "level",
							"type": "uint256"
						}
					],
					"name": "withdrawFragments",
					"outputs": [],
					"stateMutability": "nonpayable",
					"type": "function"
				}
			],
			"devdoc": {
				"errors": {
					"OwnableInvalidOwner(address)": [
						{
							"details": "The owner is not a valid owner account. (eg. `address(0)`)"
						}
					],
					"OwnableUnauthorizedAccount(address)": [
						{
							"details": "The caller account is not authorized to perform an operation."
						}
					],
					"ReentrancyGuardReentrantCall()": [
						{
							"details": "Unauthorized reentrant call."
						}
					]
				},
				"kind": "dev",
				"methods": {
					"owner()": {
						"details": "Returns the address of the current owner."
					},
					"renounceOwnership()": {
						"details": "Leaves the contract without owner. It will not be possible to call `onlyOwner` functions. Can only be called by the current owner. NOTE: Renouncing ownership will leave the contract without an owner, thereby disabling any functionality that is only available to the owner."
					},
					"transferOwnership(address)": {
						"details": "Transfers ownership of the contract to a new account (`newOwner`). Can only be called by the current owner."
					}
				},
				"version": 1
			},
			"evm": {
				"assembly": "    /* \"src/core/FragmentManager.sol\":258:4698  contract FragmentManager is Ownable, ReentrancyGuard {... */\n  mstore(0x40, 0x0120)\n    /* \"src/core/FragmentManager.sol\":924:1537  constructor(... */\n  callvalue\n  dup1\n  iszero\n  tag_1\n  jumpi\n  revert(0x00, 0x00)\ntag_1:\n  pop\n  mload(0x40)\n  sub(codesize, bytecodeSize)\n  dup1\n  bytecodeSize\n  dup4\n  codecopy\n  dup2\n  dup2\n  add\n  0x40\n  mstore\n  dup2\n  add\n  swap1\n  tag_2\n  swap2\n  swap1\n  tag_3\n  jump\t// in\ntag_2:\n    /* \"src/core/FragmentManager.sol\":1070:1080  msg.sender */\n  caller\n    /* \"@openzeppelin/contracts/access/Ownable.sol\":1297:1298  0 */\n  0x00\n    /* \"@openzeppelin/contracts/access/Ownable.sol\":1273:1299  initialOwner == address(0) */\n  0xffffffffffffffffffffffffffffffffffffffff\n  and\n    /* \"@openzeppelin/contracts/access/Ownable.sol\":1273:1285  initialOwner */\n  dup2\n    /* \"@openzeppelin/contracts/access/Ownable.sol\":1273:1299  initialOwner == address(0) */\n  0xffffffffffffffffffffffffffffffffffffffff\n  and\n  sub\n    /* \"@openzeppelin/contracts/access/Ownable.sol\":1269:1364  if (initialOwner == address(0)) {... */\n  tag_8\n  jumpi\n    /* \"@openzeppelin/contracts/access/Ownable.sol\":1350:1351  0 */\n  0x00\n    /* \"@openzeppelin/contracts/access/Ownable.sol\":1322:1353  OwnableInvalidOwner(address(0)) */\n  mload(0x40)\n  0x1e4fbdf700000000000000000000000000000000000000000000000000000000\n  dup2\n  mstore\n  0x04\n  add\n  tag_9\n  swap2\n  swap1\n  tag_10\n  jump\t// in\ntag_9:\n  mload(0x40)\n  dup1\n  swap2\n  sub\n  swap1\n  revert\n    /* \"@openzeppelin/contracts/access/Ownable.sol\":1269:1364  if (initialOwner == address(0)) {... */\ntag_8:\n    /* \"@openzeppelin/contracts/access/Ownable.sol\":1373:1405  _transferOwnership(initialOwner) */\n  tag_11\n    /* \"@openzeppelin/contracts/access/Ownable.sol\":1392:1404  initialOwner */\n  dup2\n    /* \"@openzeppelin/contracts/access/Ownable.sol\":1373:1391  _transferOwnership */\n  shl(0x20, tag_12)\n    /* \"@openzeppelin/contracts/access/Ownable.sol\":1373:1405  _transferOwnership(initialOwner) */\n  0x20\n  shr\n  jump\t// in\ntag_11:\n    /* \"@openzeppelin/contracts/access/Ownable.sol\":1225:1412  constructor(address initialOwner) {... */\n  pop\n    /* \"@openzeppelin/contracts/utils/ReentrancyGuard.sol\":1857:1858  1 */\n  0x01\n    /* \"@openzeppelin/contracts/utils/ReentrancyGuard.sol\":2061:2068  _status */\n  dup1\n    /* \"@openzeppelin/contracts/utils/ReentrancyGuard.sol\":2061:2082  _status = NOT_ENTERED */\n  dup2\n  swap1\n  sstore\n  pop\n    /* \"src/core/FragmentManager.sol\":1118:1119  0 */\n  0x00\n    /* \"src/core/FragmentManager.sol\":1100:1120  _token != address(0) */\n  0xffffffffffffffffffffffffffffffffffffffff\n  and\n    /* \"src/core/FragmentManager.sol\":1100:1106  _token */\n  dup6\n    /* \"src/core/FragmentManager.sol\":1100:1120  _token != address(0) */\n  0xffffffffffffffffffffffffffffffffffffffff\n  and\n  sub\n    /* \"src/core/FragmentManager.sol\":1092:1146  require(_token != address(0), \"Invalid token address\") */\n  tag_15\n  jumpi\n  mload(0x40)\n  0x08c379a000000000000000000000000000000000000000000000000000000000\n  dup2\n  mstore\n  0x04\n  add\n  tag_16\n  swap1\n  tag_17\n  jump\t// in\ntag_16:\n  mload(0x40)\n  dup1\n  swap2\n  sub\n  swap1\n  revert\ntag_15:\n    /* \"src/core/FragmentManager.sol\":1182:1183  0 */\n  0x00\n    /* \"src/core/FragmentManager.sol\":1164:1184  _poolA != address(0) */\n  0xffffffffffffffffffffffffffffffffffffffff\n  and\n    /* \"src/core/FragmentManager.sol\":1164:1170  _poolA */\n  dup5\n    /* \"src/core/FragmentManager.sol\":1164:1184  _poolA != address(0) */\n  0xffffffffffffffffffffffffffffffffffffffff\n  and\n  sub\n    /* \"src/core/FragmentManager.sol\":1156:1210  require(_poolA != address(0), \"Invalid PoolA address\") */\n  tag_18\n  jumpi\n  mload(0x40)\n  0x08c379a000000000000000000000000000000000000000000000000000000000\n  dup2\n  mstore\n  0x04\n  add\n  tag_19\n  swap1\n  tag_20\n  jump\t// in\ntag_19:\n  mload(0x40)\n  dup1\n  swap2\n  sub\n  swap1\n  revert\ntag_18:\n    /* \"src/core/FragmentManager.sol\":1246:1247  0 */\n  0x00\n    /* \"src/core/FragmentManager.sol\":1228:1248  _poolB != address(0) */\n  0xffffffffffffffffffffffffffffffffffffffff\n  and\n    /* \"src/core/FragmentManager.sol\":1228:1234  _poolB */\n  dup4\n    /* \"src/core/FragmentManager.sol\":1228:1248  _poolB != address(0) */\n  0xffffffffffffffffffffffffffffffffffffffff\n  and\n  sub\n    /* \"src/core/FragmentManager.sol\":1220:1274  require(_poolB != address(0), \"Invalid PoolB address\") */\n  tag_21\n  jumpi\n  mload(0x40)\n  0x08c379a000000000000000000000000000000000000000000000000000000000\n  dup2\n  mstore\n  0x04\n  add\n  tag_22\n  swap1\n  tag_23\n  jump\t// in\ntag_22:\n  mload(0x40)\n  dup1\n  swap2\n  sub\n  swap1\n  revert\ntag_21:\n    /* \"src/core/FragmentManager.sol\":1310:1311  0 */\n  0x00\n    /* \"src/core/FragmentManager.sol\":1292:1312  _poolC != address(0) */\n  0xffffffffffffffffffffffffffffffffffffffff\n  and\n    /* \"src/core/FragmentManager.sol\":1292:1298  _poolC */\n  dup3\n    /* \"src/core/FragmentManager.sol\":1292:1312  _poolC != address(0) */\n  0xffffffffffffffffffffffffffffffffffffffff\n  and\n  sub\n    /* \"src/core/FragmentManager.sol\":1284:1338  require(_poolC != address(0), \"Invalid PoolC address\") */\n  tag_24\n  jumpi\n  mload(0x40)\n  0x08c379a000000000000000000000000000000000000000000000000000000000\n  dup2\n  mstore\n  0x04\n  add\n  tag_25\n  swap1\n  tag_26\n  jump\t// in\ntag_25:\n  mload(0x40)\n  dup1\n  swap2\n  sub\n  swap1\n  revert\ntag_24:\n    /* \"src/core/FragmentManager.sol\":1374:1375  0 */\n  0x00\n    /* \"src/core/FragmentManager.sol\":1356:1376  _poolD != address(0) */\n  0xffffffffffffffffffffffffffffffffffffffff\n  and\n    /* \"src/core/FragmentManager.sol\":1356:1362  _poolD */\n  dup2\n    /* \"src/core/FragmentManager.sol\":1356:1376  _poolD != address(0) */\n  0xffffffffffffffffffffffffffffffffffffffff\n  and\n  sub\n    /* \"src/core/FragmentManager.sol\":1348:1402  require(_poolD != address(0), \"Invalid PoolD address\") */\n  tag_27\n  jumpi\n  mload(0x40)\n  0x08c379a000000000000000000000000000000000000000000000000000000000\n  dup2\n  mstore\n  0x04\n  add\n  tag_28\n  swap1\n  tag_29\n  jump\t// in\ntag_28:\n  mload(0x40)\n  dup1\n  swap2\n  sub\n  swap1\n  revert\ntag_27:\n    /* \"src/core/FragmentManager.sol\":1427:1433  _token */\n  dup5\n    /* \"src/core/FragmentManager.sol\":1412:1434  token = IERC20(_token) */\n  0xffffffffffffffffffffffffffffffffffffffff\n  and\n  0x80\n  dup2\n  0xffffffffffffffffffffffffffffffffffffffff\n  and\n  dup2\n  mstore\n  pop\n  pop\n    /* \"src/core/FragmentManager.sol\":1452:1458  _poolA */\n  dup4\n    /* \"src/core/FragmentManager.sol\":1444:1458  poolA = _poolA */\n  0xffffffffffffffffffffffffffffffffffffffff\n  and\n  0xa0\n  dup2\n  0xffffffffffffffffffffffffffffffffffffffff\n  and\n  dup2\n  mstore\n  pop\n  pop\n    /* \"src/core/FragmentManager.sol\":1476:1482  _poolB */\n  dup3\n    /* \"src/core/FragmentManager.sol\":1468:1482  poolB = _poolB */\n  0xffffffffffffffffffffffffffffffffffffffff\n  and\n  0xc0\n  dup2\n  0xffffffffffffffffffffffffffffffffffffffff\n  and\n  dup2\n  mstore\n  pop\n  pop\n    /* \"src/core/FragmentManager.sol\":1500:1506  _poolC */\n  dup2\n    /* \"src/core/FragmentManager.sol\":1492:1506  poolC = _poolC */\n  0xffffffffffffffffffffffffffffffffffffffff\n  and\n  0xe0\n  dup2\n  0xffffffffffffffffffffffffffffffffffffffff\n  and\n  dup2\n  mstore\n  pop\n  pop\n    /* \"src/core/FragmentManager.sol\":1524:1530  _poolD */\n  dup1\n    /* \"src/core/FragmentManager.sol\":1516:1530  poolD = _poolD */\n  0xffffffffffffffffffffffffffffffffffffffff\n  and\n  0x0100\n  dup2\n  0xffffffffffffffffffffffffffffffffffffffff\n  and\n  dup2\n  mstore\n  pop\n  pop\n    /* \"src/core/FragmentManager.sol\":924:1537  constructor(... */\n  pop\n  pop\n  pop\n  pop\n  pop\n    /* \"src/core/FragmentManager.sol\":258:4698  contract FragmentManager is Ownable, ReentrancyGuard {... */\n  jump(tag_30)\n    /* \"@openzeppelin/contracts/access/Ownable.sol\":2912:3099  function _transferOwnership(address newOwner) internal virtual {... */\ntag_12:\n    /* \"@openzeppelin/contracts/access/Ownable.sol\":2985:3001  address oldOwner */\n  0x00\n    /* \"@openzeppelin/contracts/access/Ownable.sol\":3004:3010  _owner */\n  0x00\n  0x00\n  swap1\n  sload\n  swap1\n  0x0100\n  exp\n  swap1\n  div\n  0xffffffffffffffffffffffffffffffffffffffff\n  and\n    /* \"@openzeppelin/contracts/access/Ownable.sol\":2985:3010  address oldOwner = _owner */\n  swap1\n  pop\n    /* \"@openzeppelin/contracts/access/Ownable.sol\":3029:3037  newOwner */\n  dup2\n    /* \"@openzeppelin/contracts/access/Ownable.sol\":3020:3026  _owner */\n  0x00\n  0x00\n    /* \"@openzeppelin/contracts/access/Ownable.sol\":3020:3037  _owner = newOwner */\n  0x0100\n  exp\n  dup2\n  sload\n  dup2\n  0xffffffffffffffffffffffffffffffffffffffff\n  mul\n  not\n  and\n  swap1\n  dup4\n  0xffffffffffffffffffffffffffffffffffffffff\n  and\n  mul\n  or\n  swap1\n  sstore\n  pop\n    /* \"@openzeppelin/contracts/access/Ownable.sol\":3083:3091  newOwner */\n  dup2\n    /* \"@openzeppelin/contracts/access/Ownable.sol\":3052:3092  OwnershipTransferred(oldOwner, newOwner) */\n  0xffffffffffffffffffffffffffffffffffffffff\n  and\n    /* \"@openzeppelin/contracts/access/Ownable.sol\":3073:3081  oldOwner */\n  dup2\n    /* \"@openzeppelin/contracts/access/Ownable.sol\":3052:3092  OwnershipTransferred(oldOwner, newOwner) */\n  0xffffffffffffffffffffffffffffffffffffffff\n  and\n  0x8be0079c531659141344cd1fd0a4f28419497f9722a3daafe3b4186f6b6457e0\n  mload(0x40)\n  mload(0x40)\n  dup1\n  swap2\n  sub\n  swap1\n  log3\n    /* \"@openzeppelin/contracts/access/Ownable.sol\":2975:3099  {... */\n  pop\n    /* \"@openzeppelin/contracts/access/Ownable.sol\":2912:3099  function _transferOwnership(address newOwner) internal virtual {... */\n  pop\n  jump\t// out\n    /* \"#utility.yul\":88:205   */\ntag_33:\n    /* \"#utility.yul\":197:198   */\n  0x00\n    /* \"#utility.yul\":194:195   */\n  0x00\n    /* \"#utility.yul\":187:199   */\n  revert\n    /* \"#utility.yul\":334:460   */\ntag_35:\n    /* \"#utility.yul\":371:378   */\n  0x00\n    /* \"#utility.yul\":411:453   */\n  0xffffffffffffffffffffffffffffffffffffffff\n    /* \"#utility.yul\":404:409   */\n  dup3\n    /* \"#utility.yul\":400:454   */\n  and\n    /* \"#utility.yul\":389:454   */\n  swap1\n  pop\n    /* \"#utility.yul\":334:460   */\n  swap2\n  swap1\n  pop\n  jump\t// out\n    /* \"#utility.yul\":466:562   */\ntag_36:\n    /* \"#utility.yul\":503:510   */\n  0x00\n    /* \"#utility.yul\":532:556   */\n  tag_57\n    /* \"#utility.yul\":550:555   */\n  dup3\n    /* \"#utility.yul\":532:556   */\n  tag_35\n  jump\t// in\ntag_57:\n    /* \"#utility.yul\":521:556   */\n  swap1\n  pop\n    /* \"#utility.yul\":466:562   */\n  swap2\n  swap1\n  pop\n  jump\t// out\n    /* \"#utility.yul\":568:690   */\ntag_37:\n    /* \"#utility.yul\":641:665   */\n  tag_59\n    /* \"#utility.yul\":659:664   */\n  dup2\n    /* \"#utility.yul\":641:665   */\n  tag_36\n  jump\t// in\ntag_59:\n    /* \"#utility.yul\":634:639   */\n  dup2\n    /* \"#utility.yul\":631:666   */\n  eq\n    /* \"#utility.yul\":621:684   */\n  tag_60\n  jumpi\n    /* \"#utility.yul\":680:681   */\n  0x00\n    /* \"#utility.yul\":677:678   */\n  0x00\n    /* \"#utility.yul\":670:682   */\n  revert\n    /* \"#utility.yul\":621:684   */\ntag_60:\n    /* \"#utility.yul\":568:690   */\n  pop\n  jump\t// out\n    /* \"#utility.yul\":696:839   */\ntag_38:\n    /* \"#utility.yul\":753:758   */\n  0x00\n    /* \"#utility.yul\":784:790   */\n  dup2\n    /* \"#utility.yul\":778:791   */\n  mload\n    /* \"#utility.yul\":769:791   */\n  swap1\n  pop\n    /* \"#utility.yul\":800:833   */\n  tag_62\n    /* \"#utility.yul\":827:832   */\n  dup2\n    /* \"#utility.yul\":800:833   */\n  tag_37\n  jump\t// in\ntag_62:\n    /* \"#utility.yul\":696:839   */\n  swap3\n  swap2\n  pop\n  pop\n  jump\t// out\n    /* \"#utility.yul\":845:1822   */\ntag_3:\n    /* \"#utility.yul\":951:957   */\n  0x00\n    /* \"#utility.yul\":959:965   */\n  0x00\n    /* \"#utility.yul\":967:973   */\n  0x00\n    /* \"#utility.yul\":975:981   */\n  0x00\n    /* \"#utility.yul\":983:989   */\n  0x00\n    /* \"#utility.yul\":1032:1035   */\n  0xa0\n    /* \"#utility.yul\":1020:1029   */\n  dup7\n    /* \"#utility.yul\":1011:1018   */\n  dup9\n    /* \"#utility.yul\":1007:1030   */\n  sub\n    /* \"#utility.yul\":1003:1036   */\n  slt\n    /* \"#utility.yul\":1000:1120   */\n  iszero\n  tag_64\n  jumpi\n    /* \"#utility.yul\":1039:1118   */\n  tag_65\n  tag_33\n  jump\t// in\ntag_65:\n    /* \"#utility.yul\":1000:1120   */\ntag_64:\n    /* \"#utility.yul\":1159:1160   */\n  0x00\n    /* \"#utility.yul\":1184:1248   */\n  tag_66\n    /* \"#utility.yul\":1240:1247   */\n  dup9\n    /* \"#utility.yul\":1231:1237   */\n  dup3\n    /* \"#utility.yul\":1220:1229   */\n  dup10\n    /* \"#utility.yul\":1216:1238   */\n  add\n    /* \"#utility.yul\":1184:1248   */\n  tag_38\n  jump\t// in\ntag_66:\n    /* \"#utility.yul\":1174:1248   */\n  swap6\n  pop\n    /* \"#utility.yul\":1130:1258   */\n  pop\n    /* \"#utility.yul\":1297:1299   */\n  0x20\n    /* \"#utility.yul\":1323:1387   */\n  tag_67\n    /* \"#utility.yul\":1379:1386   */\n  dup9\n    /* \"#utility.yul\":1370:1376   */\n  dup3\n    /* \"#utility.yul\":1359:1368   */\n  dup10\n    /* \"#utility.yul\":1355:1377   */\n  add\n    /* \"#utility.yul\":1323:1387   */\n  tag_38\n  jump\t// in\ntag_67:\n    /* \"#utility.yul\":1313:1387   */\n  swap5\n  pop\n    /* \"#utility.yul\":1268:1397   */\n  pop\n    /* \"#utility.yul\":1436:1438   */\n  0x40\n    /* \"#utility.yul\":1462:1526   */\n  tag_68\n    /* \"#utility.yul\":1518:1525   */\n  dup9\n    /* \"#utility.yul\":1509:1515   */\n  dup3\n    /* \"#utility.yul\":1498:1507   */\n  dup10\n    /* \"#utility.yul\":1494:1516   */\n  add\n    /* \"#utility.yul\":1462:1526   */\n  tag_38\n  jump\t// in\ntag_68:\n    /* \"#utility.yul\":1452:1526   */\n  swap4\n  pop\n    /* \"#utility.yul\":1407:1536   */\n  pop\n    /* \"#utility.yul\":1575:1577   */\n  0x60\n    /* \"#utility.yul\":1601:1665   */\n  tag_69\n    /* \"#utility.yul\":1657:1664   */\n  dup9\n    /* \"#utility.yul\":1648:1654   */\n  dup3\n    /* \"#utility.yul\":1637:1646   */\n  dup10\n    /* \"#utility.yul\":1633:1655   */\n  add\n    /* \"#utility.yul\":1601:1665   */\n  tag_38\n  jump\t// in\ntag_69:\n    /* \"#utility.yul\":1591:1665   */\n  swap3\n  pop\n    /* \"#utility.yul\":1546:1675   */\n  pop\n    /* \"#utility.yul\":1714:1717   */\n  0x80\n    /* \"#utility.yul\":1741:1805   */\n  tag_70\n    /* \"#utility.yul\":1797:1804   */\n  dup9\n    /* \"#utility.yul\":1788:1794   */\n  dup3\n    /* \"#utility.yul\":1777:1786   */\n  dup10\n    /* \"#utility.yul\":1773:1795   */\n  add\n    /* \"#utility.yul\":1741:1805   */\n  tag_38\n  jump\t// in\ntag_70:\n    /* \"#utility.yul\":1731:1805   */\n  swap2\n  pop\n    /* \"#utility.yul\":1685:1815   */\n  pop\n    /* \"#utility.yul\":845:1822   */\n  swap3\n  swap6\n  pop\n  swap3\n  swap6\n  swap1\n  swap4\n  pop\n  jump\t// out\n    /* \"#utility.yul\":1828:1946   */\ntag_39:\n    /* \"#utility.yul\":1915:1939   */\n  tag_72\n    /* \"#utility.yul\":1933:1938   */\n  dup2\n    /* \"#utility.yul\":1915:1939   */\n  tag_36\n  jump\t// in\ntag_72:\n    /* \"#utility.yul\":1910:1913   */\n  dup3\n    /* \"#utility.yul\":1903:1940   */\n  mstore\n    /* \"#utility.yul\":1828:1946   */\n  pop\n  pop\n  jump\t// out\n    /* \"#utility.yul\":1952:2174   */\ntag_10:\n    /* \"#utility.yul\":2045:2049   */\n  0x00\n    /* \"#utility.yul\":2083:2085   */\n  0x20\n    /* \"#utility.yul\":2072:2081   */\n  dup3\n    /* \"#utility.yul\":2068:2086   */\n  add\n    /* \"#utility.yul\":2060:2086   */\n  swap1\n  pop\n    /* \"#utility.yul\":2096:2167   */\n  tag_74\n    /* \"#utility.yul\":2164:2165   */\n  0x00\n    /* \"#utility.yul\":2153:2162   */\n  dup4\n    /* \"#utility.yul\":2149:2166   */\n  add\n    /* \"#utility.yul\":2140:2146   */\n  dup5\n    /* \"#utility.yul\":2096:2167   */\n  tag_39\n  jump\t// in\ntag_74:\n    /* \"#utility.yul\":1952:2174   */\n  swap3\n  swap2\n  pop\n  pop\n  jump\t// out\n    /* \"#utility.yul\":2180:2349   */\ntag_40:\n    /* \"#utility.yul\":2264:2275   */\n  0x00\n    /* \"#utility.yul\":2298:2304   */\n  dup3\n    /* \"#utility.yul\":2293:2296   */\n  dup3\n    /* \"#utility.yul\":2286:2305   */\n  mstore\n    /* \"#utility.yul\":2338:2342   */\n  0x20\n    /* \"#utility.yul\":2333:2336   */\n  dup3\n    /* \"#utility.yul\":2329:2343   */\n  add\n    /* \"#utility.yul\":2314:2343   */\n  swap1\n  pop\n    /* \"#utility.yul\":2180:2349   */\n  swap3\n  swap2\n  pop\n  pop\n  jump\t// out\n    /* \"#utility.yul\":2355:2526   */\ntag_41:\n    /* \"#utility.yul\":2495:2518   */\n  0x496e76616c696420746f6b656e20616464726573730000000000000000000000\n    /* \"#utility.yul\":2491:2492   */\n  0x00\n    /* \"#utility.yul\":2483:2489   */\n  dup3\n    /* \"#utility.yul\":2479:2493   */\n  add\n    /* \"#utility.yul\":2472:2519   */\n  mstore\n    /* \"#utility.yul\":2355:2526   */\n  pop\n  jump\t// out\n    /* \"#utility.yul\":2532:2898   */\ntag_42:\n    /* \"#utility.yul\":2674:2677   */\n  0x00\n    /* \"#utility.yul\":2695:2762   */\n  tag_78\n    /* \"#utility.yul\":2759:2761   */\n  0x15\n    /* \"#utility.yul\":2754:2757   */\n  dup4\n    /* \"#utility.yul\":2695:2762   */\n  tag_40\n  jump\t// in\ntag_78:\n    /* \"#utility.yul\":2688:2762   */\n  swap2\n  pop\n    /* \"#utility.yul\":2771:2864   */\n  tag_79\n    /* \"#utility.yul\":2860:2863   */\n  dup3\n    /* \"#utility.yul\":2771:2864   */\n  tag_41\n  jump\t// in\ntag_79:\n    /* \"#utility.yul\":2889:2891   */\n  0x20\n    /* \"#utility.yul\":2884:2887   */\n  dup3\n    /* \"#utility.yul\":2880:2892   */\n  add\n    /* \"#utility.yul\":2873:2892   */\n  swap1\n  pop\n    /* \"#utility.yul\":2532:2898   */\n  swap2\n  swap1\n  pop\n  jump\t// out\n    /* \"#utility.yul\":2904:3323   */\ntag_17:\n    /* \"#utility.yul\":3070:3074   */\n  0x00\n    /* \"#utility.yul\":3108:3110   */\n  0x20\n    /* \"#utility.yul\":3097:3106   */\n  dup3\n    /* \"#utility.yul\":3093:3111   */\n  add\n    /* \"#utility.yul\":3085:3111   */\n  swap1\n  pop\n    /* \"#utility.yul\":3157:3166   */\n  dup2\n    /* \"#utility.yul\":3151:3155   */\n  dup2\n    /* \"#utility.yul\":3147:3167   */\n  sub\n    /* \"#utility.yul\":3143:3144   */\n  0x00\n    /* \"#utility.yul\":3132:3141   */\n  dup4\n    /* \"#utility.yul\":3128:3145   */\n  add\n    /* \"#utility.yul\":3121:3168   */\n  mstore\n    /* \"#utility.yul\":3185:3316   */\n  tag_81\n    /* \"#utility.yul\":3311:3315   */\n  dup2\n    /* \"#utility.yul\":3185:3316   */\n  tag_42\n  jump\t// in\ntag_81:\n    /* \"#utility.yul\":3177:3316   */\n  swap1\n  pop\n    /* \"#utility.yul\":2904:3323   */\n  swap2\n  swap1\n  pop\n  jump\t// out\n    /* \"#utility.yul\":3329:3500   */\ntag_43:\n    /* \"#utility.yul\":3469:3492   */\n  0x496e76616c696420506f6f6c4120616464726573730000000000000000000000\n    /* \"#utility.yul\":3465:3466   */\n  0x00\n    /* \"#utility.yul\":3457:3463   */\n  dup3\n    /* \"#utility.yul\":3453:3467   */\n  add\n    /* \"#utility.yul\":3446:3493   */\n  mstore\n    /* \"#utility.yul\":3329:3500   */\n  pop\n  jump\t// out\n    /* \"#utility.yul\":3506:3872   */\ntag_44:\n    /* \"#utility.yul\":3648:3651   */\n  0x00\n    /* \"#utility.yul\":3669:3736   */\n  tag_84\n    /* \"#utility.yul\":3733:3735   */\n  0x15\n    /* \"#utility.yul\":3728:3731   */\n  dup4\n    /* \"#utility.yul\":3669:3736   */\n  tag_40\n  jump\t// in\ntag_84:\n    /* \"#utility.yul\":3662:3736   */\n  swap2\n  pop\n    /* \"#utility.yul\":3745:3838   */\n  tag_85\n    /* \"#utility.yul\":3834:3837   */\n  dup3\n    /* \"#utility.yul\":3745:3838   */\n  tag_43\n  jump\t// in\ntag_85:\n    /* \"#utility.yul\":3863:3865   */\n  0x20\n    /* \"#utility.yul\":3858:3861   */\n  dup3\n    /* \"#utility.yul\":3854:3866   */\n  add\n    /* \"#utility.yul\":3847:3866   */\n  swap1\n  pop\n    /* \"#utility.yul\":3506:3872   */\n  swap2\n  swap1\n  pop\n  jump\t// out\n    /* \"#utility.yul\":3878:4297   */\ntag_20:\n    /* \"#utility.yul\":4044:4048   */\n  0x00\n    /* \"#utility.yul\":4082:4084   */\n  0x20\n    /* \"#utility.yul\":4071:4080   */\n  dup3\n    /* \"#utility.yul\":4067:4085   */\n  add\n    /* \"#utility.yul\":4059:4085   */\n  swap1\n  pop\n    /* \"#utility.yul\":4131:4140   */\n  dup2\n    /* \"#utility.yul\":4125:4129   */\n  dup2\n    /* \"#utility.yul\":4121:4141   */\n  sub\n    /* \"#utility.yul\":4117:4118   */\n  0x00\n    /* \"#utility.yul\":4106:4115   */\n  dup4\n    /* \"#utility.yul\":4102:4119   */\n  add\n    /* \"#utility.yul\":4095:4142   */\n  mstore\n    /* \"#utility.yul\":4159:4290   */\n  tag_87\n    /* \"#utility.yul\":4285:4289   */\n  dup2\n    /* \"#utility.yul\":4159:4290   */\n  tag_44\n  jump\t// in\ntag_87:\n    /* \"#utility.yul\":4151:4290   */\n  swap1\n  pop\n    /* \"#utility.yul\":3878:4297   */\n  swap2\n  swap1\n  pop\n  jump\t// out\n    /* \"#utility.yul\":4303:4474   */\ntag_45:\n    /* \"#utility.yul\":4443:4466   */\n  0x496e76616c696420506f6f6c4220616464726573730000000000000000000000\n    /* \"#utility.yul\":4439:4440   */\n  0x00\n    /* \"#utility.yul\":4431:4437   */\n  dup3\n    /* \"#utility.yul\":4427:4441   */\n  add\n    /* \"#utility.yul\":4420:4467   */\n  mstore\n    /* \"#utility.yul\":4303:4474   */\n  pop\n  jump\t// out\n    /* \"#utility.yul\":4480:4846   */\ntag_46:\n    /* \"#utility.yul\":4622:4625   */\n  0x00\n    /* \"#utility.yul\":4643:4710   */\n  tag_90\n    /* \"#utility.yul\":4707:4709   */\n  0x15\n    /* \"#utility.yul\":4702:4705   */\n  dup4\n    /* \"#utility.yul\":4643:4710   */\n  tag_40\n  jump\t// in\ntag_90:\n    /* \"#utility.yul\":4636:4710   */\n  swap2\n  pop\n    /* \"#utility.yul\":4719:4812   */\n  tag_91\n    /* \"#utility.yul\":4808:4811   */\n  dup3\n    /* \"#utility.yul\":4719:4812   */\n  tag_45\n  jump\t// in\ntag_91:\n    /* \"#utility.yul\":4837:4839   */\n  0x20\n    /* \"#utility.yul\":4832:4835   */\n  dup3\n    /* \"#utility.yul\":4828:4840   */\n  add\n    /* \"#utility.yul\":4821:4840   */\n  swap1\n  pop\n    /* \"#utility.yul\":4480:4846   */\n  swap2\n  swap1\n  pop\n  jump\t// out\n    /* \"#utility.yul\":4852:5271   */\ntag_23:\n    /* \"#utility.yul\":5018:5022   */\n  0x00\n    /* \"#utility.yul\":5056:5058   */\n  0x20\n    /* \"#utility.yul\":5045:5054   */\n  dup3\n    /* \"#utility.yul\":5041:5059   */\n  add\n    /* \"#utility.yul\":5033:5059   */\n  swap1\n  pop\n    /* \"#utility.yul\":5105:5114   */\n  dup2\n    /* \"#utility.yul\":5099:5103   */\n  dup2\n    /* \"#utility.yul\":5095:5115   */\n  sub\n    /* \"#utility.yul\":5091:5092   */\n  0x00\n    /* \"#utility.yul\":5080:5089   */\n  dup4\n    /* \"#utility.yul\":5076:5093   */\n  add\n    /* \"#utility.yul\":5069:5116   */\n  mstore\n    /* \"#utility.yul\":5133:5264   */\n  tag_93\n    /* \"#utility.yul\":5259:5263   */\n  dup2\n    /* \"#utility.yul\":5133:5264   */\n  tag_46\n  jump\t// in\ntag_93:\n    /* \"#utility.yul\":5125:5264   */\n  swap1\n  pop\n    /* \"#utility.yul\":4852:5271   */\n  swap2\n  swap1\n  pop\n  jump\t// out\n    /* \"#utility.yul\":5277:5448   */\ntag_47:\n    /* \"#utility.yul\":5417:5440   */\n  0x496e76616c696420506f6f6c4320616464726573730000000000000000000000\n    /* \"#utility.yul\":5413:5414   */\n  0x00\n    /* \"#utility.yul\":5405:5411   */\n  dup3\n    /* \"#utility.yul\":5401:5415   */\n  add\n    /* \"#utility.yul\":5394:5441   */\n  mstore\n    /* \"#utility.yul\":5277:5448   */\n  pop\n  jump\t// out\n    /* \"#utility.yul\":5454:5820   */\ntag_48:\n    /* \"#utility.yul\":5596:5599   */\n  0x00\n    /* \"#utility.yul\":5617:5684   */\n  tag_96\n    /* \"#utility.yul\":5681:5683   */\n  0x15\n    /* \"#utility.yul\":5676:5679   */\n  dup4\n    /* \"#utility.yul\":5617:5684   */\n  tag_40\n  jump\t// in\ntag_96:\n    /* \"#utility.yul\":5610:5684   */\n  swap2\n  pop\n    /* \"#utility.yul\":5693:5786   */\n  tag_97\n    /* \"#utility.yul\":5782:5785   */\n  dup3\n    /* \"#utility.yul\":5693:5786   */\n  tag_47\n  jump\t// in\ntag_97:\n    /* \"#utility.yul\":5811:5813   */\n  0x20\n    /* \"#utility.yul\":5806:5809   */\n  dup3\n    /* \"#utility.yul\":5802:5814   */\n  add\n    /* \"#utility.yul\":5795:5814   */\n  swap1\n  pop\n    /* \"#utility.yul\":5454:5820   */\n  swap2\n  swap1\n  pop\n  jump\t// out\n    /* \"#utility.yul\":5826:6245   */\ntag_26:\n    /* \"#utility.yul\":5992:5996   */\n  0x00\n    /* \"#utility.yul\":6030:6032   */\n  0x20\n    /* \"#utility.yul\":6019:6028   */\n  dup3\n    /* \"#utility.yul\":6015:6033   */\n  add\n    /* \"#utility.yul\":6007:6033   */\n  swap1\n  pop\n    /* \"#utility.yul\":6079:6088   */\n  dup2\n    /* \"#utility.yul\":6073:6077   */\n  dup2\n    /* \"#utility.yul\":6069:6089   */\n  sub\n    /* \"#utility.yul\":6065:6066   */\n  0x00\n    /* \"#utility.yul\":6054:6063   */\n  dup4\n    /* \"#utility.yul\":6050:6067   */\n  add\n    /* \"#utility.yul\":6043:6090   */\n  mstore\n    /* \"#utility.yul\":6107:6238   */\n  tag_99\n    /* \"#utility.yul\":6233:6237   */\n  dup2\n    /* \"#utility.yul\":6107:6238   */\n  tag_48\n  jump\t// in\ntag_99:\n    /* \"#utility.yul\":6099:6238   */\n  swap1\n  pop\n    /* \"#utility.yul\":5826:6245   */\n  swap2\n  swap1\n  pop\n  jump\t// out\n    /* \"#utility.yul\":6251:6422   */\ntag_49:\n    /* \"#utility.yul\":6391:6414   */\n  0x496e76616c696420506f6f6c4420616464726573730000000000000000000000\n    /* \"#utility.yul\":6387:6388   */\n  0x00\n    /* \"#utility.yul\":6379:6385   */\n  dup3\n    /* \"#utility.yul\":6375:6389   */\n  add\n    /* \"#utility.yul\":6368:6415   */\n  mstore\n    /* \"#utility.yul\":6251:6422   */\n  pop\n  jump\t// out\n    /* \"#utility.yul\":6428:6794   */\ntag_50:\n    /* \"#utility.yul\":6570:6573   */\n  0x00\n    /* \"#utility.yul\":6591:6658   */\n  tag_102\n    /* \"#utility.yul\":6655:6657   */\n  0x15\n    /* \"#utility.yul\":6650:6653   */\n  dup4\n    /* \"#utility.yul\":6591:6658   */\n  tag_40\n  jump\t// in\ntag_102:\n    /* \"#utility.yul\":6584:6658   */\n  swap2\n  pop\n    /* \"#utility.yul\":6667:6760   */\n  tag_103\n    /* \"#utility.yul\":6756:6759   */\n  dup3\n    /* \"#utility.yul\":6667:6760   */\n  tag_49\n  jump\t// in\ntag_103:\n    /* \"#utility.yul\":6785:6787   */\n  0x20\n    /* \"#utility.yul\":6780:6783   */\n  dup3\n    /* \"#utility.yul\":6776:6788   */\n  add\n    /* \"#utility.yul\":6769:6788   */\n  swap1\n  pop\n    /* \"#utility.yul\":6428:6794   */\n  swap2\n  swap1\n  pop\n  jump\t// out\n    /* \"#utility.yul\":6800:7219   */\ntag_29:\n    /* \"#utility.yul\":6966:6970   */\n  0x00\n    /* \"#utility.yul\":7004:7006   */\n  0x20\n    /* \"#utility.yul\":6993:7002   */\n  dup3\n    /* \"#utility.yul\":6989:7007   */\n  add\n    /* \"#utility.yul\":6981:7007   */\n  swap1\n  pop\n    /* \"#utility.yul\":7053:7062   */\n  dup2\n    /* \"#utility.yul\":7047:7051   */\n  dup2\n    /* \"#utility.yul\":7043:7063   */\n  sub\n    /* \"#utility.yul\":7039:7040   */\n  0x00\n    /* \"#utility.yul\":7028:7037   */\n  dup4\n    /* \"#utility.yul\":7024:7041   */\n  add\n    /* \"#utility.yul\":7017:7064   */\n  mstore\n    /* \"#utility.yul\":7081:7212   */\n  tag_105\n    /* \"#utility.yul\":7207:7211   */\n  dup2\n    /* \"#utility.yul\":7081:7212   */\n  tag_50\n  jump\t// in\ntag_105:\n    /* \"#utility.yul\":7073:7212   */\n  swap1\n  pop\n    /* \"#utility.yul\":6800:7219   */\n  swap2\n  swap1\n  pop\n  jump\t// out\n    /* \"src/core/FragmentManager.sol\":258:4698  contract FragmentManager is Ownable, ReentrancyGuard {... */\ntag_30:\n  mload(0x80)\n  mload(0xa0)\n  mload(0xc0)\n  mload(0xe0)\n  mload(0x0100)\n  codecopy(0x00, dataOffset(sub_0), dataSize(sub_0))\n  0x00\n  assignImmutable(\"0x282605426a480fcd6b503ad204de277ed23a45c7dbbdc48eb17242a52b94b5ab\")\n  0x00\n  assignImmutable(\"0xcb3f72a8bd725749e2ed6c270399de051a80f2f38d5ddcba7f2eaa3953346860\")\n  0x00\n  assignImmutable(\"0x91725db95b9b07669578bfe592f9fa049f281fe4219c153e3381ed0bc4e624c2\")\n  0x00\n  assignImmutable(\"0x6b5b33fd3ded2cf263edb232310f182d666aca7afaa45921be3c8956e7742d13\")\n  0x00\n  assignImmutable(\"0x2757844bcba802ce24af88f7c8fd3438a9a94d6eea4d1e58913fbc1440605b8d\")\n  return(0x00, dataSize(sub_0))\nstop\n\nsub_0: assembly {\n        /* \"src/core/FragmentManager.sol\":258:4698  contract FragmentManager is Ownable, ReentrancyGuard {... */\n      mstore(0x40, 0x80)\n      callvalue\n      dup1\n      iszero\n      tag_1\n      jumpi\n      revert(0x00, 0x00)\n    tag_1:\n      pop\n      jumpi(tag_2, lt(calldatasize, 0x04))\n      shr(0xe0, calldataload(0x00))\n      dup1\n      0xa0f4a128\n      gt\n      tag_16\n      jumpi\n      dup1\n      0xcbbf425f\n      gt\n      tag_17\n      jumpi\n      dup1\n      0xcbbf425f\n      eq\n      tag_12\n      jumpi\n      dup1\n      0xd4a2aa33\n      eq\n      tag_13\n      jumpi\n      dup1\n      0xf2fde38b\n      eq\n      tag_14\n      jumpi\n      dup1\n      0xfc0c546a\n      eq\n      tag_15\n      jumpi\n      jump(tag_2)\n    tag_17:\n      dup1\n      0xa0f4a128\n      eq\n      tag_9\n      jumpi\n      dup1\n      0xc39111d4\n      eq\n      tag_10\n      jumpi\n      dup1\n      0xc6c62390\n      eq\n      tag_11\n      jumpi\n      jump(tag_2)\n    tag_16:\n      dup1\n      0x1155a2a4\n      eq\n      tag_3\n      jumpi\n      dup1\n      0x4b8323e7\n      eq\n      tag_4\n      jumpi\n      dup1\n      0x673a2a1f\n      eq\n      tag_5\n      jumpi\n      dup1\n      0x6ff1c9bc\n      eq\n      tag_6\n      jumpi\n      dup1\n      0x715018a6\n      eq\n      tag_7\n      jumpi\n      dup1\n      0x8da5cb5b\n      eq\n      tag_8\n      jumpi\n    tag_2:\n      revert(0x00, 0x00)\n        /* \"src/core/FragmentManager.sol\":507:537  address public immutable poolD */\n    tag_3:\n      tag_18\n      tag_19\n      jump\t// in\n    tag_18:\n      mload(0x40)\n      tag_20\n      swap2\n      swap1\n      tag_21\n      jump\t// in\n    tag_20:\n      mload(0x40)\n      dup1\n      swap2\n      sub\n      swap1\n      return\n        /* \"src/core/FragmentManager.sol\":3010:4219  function withdrawFragments(... */\n    tag_4:\n      tag_22\n      0x04\n      dup1\n      calldatasize\n      sub\n      dup2\n      add\n      swap1\n      tag_23\n      swap2\n      swap1\n      tag_24\n      jump\t// in\n    tag_23:\n      tag_25\n      jump\t// in\n    tag_22:\n      stop\n        /* \"src/core/FragmentManager.sol\":4270:4384  function getPools() external view returns (address[4] memory) {... */\n    tag_5:\n      tag_26\n      tag_27\n      jump\t// in\n    tag_26:\n      mload(0x40)\n      tag_28\n      swap2\n      swap1\n      tag_29\n      jump\t// in\n    tag_28:\n      mload(0x40)\n      dup1\n      swap2\n      sub\n      swap1\n      return\n        /* \"src/core/FragmentManager.sol\":4443:4696  function emergencyWithdraw(address to) external onlyOwner {... */\n    tag_6:\n      tag_30\n      0x04\n      dup1\n      calldatasize\n      sub\n      dup2\n      add\n      swap1\n      tag_31\n      swap2\n      swap1\n      tag_32\n      jump\t// in\n    tag_31:\n      tag_33\n      jump\t// in\n    tag_30:\n      stop\n        /* \"@openzeppelin/contracts/access/Ownable.sol\":2293:2394  function renounceOwnership() public virtual onlyOwner {... */\n    tag_7:\n      tag_34\n      tag_35\n      jump\t// in\n    tag_34:\n      stop\n        /* \"@openzeppelin/contracts/access/Ownable.sol\":1638:1723  function owner() public view virtual returns (address) {... */\n    tag_8:\n      tag_36\n      tag_37\n      jump\t// in\n    tag_36:\n      mload(0x40)\n      tag_38\n      swap2\n      swap1\n      tag_21\n      jump\t// in\n    tag_38:\n      mload(0x40)\n      dup1\n      swap2\n      sub\n      swap1\n      return\n        /* \"src/core/FragmentManager.sol\":1618:2928  function depositFragments(... */\n    tag_9:\n      tag_39\n      0x04\n      dup1\n      calldatasize\n      sub\n      dup2\n      add\n      swap1\n      tag_40\n      swap2\n      swap1\n      tag_41\n      jump\t// in\n    tag_40:\n      tag_42\n      jump\t// in\n    tag_39:\n      stop\n        /* \"src/core/FragmentManager.sol\":471:501  address public immutable poolC */\n    tag_10:\n      tag_43\n      tag_44\n      jump\t// in\n    tag_43:\n      mload(0x40)\n      tag_45\n      swap2\n      swap1\n      tag_21\n      jump\t// in\n    tag_45:\n      mload(0x40)\n      dup1\n      swap2\n      sub\n      swap1\n      return\n        /* \"src/core/FragmentManager.sol\":599:648  mapping(uint256 => uint256) public totalDeposited */\n    tag_11:\n      tag_46\n      0x04\n      dup1\n      calldatasize\n      sub\n      dup2\n      add\n      swap1\n      tag_47\n      swap2\n      swap1\n      tag_48\n      jump\t// in\n    tag_47:\n      tag_49\n      jump\t// in\n    tag_46:\n      mload(0x40)\n      tag_50\n      swap2\n      swap1\n      tag_51\n      jump\t// in\n    tag_50:\n      mload(0x40)\n      dup1\n      swap2\n      sub\n      swap1\n      return\n        /* \"src/core/FragmentManager.sol\":399:429  address public immutable poolA */\n    tag_12:\n      tag_52\n      tag_53\n      jump\t// in\n    tag_52:\n      mload(0x40)\n      tag_54\n      swap2\n      swap1\n      tag_21\n      jump\t// in\n    tag_54:\n      mload(0x40)\n      dup1\n      swap2\n      sub\n      swap1\n      return\n        /* \"src/core/FragmentManager.sol\":435:465  address public immutable poolB */\n    tag_13:\n      tag_55\n      tag_56\n      jump\t// in\n    tag_55:\n      mload(0x40)\n      tag_57\n      swap2\n      swap1\n      tag_21\n      jump\t// in\n    tag_57:\n      mload(0x40)\n      dup1\n      swap2\n      sub\n      swap1\n      return\n        /* \"@openzeppelin/contracts/access/Ownable.sol\":2543:2758  function transferOwnership(address newOwner) public virtual onlyOwner {... */\n    tag_14:\n      tag_58\n      0x04\n      dup1\n      calldatasize\n      sub\n      dup2\n      add\n      swap1\n      tag_59\n      swap2\n      swap1\n      tag_32\n      jump\t// in\n    tag_59:\n      tag_60\n      jump\t// in\n    tag_58:\n      stop\n        /* \"src/core/FragmentManager.sol\":317:346  IERC20 public immutable token */\n    tag_15:\n      tag_61\n      tag_62\n      jump\t// in\n    tag_61:\n      mload(0x40)\n      tag_63\n      swap2\n      swap1\n      tag_64\n      jump\t// in\n    tag_63:\n      mload(0x40)\n      dup1\n      swap2\n      sub\n      swap1\n      return\n        /* \"src/core/FragmentManager.sol\":507:537  address public immutable poolD */\n    tag_19:\n      immutable(\"0x282605426a480fcd6b503ad204de277ed23a45c7dbbdc48eb17242a52b94b5ab\")\n      dup2\n      jump\t// out\n        /* \"src/core/FragmentManager.sol\":3010:4219  function withdrawFragments(... */\n    tag_25:\n        /* \"@openzeppelin/contracts/utils/ReentrancyGuard.sol\":2500:2521  _nonReentrantBefore() */\n      tag_66\n        /* \"@openzeppelin/contracts/utils/ReentrancyGuard.sol\":2500:2519  _nonReentrantBefore */\n      tag_67\n        /* \"@openzeppelin/contracts/utils/ReentrancyGuard.sol\":2500:2521  _nonReentrantBefore() */\n      jump\t// in\n    tag_66:\n        /* \"src/core/FragmentManager.sol\":3204:3205  1 */\n      0x01\n        /* \"src/core/FragmentManager.sol\":3195:3200  level */\n      dup2\n        /* \"src/core/FragmentManager.sol\":3195:3205  level >= 1 */\n      lt\n      iszero\n        /* \"src/core/FragmentManager.sol\":3195:3219  level >= 1 && level <= 4 */\n      dup1\n      iszero\n      tag_69\n      jumpi\n      pop\n        /* \"src/core/FragmentManager.sol\":3218:3219  4 */\n      0x04\n        /* \"src/core/FragmentManager.sol\":3209:3214  level */\n      dup2\n        /* \"src/core/FragmentManager.sol\":3209:3219  level <= 4 */\n      gt\n      iszero\n        /* \"src/core/FragmentManager.sol\":3195:3219  level >= 1 && level <= 4 */\n    tag_69:\n        /* \"src/core/FragmentManager.sol\":3187:3241  require(level >= 1 && level <= 4, \"Level must be 1-4\") */\n      tag_70\n      jumpi\n      mload(0x40)\n      0x08c379a000000000000000000000000000000000000000000000000000000000\n      dup2\n      mstore\n      0x04\n      add\n      tag_71\n      swap1\n      tag_72\n      jump\t// in\n    tag_71:\n      mload(0x40)\n      dup1\n      swap2\n      sub\n      swap1\n      revert\n    tag_70:\n        /* \"src/core/FragmentManager.sol\":3277:3282  level */\n      dup1\n        /* \"src/core/FragmentManager.sol\":3259:3266  amounts */\n      dup6\n      dup6\n        /* \"src/core/FragmentManager.sol\":3259:3273  amounts.length */\n      swap1\n      pop\n        /* \"src/core/FragmentManager.sol\":3259:3282  amounts.length == level */\n      eq\n        /* \"src/core/FragmentManager.sol\":3251:3318  require(amounts.length == level, \"Fragment count must match level\") */\n      tag_73\n      jumpi\n      mload(0x40)\n      0x08c379a000000000000000000000000000000000000000000000000000000000\n      dup2\n      mstore\n      0x04\n      add\n      tag_74\n      swap1\n      tag_75\n      jump\t// in\n    tag_74:\n      mload(0x40)\n      dup1\n      swap2\n      sub\n      swap1\n      revert\n    tag_73:\n        /* \"src/core/FragmentManager.sol\":3359:3360  0 */\n      0x00\n        /* \"src/core/FragmentManager.sol\":3336:3361  stealthAddr != address(0) */\n      0xffffffffffffffffffffffffffffffffffffffff\n      and\n        /* \"src/core/FragmentManager.sol\":3336:3347  stealthAddr */\n      dup3\n        /* \"src/core/FragmentManager.sol\":3336:3361  stealthAddr != address(0) */\n      0xffffffffffffffffffffffffffffffffffffffff\n      and\n      sub\n        /* \"src/core/FragmentManager.sol\":3328:3389  require(stealthAddr != address(0), \"Invalid stealth address\") */\n      tag_76\n      jumpi\n      mload(0x40)\n      0x08c379a000000000000000000000000000000000000000000000000000000000\n      dup2\n      mstore\n      0x04\n      add\n      tag_77\n      swap1\n      tag_78\n      jump\t// in\n    tag_77:\n      mload(0x40)\n      dup1\n      swap2\n      sub\n      swap1\n      revert\n    tag_76:\n        /* \"src/core/FragmentManager.sol\":3408:3421  uint256 total */\n      0x00\n        /* \"src/core/FragmentManager.sol\":3436:3445  uint256 i */\n      0x00\n        /* \"src/core/FragmentManager.sol\":3448:3449  0 */\n      0x00\n        /* \"src/core/FragmentManager.sol\":3436:3449  uint256 i = 0 */\n      swap1\n      pop\n        /* \"src/core/FragmentManager.sol\":3431:3593  for (uint256 i = 0; i < amounts.length; i++) {... */\n    tag_79:\n        /* \"src/core/FragmentManager.sol\":3455:3462  amounts */\n      dup7\n      dup7\n        /* \"src/core/FragmentManager.sol\":3455:3469  amounts.length */\n      swap1\n      pop\n        /* \"src/core/FragmentManager.sol\":3451:3452  i */\n      dup2\n        /* \"src/core/FragmentManager.sol\":3451:3469  i < amounts.length */\n      lt\n        /* \"src/core/FragmentManager.sol\":3431:3593  for (uint256 i = 0; i < amounts.length; i++) {... */\n      iszero\n      tag_80\n      jumpi\n        /* \"src/core/FragmentManager.sol\":3511:3512  0 */\n      0x00\n        /* \"src/core/FragmentManager.sol\":3498:3505  amounts */\n      dup8\n      dup8\n        /* \"src/core/FragmentManager.sol\":3506:3507  i */\n      dup4\n        /* \"src/core/FragmentManager.sol\":3498:3508  amounts[i] */\n      dup2\n      dup2\n      lt\n      tag_82\n      jumpi\n      tag_83\n      tag_84\n      jump\t// in\n    tag_83:\n    tag_82:\n      swap1\n      pop\n      0x20\n      mul\n      add\n      calldataload\n        /* \"src/core/FragmentManager.sol\":3498:3512  amounts[i] > 0 */\n      gt\n        /* \"src/core/FragmentManager.sol\":3490:3549  require(amounts[i] > 0, \"Fragment amount must be positive\") */\n      tag_85\n      jumpi\n      mload(0x40)\n      0x08c379a000000000000000000000000000000000000000000000000000000000\n      dup2\n      mstore\n      0x04\n      add\n      tag_86\n      swap1\n      tag_87\n      jump\t// in\n    tag_86:\n      mload(0x40)\n      dup1\n      swap2\n      sub\n      swap1\n      revert\n    tag_85:\n        /* \"src/core/FragmentManager.sol\":3572:3579  amounts */\n      dup7\n      dup7\n        /* \"src/core/FragmentManager.sol\":3580:3581  i */\n      dup3\n        /* \"src/core/FragmentManager.sol\":3572:3582  amounts[i] */\n      dup2\n      dup2\n      lt\n      tag_88\n      jumpi\n      tag_89\n      tag_84\n      jump\t// in\n    tag_89:\n    tag_88:\n      swap1\n      pop\n      0x20\n      mul\n      add\n      calldataload\n        /* \"src/core/FragmentManager.sol\":3563:3582  total += amounts[i] */\n      dup3\n      tag_90\n      swap2\n      swap1\n      tag_91\n      jump\t// in\n    tag_90:\n      swap2\n      pop\n        /* \"src/core/FragmentManager.sol\":3471:3474  i++ */\n      dup1\n      dup1\n      0x01\n      add\n      swap2\n      pop\n      pop\n        /* \"src/core/FragmentManager.sol\":3431:3593  for (uint256 i = 0; i < amounts.length; i++) {... */\n      jump(tag_79)\n    tag_80:\n      pop\n        /* \"src/core/FragmentManager.sol\":3619:3633  totalDeposited */\n      0x02\n        /* \"src/core/FragmentManager.sol\":3619:3641  totalDeposited[userId] */\n      0x00\n        /* \"src/core/FragmentManager.sol\":3634:3640  userId */\n      dup6\n        /* \"src/core/FragmentManager.sol\":3619:3641  totalDeposited[userId] */\n      dup2\n      mstore\n      0x20\n      add\n      swap1\n      dup2\n      mstore\n      0x20\n      add\n      0x00\n      keccak256\n      sload\n        /* \"src/core/FragmentManager.sol\":3610:3615  total */\n      dup2\n        /* \"src/core/FragmentManager.sol\":3610:3641  total == totalDeposited[userId] */\n      eq\n        /* \"src/core/FragmentManager.sol\":3602:3679  require(total == totalDeposited[userId], \"Total must match deposited amount\") */\n      tag_92\n      jumpi\n      mload(0x40)\n      0x08c379a000000000000000000000000000000000000000000000000000000000\n      dup2\n      mstore\n      0x04\n      add\n      tag_93\n      swap1\n      tag_94\n      jump\t// in\n    tag_93:\n      mload(0x40)\n      dup1\n      swap2\n      sub\n      swap1\n      revert\n    tag_92:\n        /* \"src/core/FragmentManager.sol\":3749:3750  0 */\n      0x00\n        /* \"src/core/FragmentManager.sol\":3724:3738  totalDeposited */\n      0x02\n        /* \"src/core/FragmentManager.sol\":3724:3746  totalDeposited[userId] */\n      0x00\n        /* \"src/core/FragmentManager.sol\":3739:3745  userId */\n      dup7\n        /* \"src/core/FragmentManager.sol\":3724:3746  totalDeposited[userId] */\n      dup2\n      mstore\n      0x20\n      add\n      swap1\n      dup2\n      mstore\n      0x20\n      add\n      0x00\n      keccak256\n        /* \"src/core/FragmentManager.sol\":3724:3750  totalDeposited[userId] = 0 */\n      dup2\n      swap1\n      sstore\n      pop\n        /* \"src/core/FragmentManager.sol\":3827:3836  uint256 i */\n      0x00\n        /* \"src/core/FragmentManager.sol\":3839:3840  0 */\n      0x00\n        /* \"src/core/FragmentManager.sol\":3827:3840  uint256 i = 0 */\n      swap1\n      pop\n        /* \"src/core/FragmentManager.sol\":3822:4134  for (uint256 i = 0; i < amounts.length; i++) {... */\n    tag_95:\n        /* \"src/core/FragmentManager.sol\":3846:3853  amounts */\n      dup7\n      dup7\n        /* \"src/core/FragmentManager.sol\":3846:3860  amounts.length */\n      swap1\n      pop\n        /* \"src/core/FragmentManager.sol\":3842:3843  i */\n      dup2\n        /* \"src/core/FragmentManager.sol\":3842:3860  i < amounts.length */\n      lt\n        /* \"src/core/FragmentManager.sol\":3822:4134  for (uint256 i = 0; i < amounts.length; i++) {... */\n      iszero\n      tag_96\n      jumpi\n        /* \"src/core/FragmentManager.sol\":3881:3893  address pool */\n      0x00\n        /* \"src/core/FragmentManager.sol\":3916:3917  0 */\n      0x00\n        /* \"src/core/FragmentManager.sol\":3911:3912  i */\n      dup3\n        /* \"src/core/FragmentManager.sol\":3911:3917  i == 0 */\n      sub\n        /* \"src/core/FragmentManager.sol\":3907:4048  if (i == 0) pool = poolA;... */\n      tag_98\n      jumpi\n        /* \"src/core/FragmentManager.sol\":3926:3931  poolA */\n      immutable(\"0x6b5b33fd3ded2cf263edb232310f182d666aca7afaa45921be3c8956e7742d13\")\n        /* \"src/core/FragmentManager.sol\":3919:3931  pool = poolA */\n      swap1\n      pop\n        /* \"src/core/FragmentManager.sol\":3907:4048  if (i == 0) pool = poolA;... */\n      jump(tag_99)\n    tag_98:\n        /* \"src/core/FragmentManager.sol\":3959:3960  1 */\n      0x01\n        /* \"src/core/FragmentManager.sol\":3954:3955  i */\n      dup3\n        /* \"src/core/FragmentManager.sol\":3954:3960  i == 1 */\n      sub\n        /* \"src/core/FragmentManager.sol\":3950:4048  if (i == 1) pool = poolB;... */\n      tag_100\n      jumpi\n        /* \"src/core/FragmentManager.sol\":3969:3974  poolB */\n      immutable(\"0x91725db95b9b07669578bfe592f9fa049f281fe4219c153e3381ed0bc4e624c2\")\n        /* \"src/core/FragmentManager.sol\":3962:3974  pool = poolB */\n      swap1\n      pop\n        /* \"src/core/FragmentManager.sol\":3950:4048  if (i == 1) pool = poolB;... */\n      jump(tag_101)\n    tag_100:\n        /* \"src/core/FragmentManager.sol\":4002:4003  2 */\n      0x02\n        /* \"src/core/FragmentManager.sol\":3997:3998  i */\n      dup3\n        /* \"src/core/FragmentManager.sol\":3997:4003  i == 2 */\n      sub\n        /* \"src/core/FragmentManager.sol\":3993:4048  if (i == 2) pool = poolC;... */\n      tag_102\n      jumpi\n        /* \"src/core/FragmentManager.sol\":4012:4017  poolC */\n      immutable(\"0xcb3f72a8bd725749e2ed6c270399de051a80f2f38d5ddcba7f2eaa3953346860\")\n        /* \"src/core/FragmentManager.sol\":4005:4017  pool = poolC */\n      swap1\n      pop\n        /* \"src/core/FragmentManager.sol\":3993:4048  if (i == 2) pool = poolC;... */\n      jump(tag_103)\n    tag_102:\n        /* \"src/core/FragmentManager.sol\":4043:4048  poolD */\n      immutable(\"0x282605426a480fcd6b503ad204de277ed23a45c7dbbdc48eb17242a52b94b5ab\")\n        /* \"src/core/FragmentManager.sol\":4036:4048  pool = poolD */\n      swap1\n      pop\n        /* \"src/core/FragmentManager.sol\":3993:4048  if (i == 2) pool = poolC;... */\n    tag_103:\n        /* \"src/core/FragmentManager.sol\":3950:4048  if (i == 1) pool = poolB;... */\n    tag_101:\n        /* \"src/core/FragmentManager.sol\":3907:4048  if (i == 0) pool = poolA;... */\n    tag_99:\n        /* \"src/core/FragmentManager.sol\":4088:4092  pool */\n      dup1\n        /* \"src/core/FragmentManager.sol\":4075:4102  PoolContract(pool).withdraw */\n      0xffffffffffffffffffffffffffffffffffffffff\n      and\n      0xf714ce\n        /* \"src/core/FragmentManager.sol\":4103:4109  userId */\n      dup8\n        /* \"src/core/FragmentManager.sol\":4111:4122  stealthAddr */\n      dup8\n        /* \"src/core/FragmentManager.sol\":4075:4123  PoolContract(pool).withdraw(userId, stealthAddr) */\n      mload(0x40)\n      dup4\n      0xffffffff\n      and\n      0xe0\n      shl\n      dup2\n      mstore\n      0x04\n      add\n      tag_104\n      swap3\n      swap2\n      swap1\n      tag_105\n      jump\t// in\n    tag_104:\n      0x00\n      mload(0x40)\n      dup1\n      dup4\n      sub\n      dup2\n      0x00\n      dup8\n      dup1\n      extcodesize\n      iszero\n      dup1\n      iszero\n      tag_106\n      jumpi\n      revert(0x00, 0x00)\n    tag_106:\n      pop\n      gas\n      call\n      iszero\n      dup1\n      iszero\n      tag_108\n      jumpi\n      returndatacopy(0x00, 0x00, returndatasize)\n      revert(0x00, returndatasize)\n    tag_108:\n      pop\n      pop\n      pop\n      pop\n        /* \"src/core/FragmentManager.sol\":3867:4134  {... */\n      pop\n        /* \"src/core/FragmentManager.sol\":3862:3865  i++ */\n      dup1\n      dup1\n      0x01\n      add\n      swap2\n      pop\n      pop\n        /* \"src/core/FragmentManager.sol\":3822:4134  for (uint256 i = 0; i < amounts.length; i++) {... */\n      jump(tag_95)\n    tag_96:\n      pop\n        /* \"src/core/FragmentManager.sol\":4176:4182  userId */\n      dup4\n        /* \"src/core/FragmentManager.sol\":4157:4212  FragmentsWithdrawn(userId, amounts, stealthAddr, level) */\n      0x62e4797a97126a0126333b9878ae0d13e7b21aad811ca49e900e6106ddd66d8d\n        /* \"src/core/FragmentManager.sol\":4184:4191  amounts */\n      dup8\n      dup8\n        /* \"src/core/FragmentManager.sol\":4193:4204  stealthAddr */\n      dup7\n        /* \"src/core/FragmentManager.sol\":4206:4211  level */\n      dup7\n        /* \"src/core/FragmentManager.sol\":4157:4212  FragmentsWithdrawn(userId, amounts, stealthAddr, level) */\n      mload(0x40)\n      tag_109\n      swap5\n      swap4\n      swap3\n      swap2\n      swap1\n      tag_110\n      jump\t// in\n    tag_109:\n      mload(0x40)\n      dup1\n      swap2\n      sub\n      swap1\n      log2\n        /* \"src/core/FragmentManager.sol\":3177:4219  {... */\n      pop\n        /* \"@openzeppelin/contracts/utils/ReentrancyGuard.sol\":2542:2562  _nonReentrantAfter() */\n      tag_111\n        /* \"@openzeppelin/contracts/utils/ReentrancyGuard.sol\":2542:2560  _nonReentrantAfter */\n      tag_112\n        /* \"@openzeppelin/contracts/utils/ReentrancyGuard.sol\":2542:2562  _nonReentrantAfter() */\n      jump\t// in\n    tag_111:\n        /* \"src/core/FragmentManager.sol\":3010:4219  function withdrawFragments(... */\n      pop\n      pop\n      pop\n      pop\n      pop\n      jump\t// out\n        /* \"src/core/FragmentManager.sol\":4270:4384  function getPools() external view returns (address[4] memory) {... */\n    tag_27:\n        /* \"src/core/FragmentManager.sol\":4313:4330  address[4] memory */\n      tag_113\n      tag_114\n      jump\t// in\n    tag_113:\n        /* \"src/core/FragmentManager.sol\":4342:4377  return [poolA, poolB, poolC, poolD] */\n      mload(0x40)\n      dup1\n      0x80\n      add\n      0x40\n      mstore\n      dup1\n        /* \"src/core/FragmentManager.sol\":4350:4355  poolA */\n      immutable(\"0x6b5b33fd3ded2cf263edb232310f182d666aca7afaa45921be3c8956e7742d13\")\n        /* \"src/core/FragmentManager.sol\":4342:4377  return [poolA, poolB, poolC, poolD] */\n      0xffffffffffffffffffffffffffffffffffffffff\n      and\n      0xffffffffffffffffffffffffffffffffffffffff\n      and\n      dup2\n      mstore\n      0x20\n      add\n        /* \"src/core/FragmentManager.sol\":4357:4362  poolB */\n      immutable(\"0x91725db95b9b07669578bfe592f9fa049f281fe4219c153e3381ed0bc4e624c2\")\n        /* \"src/core/FragmentManager.sol\":4342:4377  return [poolA, poolB, poolC, poolD] */\n      0xffffffffffffffffffffffffffffffffffffffff\n      and\n      0xffffffffffffffffffffffffffffffffffffffff\n      and\n      dup2\n      mstore\n      0x20\n      add\n        /* \"src/core/FragmentManager.sol\":4364:4369  poolC */\n      immutable(\"0xcb3f72a8bd725749e2ed6c270399de051a80f2f38d5ddcba7f2eaa3953346860\")\n        /* \"src/core/FragmentManager.sol\":4342:4377  return [poolA, poolB, poolC, poolD] */\n      0xffffffffffffffffffffffffffffffffffffffff\n      and\n      0xffffffffffffffffffffffffffffffffffffffff\n      and\n      dup2\n      mstore\n      0x20\n      add\n        /* \"src/core/FragmentManager.sol\":4371:4376  poolD */\n      immutable(\"0x282605426a480fcd6b503ad204de277ed23a45c7dbbdc48eb17242a52b94b5ab\")\n        /* \"src/core/FragmentManager.sol\":4342:4377  return [poolA, poolB, poolC, poolD] */\n      0xffffffffffffffffffffffffffffffffffffffff\n      and\n      0xffffffffffffffffffffffffffffffffffffffff\n      and\n      dup2\n      mstore\n      pop\n      swap1\n      pop\n        /* \"src/core/FragmentManager.sol\":4270:4384  function getPools() external view returns (address[4] memory) {... */\n      swap1\n      jump\t// out\n        /* \"src/core/FragmentManager.sol\":4443:4696  function emergencyWithdraw(address to) external onlyOwner {... */\n    tag_33:\n        /* \"@openzeppelin/contracts/access/Ownable.sol\":1531:1544  _checkOwner() */\n      tag_117\n        /* \"@openzeppelin/contracts/access/Ownable.sol\":1531:1542  _checkOwner */\n      tag_118\n        /* \"@openzeppelin/contracts/access/Ownable.sol\":1531:1544  _checkOwner() */\n      jump\t// in\n    tag_117:\n        /* \"src/core/FragmentManager.sol\":4511:4526  uint256 balance */\n      0x00\n        /* \"src/core/FragmentManager.sol\":4529:4534  token */\n      immutable(\"0x2757844bcba802ce24af88f7c8fd3438a9a94d6eea4d1e58913fbc1440605b8d\")\n        /* \"src/core/FragmentManager.sol\":4529:4544  token.balanceOf */\n      0xffffffffffffffffffffffffffffffffffffffff\n      and\n      0x70a08231\n        /* \"src/core/FragmentManager.sol\":4553:4557  this */\n      address\n        /* \"src/core/FragmentManager.sol\":4529:4559  token.balanceOf(address(this)) */\n      mload(0x40)\n      dup3\n      0xffffffff\n      and\n      0xe0\n      shl\n      dup2\n      mstore\n      0x04\n      add\n      tag_120\n      swap2\n      swap1\n      tag_21\n      jump\t// in\n    tag_120:\n      0x20\n      mload(0x40)\n      dup1\n      dup4\n      sub\n      dup2\n      dup7\n      gas\n      staticcall\n      iszero\n      dup1\n      iszero\n      tag_122\n      jumpi\n      returndatacopy(0x00, 0x00, returndatasize)\n      revert(0x00, returndatasize)\n    tag_122:\n      pop\n      pop\n      pop\n      pop\n      mload(0x40)\n      returndatasize\n      not(0x1f)\n      0x1f\n      dup3\n      add\n      and\n      dup3\n      add\n      dup1\n      0x40\n      mstore\n      pop\n      dup2\n      add\n      swap1\n      tag_123\n      swap2\n      swap1\n      tag_124\n      jump\t// in\n    tag_123:\n        /* \"src/core/FragmentManager.sol\":4511:4559  uint256 balance = token.balanceOf(address(this)) */\n      swap1\n      pop\n        /* \"src/core/FragmentManager.sol\":4587:4588  0 */\n      0x00\n        /* \"src/core/FragmentManager.sol\":4577:4584  balance */\n      dup2\n        /* \"src/core/FragmentManager.sol\":4577:4588  balance > 0 */\n      gt\n        /* \"src/core/FragmentManager.sol\":4569:4614  require(balance > 0, \"No tokens to withdraw\") */\n      tag_125\n      jumpi\n      mload(0x40)\n      0x08c379a000000000000000000000000000000000000000000000000000000000\n      dup2\n      mstore\n      0x04\n      add\n      tag_126\n      swap1\n      tag_127\n      jump\t// in\n    tag_126:\n      mload(0x40)\n      dup1\n      swap2\n      sub\n      swap1\n      revert\n    tag_125:\n        /* \"src/core/FragmentManager.sol\":4632:4637  token */\n      immutable(\"0x2757844bcba802ce24af88f7c8fd3438a9a94d6eea4d1e58913fbc1440605b8d\")\n        /* \"src/core/FragmentManager.sol\":4632:4646  token.transfer */\n      0xffffffffffffffffffffffffffffffffffffffff\n      and\n      0xa9059cbb\n        /* \"src/core/FragmentManager.sol\":4647:4649  to */\n      dup4\n        /* \"src/core/FragmentManager.sol\":4651:4658  balance */\n      dup4\n        /* \"src/core/FragmentManager.sol\":4632:4659  token.transfer(to, balance) */\n      mload(0x40)\n      dup4\n      0xffffffff\n      and\n      0xe0\n      shl\n      dup2\n      mstore\n      0x04\n      add\n      tag_128\n      swap3\n      swap2\n      swap1\n      tag_129\n      jump\t// in\n    tag_128:\n      0x20\n      mload(0x40)\n      dup1\n      dup4\n      sub\n      dup2\n      0x00\n      dup8\n      gas\n      call\n      iszero\n      dup1\n      iszero\n      tag_131\n      jumpi\n      returndatacopy(0x00, 0x00, returndatasize)\n      revert(0x00, returndatasize)\n    tag_131:\n      pop\n      pop\n      pop\n      pop\n      mload(0x40)\n      returndatasize\n      not(0x1f)\n      0x1f\n      dup3\n      add\n      and\n      dup3\n      add\n      dup1\n      0x40\n      mstore\n      pop\n      dup2\n      add\n      swap1\n      tag_132\n      swap2\n      swap1\n      tag_133\n      jump\t// in\n    tag_132:\n        /* \"src/core/FragmentManager.sol\":4624:4689  require(token.transfer(to, balance), \"Emergency transfer failed\") */\n      tag_134\n      jumpi\n      mload(0x40)\n      0x08c379a000000000000000000000000000000000000000000000000000000000\n      dup2\n      mstore\n      0x04\n      add\n      tag_135\n      swap1\n      tag_136\n      jump\t// in\n    tag_135:\n      mload(0x40)\n      dup1\n      swap2\n      sub\n      swap1\n      revert\n    tag_134:\n        /* \"src/core/FragmentManager.sol\":4501:4696  {... */\n      pop\n        /* \"src/core/FragmentManager.sol\":4443:4696  function emergencyWithdraw(address to) external onlyOwner {... */\n      pop\n      jump\t// out\n        /* \"@openzeppelin/contracts/access/Ownable.sol\":2293:2394  function renounceOwnership() public virtual onlyOwner {... */\n    tag_35:\n        /* \"@openzeppelin/contracts/access/Ownable.sol\":1531:1544  _checkOwner() */\n      tag_138\n        /* \"@openzeppelin/contracts/access/Ownable.sol\":1531:1542  _checkOwner */\n      tag_118\n        /* \"@openzeppelin/contracts/access/Ownable.sol\":1531:1544  _checkOwner() */\n      jump\t// in\n    tag_138:\n        /* \"@openzeppelin/contracts/access/Ownable.sol\":2357:2387  _transferOwnership(address(0)) */\n      tag_140\n        /* \"@openzeppelin/contracts/access/Ownable.sol\":2384:2385  0 */\n      0x00\n        /* \"@openzeppelin/contracts/access/Ownable.sol\":2357:2375  _transferOwnership */\n      tag_141\n        /* \"@openzeppelin/contracts/access/Ownable.sol\":2357:2387  _transferOwnership(address(0)) */\n      jump\t// in\n    tag_140:\n        /* \"@openzeppelin/contracts/access/Ownable.sol\":2293:2394  function renounceOwnership() public virtual onlyOwner {... */\n      jump\t// out\n        /* \"@openzeppelin/contracts/access/Ownable.sol\":1638:1723  function owner() public view virtual returns (address) {... */\n    tag_37:\n        /* \"@openzeppelin/contracts/access/Ownable.sol\":1684:1691  address */\n      0x00\n        /* \"@openzeppelin/contracts/access/Ownable.sol\":1710:1716  _owner */\n      0x00\n      0x00\n      swap1\n      sload\n      swap1\n      0x0100\n      exp\n      swap1\n      div\n      0xffffffffffffffffffffffffffffffffffffffff\n      and\n        /* \"@openzeppelin/contracts/access/Ownable.sol\":1703:1716  return _owner */\n      swap1\n      pop\n        /* \"@openzeppelin/contracts/access/Ownable.sol\":1638:1723  function owner() public view virtual returns (address) {... */\n      swap1\n      jump\t// out\n        /* \"src/core/FragmentManager.sol\":1618:2928  function depositFragments(... */\n    tag_42:\n        /* \"@openzeppelin/contracts/utils/ReentrancyGuard.sol\":2500:2521  _nonReentrantBefore() */\n      tag_144\n        /* \"@openzeppelin/contracts/utils/ReentrancyGuard.sol\":2500:2519  _nonReentrantBefore */\n      tag_67\n        /* \"@openzeppelin/contracts/utils/ReentrancyGuard.sol\":2500:2521  _nonReentrantBefore() */\n      jump\t// in\n    tag_144:\n        /* \"src/core/FragmentManager.sol\":1782:1783  1 */\n      0x01\n        /* \"src/core/FragmentManager.sol\":1773:1778  level */\n      dup2\n        /* \"src/core/FragmentManager.sol\":1773:1783  level >= 1 */\n      lt\n      iszero\n        /* \"src/core/FragmentManager.sol\":1773:1797  level >= 1 && level <= 4 */\n      dup1\n      iszero\n      tag_146\n      jumpi\n      pop\n        /* \"src/core/FragmentManager.sol\":1796:1797  4 */\n      0x04\n        /* \"src/core/FragmentManager.sol\":1787:1792  level */\n      dup2\n        /* \"src/core/FragmentManager.sol\":1787:1797  level <= 4 */\n      gt\n      iszero\n        /* \"src/core/FragmentManager.sol\":1773:1797  level >= 1 && level <= 4 */\n    tag_146:\n        /* \"src/core/FragmentManager.sol\":1765:1819  require(level >= 1 && level <= 4, \"Level must be 1-4\") */\n      tag_147\n      jumpi\n      mload(0x40)\n      0x08c379a000000000000000000000000000000000000000000000000000000000\n      dup2\n      mstore\n      0x04\n      add\n      tag_148\n      swap1\n      tag_72\n      jump\t// in\n    tag_148:\n      mload(0x40)\n      dup1\n      swap2\n      sub\n      swap1\n      revert\n    tag_147:\n        /* \"src/core/FragmentManager.sol\":1855:1860  level */\n      dup1\n        /* \"src/core/FragmentManager.sol\":1837:1844  amounts */\n      dup5\n      dup5\n        /* \"src/core/FragmentManager.sol\":1837:1851  amounts.length */\n      swap1\n      pop\n        /* \"src/core/FragmentManager.sol\":1837:1860  amounts.length == level */\n      eq\n        /* \"src/core/FragmentManager.sol\":1829:1896  require(amounts.length == level, \"Fragment count must match level\") */\n      tag_149\n      jumpi\n      mload(0x40)\n      0x08c379a000000000000000000000000000000000000000000000000000000000\n      dup2\n      mstore\n      0x04\n      add\n      tag_150\n      swap1\n      tag_75\n      jump\t// in\n    tag_150:\n      mload(0x40)\n      dup1\n      swap2\n      sub\n      swap1\n      revert\n    tag_149:\n        /* \"src/core/FragmentManager.sol\":1915:1928  uint256 total */\n      0x00\n        /* \"src/core/FragmentManager.sol\":1943:1952  uint256 i */\n      0x00\n        /* \"src/core/FragmentManager.sol\":1955:1956  0 */\n      0x00\n        /* \"src/core/FragmentManager.sol\":1943:1956  uint256 i = 0 */\n      swap1\n      pop\n        /* \"src/core/FragmentManager.sol\":1938:2100  for (uint256 i = 0; i < amounts.length; i++) {... */\n    tag_151:\n        /* \"src/core/FragmentManager.sol\":1962:1969  amounts */\n      dup6\n      dup6\n        /* \"src/core/FragmentManager.sol\":1962:1976  amounts.length */\n      swap1\n      pop\n        /* \"src/core/FragmentManager.sol\":1958:1959  i */\n      dup2\n        /* \"src/core/FragmentManager.sol\":1958:1976  i < amounts.length */\n      lt\n        /* \"src/core/FragmentManager.sol\":1938:2100  for (uint256 i = 0; i < amounts.length; i++) {... */\n      iszero\n      tag_152\n      jumpi\n        /* \"src/core/FragmentManager.sol\":2018:2019  0 */\n      0x00\n        /* \"src/core/FragmentManager.sol\":2005:2012  amounts */\n      dup7\n      dup7\n        /* \"src/core/FragmentManager.sol\":2013:2014  i */\n      dup4\n        /* \"src/core/FragmentManager.sol\":2005:2015  amounts[i] */\n      dup2\n      dup2\n      lt\n      tag_154\n      jumpi\n      tag_155\n      tag_84\n      jump\t// in\n    tag_155:\n    tag_154:\n      swap1\n      pop\n      0x20\n      mul\n      add\n      calldataload\n        /* \"src/core/FragmentManager.sol\":2005:2019  amounts[i] > 0 */\n      gt\n        /* \"src/core/FragmentManager.sol\":1997:2056  require(amounts[i] > 0, \"Fragment amount must be positive\") */\n      tag_156\n      jumpi\n      mload(0x40)\n      0x08c379a000000000000000000000000000000000000000000000000000000000\n      dup2\n      mstore\n      0x04\n      add\n      tag_157\n      swap1\n      tag_87\n      jump\t// in\n    tag_157:\n      mload(0x40)\n      dup1\n      swap2\n      sub\n      swap1\n      revert\n    tag_156:\n        /* \"src/core/FragmentManager.sol\":2079:2086  amounts */\n      dup6\n      dup6\n        /* \"src/core/FragmentManager.sol\":2087:2088  i */\n      dup3\n        /* \"src/core/FragmentManager.sol\":2079:2089  amounts[i] */\n      dup2\n      dup2\n      lt\n      tag_158\n      jumpi\n      tag_159\n      tag_84\n      jump\t// in\n    tag_159:\n    tag_158:\n      swap1\n      pop\n      0x20\n      mul\n      add\n      calldataload\n        /* \"src/core/FragmentManager.sol\":2070:2089  total += amounts[i] */\n      dup3\n      tag_160\n      swap2\n      swap1\n      tag_91\n      jump\t// in\n    tag_160:\n      swap2\n      pop\n        /* \"src/core/FragmentManager.sol\":1978:1981  i++ */\n      dup1\n      dup1\n      0x01\n      add\n      swap2\n      pop\n      pop\n        /* \"src/core/FragmentManager.sol\":1938:2100  for (uint256 i = 0; i < amounts.length; i++) {... */\n      jump(tag_151)\n    tag_152:\n      pop\n        /* \"src/core/FragmentManager.sol\":2125:2126  0 */\n      0x00\n        /* \"src/core/FragmentManager.sol\":2117:2122  total */\n      dup2\n        /* \"src/core/FragmentManager.sol\":2117:2126  total > 0 */\n      gt\n        /* \"src/core/FragmentManager.sol\":2109:2160  require(total > 0, \"Total amount must be positive\") */\n      tag_161\n      jumpi\n      mload(0x40)\n      0x08c379a000000000000000000000000000000000000000000000000000000000\n      dup2\n      mstore\n      0x04\n      add\n      tag_162\n      swap1\n      tag_163\n      jump\t// in\n    tag_162:\n      mload(0x40)\n      dup1\n      swap2\n      sub\n      swap1\n      revert\n    tag_161:\n        /* \"src/core/FragmentManager.sol\":2242:2247  token */\n      immutable(\"0x2757844bcba802ce24af88f7c8fd3438a9a94d6eea4d1e58913fbc1440605b8d\")\n        /* \"src/core/FragmentManager.sol\":2242:2260  token.transferFrom */\n      0xffffffffffffffffffffffffffffffffffffffff\n      and\n      0x23b872dd\n        /* \"src/core/FragmentManager.sol\":2261:2271  msg.sender */\n      caller\n        /* \"src/core/FragmentManager.sol\":2281:2285  this */\n      address\n        /* \"src/core/FragmentManager.sol\":2288:2293  total */\n      dup5\n        /* \"src/core/FragmentManager.sol\":2242:2294  token.transferFrom(msg.sender, address(this), total) */\n      mload(0x40)\n      dup5\n      0xffffffff\n      and\n      0xe0\n      shl\n      dup2\n      mstore\n      0x04\n      add\n      tag_164\n      swap4\n      swap3\n      swap2\n      swap1\n      tag_165\n      jump\t// in\n    tag_164:\n      0x20\n      mload(0x40)\n      dup1\n      dup4\n      sub\n      dup2\n      0x00\n      dup8\n      gas\n      call\n      iszero\n      dup1\n      iszero\n      tag_167\n      jumpi\n      returndatacopy(0x00, 0x00, returndatasize)\n      revert(0x00, returndatasize)\n    tag_167:\n      pop\n      pop\n      pop\n      pop\n      mload(0x40)\n      returndatasize\n      not(0x1f)\n      0x1f\n      dup3\n      add\n      and\n      dup3\n      add\n      dup1\n      0x40\n      mstore\n      pop\n      dup2\n      add\n      swap1\n      tag_168\n      swap2\n      swap1\n      tag_133\n      jump\t// in\n    tag_168:\n        /* \"src/core/FragmentManager.sol\":2234:2320  require(token.transferFrom(msg.sender, address(this), total), \"Token transfer failed\") */\n      tag_169\n      jumpi\n      mload(0x40)\n      0x08c379a000000000000000000000000000000000000000000000000000000000\n      dup2\n      mstore\n      0x04\n      add\n      tag_170\n      swap1\n      tag_171\n      jump\t// in\n    tag_170:\n      mload(0x40)\n      dup1\n      swap2\n      sub\n      swap1\n      revert\n    tag_169:\n        /* \"src/core/FragmentManager.sol\":2392:2397  total */\n      dup1\n        /* \"src/core/FragmentManager.sol\":2366:2380  totalDeposited */\n      0x02\n        /* \"src/core/FragmentManager.sol\":2366:2388  totalDeposited[userId] */\n      0x00\n        /* \"src/core/FragmentManager.sol\":2381:2387  userId */\n      dup6\n        /* \"src/core/FragmentManager.sol\":2366:2388  totalDeposited[userId] */\n      dup2\n      mstore\n      0x20\n      add\n      swap1\n      dup2\n      mstore\n      0x20\n      add\n      0x00\n      keccak256\n      0x00\n        /* \"src/core/FragmentManager.sol\":2366:2397  totalDeposited[userId] += total */\n      dup3\n      dup3\n      sload\n      tag_172\n      swap2\n      swap1\n      tag_91\n      jump\t// in\n    tag_172:\n      swap3\n      pop\n      pop\n      dup2\n      swap1\n      sstore\n      pop\n        /* \"src/core/FragmentManager.sol\":2473:2482  uint256 i */\n      0x00\n        /* \"src/core/FragmentManager.sol\":2485:2486  0 */\n      0x00\n        /* \"src/core/FragmentManager.sol\":2473:2486  uint256 i = 0 */\n      swap1\n      pop\n        /* \"src/core/FragmentManager.sol\":2468:2856  for (uint256 i = 0; i < amounts.length; i++) {... */\n    tag_173:\n        /* \"src/core/FragmentManager.sol\":2492:2499  amounts */\n      dup6\n      dup6\n        /* \"src/core/FragmentManager.sol\":2492:2506  amounts.length */\n      swap1\n      pop\n        /* \"src/core/FragmentManager.sol\":2488:2489  i */\n      dup2\n        /* \"src/core/FragmentManager.sol\":2488:2506  i < amounts.length */\n      lt\n        /* \"src/core/FragmentManager.sol\":2468:2856  for (uint256 i = 0; i < amounts.length; i++) {... */\n      iszero\n      tag_174\n      jumpi\n        /* \"src/core/FragmentManager.sol\":2527:2539  address pool */\n      0x00\n        /* \"src/core/FragmentManager.sol\":2562:2563  0 */\n      0x00\n        /* \"src/core/FragmentManager.sol\":2557:2558  i */\n      dup3\n        /* \"src/core/FragmentManager.sol\":2557:2563  i == 0 */\n      sub\n        /* \"src/core/FragmentManager.sol\":2553:2694  if (i == 0) pool = poolA;... */\n      tag_176\n      jumpi\n        /* \"src/core/FragmentManager.sol\":2572:2577  poolA */\n      immutable(\"0x6b5b33fd3ded2cf263edb232310f182d666aca7afaa45921be3c8956e7742d13\")\n        /* \"src/core/FragmentManager.sol\":2565:2577  pool = poolA */\n      swap1\n      pop\n        /* \"src/core/FragmentManager.sol\":2553:2694  if (i == 0) pool = poolA;... */\n      jump(tag_177)\n    tag_176:\n        /* \"src/core/FragmentManager.sol\":2605:2606  1 */\n      0x01\n        /* \"src/core/FragmentManager.sol\":2600:2601  i */\n      dup3\n        /* \"src/core/FragmentManager.sol\":2600:2606  i == 1 */\n      sub\n        /* \"src/core/FragmentManager.sol\":2596:2694  if (i == 1) pool = poolB;... */\n      tag_178\n      jumpi\n        /* \"src/core/FragmentManager.sol\":2615:2620  poolB */\n      immutable(\"0x91725db95b9b07669578bfe592f9fa049f281fe4219c153e3381ed0bc4e624c2\")\n        /* \"src/core/FragmentManager.sol\":2608:2620  pool = poolB */\n      swap1\n      pop\n        /* \"src/core/FragmentManager.sol\":2596:2694  if (i == 1) pool = poolB;... */\n      jump(tag_179)\n    tag_178:\n        /* \"src/core/FragmentManager.sol\":2648:2649  2 */\n      0x02\n        /* \"src/core/FragmentManager.sol\":2643:2644  i */\n      dup3\n        /* \"src/core/FragmentManager.sol\":2643:2649  i == 2 */\n      sub\n        /* \"src/core/FragmentManager.sol\":2639:2694  if (i == 2) pool = poolC;... */\n      tag_180\n      jumpi\n        /* \"src/core/FragmentManager.sol\":2658:2663  poolC */\n      immutable(\"0xcb3f72a8bd725749e2ed6c270399de051a80f2f38d5ddcba7f2eaa3953346860\")\n        /* \"src/core/FragmentManager.sol\":2651:2663  pool = poolC */\n      swap1\n      pop\n        /* \"src/core/FragmentManager.sol\":2639:2694  if (i == 2) pool = poolC;... */\n      jump(tag_181)\n    tag_180:\n        /* \"src/core/FragmentManager.sol\":2689:2694  poolD */\n      immutable(\"0x282605426a480fcd6b503ad204de277ed23a45c7dbbdc48eb17242a52b94b5ab\")\n        /* \"src/core/FragmentManager.sol\":2682:2694  pool = poolD */\n      swap1\n      pop\n        /* \"src/core/FragmentManager.sol\":2639:2694  if (i == 2) pool = poolC;... */\n    tag_181:\n        /* \"src/core/FragmentManager.sol\":2596:2694  if (i == 1) pool = poolB;... */\n    tag_179:\n        /* \"src/core/FragmentManager.sol\":2553:2694  if (i == 0) pool = poolA;... */\n    tag_177:\n        /* \"src/core/FragmentManager.sol\":2729:2734  token */\n      immutable(\"0x2757844bcba802ce24af88f7c8fd3438a9a94d6eea4d1e58913fbc1440605b8d\")\n        /* \"src/core/FragmentManager.sol\":2729:2742  token.approve */\n      0xffffffffffffffffffffffffffffffffffffffff\n      and\n      0x095ea7b3\n        /* \"src/core/FragmentManager.sol\":2743:2747  pool */\n      dup3\n        /* \"src/core/FragmentManager.sol\":2749:2756  amounts */\n      dup10\n      dup10\n        /* \"src/core/FragmentManager.sol\":2757:2758  i */\n      dup7\n        /* \"src/core/FragmentManager.sol\":2749:2759  amounts[i] */\n      dup2\n      dup2\n      lt\n      tag_182\n      jumpi\n      tag_183\n      tag_84\n      jump\t// in\n    tag_183:\n    tag_182:\n      swap1\n      pop\n      0x20\n      mul\n      add\n      calldataload\n        /* \"src/core/FragmentManager.sol\":2729:2760  token.approve(pool, amounts[i]) */\n      mload(0x40)\n      dup4\n      0xffffffff\n      and\n      0xe0\n      shl\n      dup2\n      mstore\n      0x04\n      add\n      tag_184\n      swap3\n      swap2\n      swap1\n      tag_129\n      jump\t// in\n    tag_184:\n      0x20\n      mload(0x40)\n      dup1\n      dup4\n      sub\n      dup2\n      0x00\n      dup8\n      gas\n      call\n      iszero\n      dup1\n      iszero\n      tag_186\n      jumpi\n      returndatacopy(0x00, 0x00, returndatasize)\n      revert(0x00, returndatasize)\n    tag_186:\n      pop\n      pop\n      pop\n      pop\n      mload(0x40)\n      returndatasize\n      not(0x1f)\n      0x1f\n      dup3\n      add\n      and\n      dup3\n      add\n      dup1\n      0x40\n      mstore\n      pop\n      dup2\n      add\n      swap1\n      tag_187\n      swap2\n      swap1\n      tag_133\n      jump\t// in\n    tag_187:\n        /* \"src/core/FragmentManager.sol\":2721:2785  require(token.approve(pool, amounts[i]), \"Pool approval failed\") */\n      tag_188\n      jumpi\n      mload(0x40)\n      0x08c379a000000000000000000000000000000000000000000000000000000000\n      dup2\n      mstore\n      0x04\n      add\n      tag_189\n      swap1\n      tag_190\n      jump\t// in\n    tag_189:\n      mload(0x40)\n      dup1\n      swap2\n      sub\n      swap1\n      revert\n    tag_188:\n        /* \"src/core/FragmentManager.sol\":2812:2816  pool */\n      dup1\n        /* \"src/core/FragmentManager.sol\":2799:2825  PoolContract(pool).deposit */\n      0xffffffffffffffffffffffffffffffffffffffff\n      and\n      0xe2bbb158\n        /* \"src/core/FragmentManager.sol\":2826:2833  amounts */\n      dup9\n      dup9\n        /* \"src/core/FragmentManager.sol\":2834:2835  i */\n      dup6\n        /* \"src/core/FragmentManager.sol\":2826:2836  amounts[i] */\n      dup2\n      dup2\n      lt\n      tag_191\n      jumpi\n      tag_192\n      tag_84\n      jump\t// in\n    tag_192:\n    tag_191:\n      swap1\n      pop\n      0x20\n      mul\n      add\n      calldataload\n        /* \"src/core/FragmentManager.sol\":2838:2844  userId */\n      dup8\n        /* \"src/core/FragmentManager.sol\":2799:2845  PoolContract(pool).deposit(amounts[i], userId) */\n      mload(0x40)\n      dup4\n      0xffffffff\n      and\n      0xe0\n      shl\n      dup2\n      mstore\n      0x04\n      add\n      tag_193\n      swap3\n      swap2\n      swap1\n      tag_194\n      jump\t// in\n    tag_193:\n      0x00\n      mload(0x40)\n      dup1\n      dup4\n      sub\n      dup2\n      0x00\n      dup8\n      dup1\n      extcodesize\n      iszero\n      dup1\n      iszero\n      tag_195\n      jumpi\n      revert(0x00, 0x00)\n    tag_195:\n      pop\n      gas\n      call\n      iszero\n      dup1\n      iszero\n      tag_197\n      jumpi\n      returndatacopy(0x00, 0x00, returndatasize)\n      revert(0x00, returndatasize)\n    tag_197:\n      pop\n      pop\n      pop\n      pop\n        /* \"src/core/FragmentManager.sol\":2513:2856  {... */\n      pop\n        /* \"src/core/FragmentManager.sol\":2508:2511  i++ */\n      dup1\n      dup1\n      0x01\n      add\n      swap2\n      pop\n      pop\n        /* \"src/core/FragmentManager.sol\":2468:2856  for (uint256 i = 0; i < amounts.length; i++) {... */\n      jump(tag_173)\n    tag_174:\n      pop\n        /* \"src/core/FragmentManager.sol\":2898:2904  userId */\n      dup3\n        /* \"src/core/FragmentManager.sol\":2879:2921  FragmentsDeposited(userId, amounts, level) */\n      0xb12ce7c92e7d614d3d6966bb36d8b8950883e5133d3b4da997a1dcf11e6ce160\n        /* \"src/core/FragmentManager.sol\":2906:2913  amounts */\n      dup7\n      dup7\n        /* \"src/core/FragmentManager.sol\":2915:2920  level */\n      dup6\n        /* \"src/core/FragmentManager.sol\":2879:2921  FragmentsDeposited(userId, amounts, level) */\n      mload(0x40)\n      tag_198\n      swap4\n      swap3\n      swap2\n      swap1\n      tag_199\n      jump\t// in\n    tag_198:\n      mload(0x40)\n      dup1\n      swap2\n      sub\n      swap1\n      log2\n        /* \"src/core/FragmentManager.sol\":1755:2928  {... */\n      pop\n        /* \"@openzeppelin/contracts/utils/ReentrancyGuard.sol\":2542:2562  _nonReentrantAfter() */\n      tag_200\n        /* \"@openzeppelin/contracts/utils/ReentrancyGuard.sol\":2542:2560  _nonReentrantAfter */\n      tag_112\n        /* \"@openzeppelin/contracts/utils/ReentrancyGuard.sol\":2542:2562  _nonReentrantAfter() */\n      jump\t// in\n    tag_200:\n        /* \"src/core/FragmentManager.sol\":1618:2928  function depositFragments(... */\n      pop\n      pop\n      pop\n      pop\n      jump\t// out\n        /* \"src/core/FragmentManager.sol\":471:501  address public immutable poolC */\n    tag_44:\n      immutable(\"0xcb3f72a8bd725749e2ed6c270399de051a80f2f38d5ddcba7f2eaa3953346860\")\n      dup2\n      jump\t// out\n        /* \"src/core/FragmentManager.sol\":599:648  mapping(uint256 => uint256) public totalDeposited */\n    tag_49:\n      mstore(0x20, 0x02)\n      dup1\n      0x00\n      mstore\n      keccak256(0x00, 0x40)\n      0x00\n      swap2\n      pop\n      swap1\n      pop\n      sload\n      dup2\n      jump\t// out\n        /* \"src/core/FragmentManager.sol\":399:429  address public immutable poolA */\n    tag_53:\n      immutable(\"0x6b5b33fd3ded2cf263edb232310f182d666aca7afaa45921be3c8956e7742d13\")\n      dup2\n      jump\t// out\n        /* \"src/core/FragmentManager.sol\":435:465  address public immutable poolB */\n    tag_56:\n      immutable(\"0x91725db95b9b07669578bfe592f9fa049f281fe4219c153e3381ed0bc4e624c2\")\n      dup2\n      jump\t// out\n        /* \"@openzeppelin/contracts/access/Ownable.sol\":2543:2758  function transferOwnership(address newOwner) public virtual onlyOwner {... */\n    tag_60:\n        /* \"@openzeppelin/contracts/access/Ownable.sol\":1531:1544  _checkOwner() */\n      tag_202\n        /* \"@openzeppelin/contracts/access/Ownable.sol\":1531:1542  _checkOwner */\n      tag_118\n        /* \"@openzeppelin/contracts/access/Ownable.sol\":1531:1544  _checkOwner() */\n      jump\t// in\n    tag_202:\n        /* \"@openzeppelin/contracts/access/Ownable.sol\":2647:2648  0 */\n      0x00\n        /* \"@openzeppelin/contracts/access/Ownable.sol\":2627:2649  newOwner == address(0) */\n      0xffffffffffffffffffffffffffffffffffffffff\n      and\n        /* \"@openzeppelin/contracts/access/Ownable.sol\":2627:2635  newOwner */\n      dup2\n        /* \"@openzeppelin/contracts/access/Ownable.sol\":2627:2649  newOwner == address(0) */\n      0xffffffffffffffffffffffffffffffffffffffff\n      and\n      sub\n        /* \"@openzeppelin/contracts/access/Ownable.sol\":2623:2714  if (newOwner == address(0)) {... */\n      tag_204\n      jumpi\n        /* \"@openzeppelin/contracts/access/Ownable.sol\":2700:2701  0 */\n      0x00\n        /* \"@openzeppelin/contracts/access/Ownable.sol\":2672:2703  OwnableInvalidOwner(address(0)) */\n      mload(0x40)\n      0x1e4fbdf700000000000000000000000000000000000000000000000000000000\n      dup2\n      mstore\n      0x04\n      add\n      tag_205\n      swap2\n      swap1\n      tag_21\n      jump\t// in\n    tag_205:\n      mload(0x40)\n      dup1\n      swap2\n      sub\n      swap1\n      revert\n        /* \"@openzeppelin/contracts/access/Ownable.sol\":2623:2714  if (newOwner == address(0)) {... */\n    tag_204:\n        /* \"@openzeppelin/contracts/access/Ownable.sol\":2723:2751  _transferOwnership(newOwner) */\n      tag_206\n        /* \"@openzeppelin/contracts/access/Ownable.sol\":2742:2750  newOwner */\n      dup2\n        /* \"@openzeppelin/contracts/access/Ownable.sol\":2723:2741  _transferOwnership */\n      tag_141\n        /* \"@openzeppelin/contracts/access/Ownable.sol\":2723:2751  _transferOwnership(newOwner) */\n      jump\t// in\n    tag_206:\n        /* \"@openzeppelin/contracts/access/Ownable.sol\":2543:2758  function transferOwnership(address newOwner) public virtual onlyOwner {... */\n      pop\n      jump\t// out\n        /* \"src/core/FragmentManager.sol\":317:346  IERC20 public immutable token */\n    tag_62:\n      immutable(\"0x2757844bcba802ce24af88f7c8fd3438a9a94d6eea4d1e58913fbc1440605b8d\")\n      dup2\n      jump\t// out\n        /* \"@openzeppelin/contracts/utils/ReentrancyGuard.sol\":2575:2882  function _nonReentrantBefore() private {... */\n    tag_67:\n        /* \"@openzeppelin/contracts/utils/ReentrancyGuard.sol\":1899:1900  2 */\n      0x02\n        /* \"@openzeppelin/contracts/utils/ReentrancyGuard.sol\":2702:2709  _status */\n      sload(0x01)\n        /* \"@openzeppelin/contracts/utils/ReentrancyGuard.sol\":2702:2720  _status == ENTERED */\n      sub\n        /* \"@openzeppelin/contracts/utils/ReentrancyGuard.sol\":2698:2784  if (_status == ENTERED) {... */\n      tag_208\n      jumpi\n        /* \"@openzeppelin/contracts/utils/ReentrancyGuard.sol\":2743:2773  ReentrancyGuardReentrantCall() */\n      mload(0x40)\n      0x3ee5aeb500000000000000000000000000000000000000000000000000000000\n      dup2\n      mstore\n      0x04\n      add\n      mload(0x40)\n      dup1\n      swap2\n      sub\n      swap1\n      revert\n        /* \"@openzeppelin/contracts/utils/ReentrancyGuard.sol\":2698:2784  if (_status == ENTERED) {... */\n    tag_208:\n        /* \"@openzeppelin/contracts/utils/ReentrancyGuard.sol\":1899:1900  2 */\n      0x02\n        /* \"@openzeppelin/contracts/utils/ReentrancyGuard.sol\":2858:2865  _status */\n      0x01\n        /* \"@openzeppelin/contracts/utils/ReentrancyGuard.sol\":2858:2875  _status = ENTERED */\n      dup2\n      swap1\n      sstore\n      pop\n        /* \"@openzeppelin/contracts/utils/ReentrancyGuard.sol\":2575:2882  function _nonReentrantBefore() private {... */\n      jump\t// out\n        /* \"@openzeppelin/contracts/utils/ReentrancyGuard.sol\":2888:3096  function _nonReentrantAfter() private {... */\n    tag_112:\n        /* \"@openzeppelin/contracts/utils/ReentrancyGuard.sol\":1857:1858  1 */\n      0x01\n        /* \"@openzeppelin/contracts/utils/ReentrancyGuard.sol\":3068:3075  _status */\n      dup1\n        /* \"@openzeppelin/contracts/utils/ReentrancyGuard.sol\":3068:3089  _status = NOT_ENTERED */\n      dup2\n      swap1\n      sstore\n      pop\n        /* \"@openzeppelin/contracts/utils/ReentrancyGuard.sol\":2888:3096  function _nonReentrantAfter() private {... */\n      jump\t// out\n        /* \"@openzeppelin/contracts/access/Ownable.sol\":1796:1958  function _checkOwner() internal view virtual {... */\n    tag_118:\n        /* \"@openzeppelin/contracts/access/Ownable.sol\":1866:1878  _msgSender() */\n      tag_211\n        /* \"@openzeppelin/contracts/access/Ownable.sol\":1866:1876  _msgSender */\n      tag_212\n        /* \"@openzeppelin/contracts/access/Ownable.sol\":1866:1878  _msgSender() */\n      jump\t// in\n    tag_211:\n        /* \"@openzeppelin/contracts/access/Ownable.sol\":1855:1878  owner() != _msgSender() */\n      0xffffffffffffffffffffffffffffffffffffffff\n      and\n        /* \"@openzeppelin/contracts/access/Ownable.sol\":1855:1862  owner() */\n      tag_213\n        /* \"@openzeppelin/contracts/access/Ownable.sol\":1855:1860  owner */\n      tag_37\n        /* \"@openzeppelin/contracts/access/Ownable.sol\":1855:1862  owner() */\n      jump\t// in\n    tag_213:\n        /* \"@openzeppelin/contracts/access/Ownable.sol\":1855:1878  owner() != _msgSender() */\n      0xffffffffffffffffffffffffffffffffffffffff\n      and\n      eq\n        /* \"@openzeppelin/contracts/access/Ownable.sol\":1851:1952  if (owner() != _msgSender()) {... */\n      tag_214\n      jumpi\n        /* \"@openzeppelin/contracts/access/Ownable.sol\":1928:1940  _msgSender() */\n      tag_215\n        /* \"@openzeppelin/contracts/access/Ownable.sol\":1928:1938  _msgSender */\n      tag_212\n        /* \"@openzeppelin/contracts/access/Ownable.sol\":1928:1940  _msgSender() */\n      jump\t// in\n    tag_215:\n        /* \"@openzeppelin/contracts/access/Ownable.sol\":1901:1941  OwnableUnauthorizedAccount(_msgSender()) */\n      mload(0x40)\n      0x118cdaa700000000000000000000000000000000000000000000000000000000\n      dup2\n      mstore\n      0x04\n      add\n      tag_216\n      swap2\n      swap1\n      tag_21\n      jump\t// in\n    tag_216:\n      mload(0x40)\n      dup1\n      swap2\n      sub\n      swap1\n      revert\n        /* \"@openzeppelin/contracts/access/Ownable.sol\":1851:1952  if (owner() != _msgSender()) {... */\n    tag_214:\n        /* \"@openzeppelin/contracts/access/Ownable.sol\":1796:1958  function _checkOwner() internal view virtual {... */\n      jump\t// out\n        /* \"@openzeppelin/contracts/access/Ownable.sol\":2912:3099  function _transferOwnership(address newOwner) internal virtual {... */\n    tag_141:\n        /* \"@openzeppelin/contracts/access/Ownable.sol\":2985:3001  address oldOwner */\n      0x00\n        /* \"@openzeppelin/contracts/access/Ownable.sol\":3004:3010  _owner */\n      0x00\n      0x00\n      swap1\n      sload\n      swap1\n      0x0100\n      exp\n      swap1\n      div\n      0xffffffffffffffffffffffffffffffffffffffff\n      and\n        /* \"@openzeppelin/contracts/access/Ownable.sol\":2985:3010  address oldOwner = _owner */\n      swap1\n      pop\n        /* \"@openzeppelin/contracts/access/Ownable.sol\":3029:3037  newOwner */\n      dup2\n        /* \"@openzeppelin/contracts/access/Ownable.sol\":3020:3026  _owner */\n      0x00\n      0x00\n        /* \"@openzeppelin/contracts/access/Ownable.sol\":3020:3037  _owner = newOwner */\n      0x0100\n      exp\n      dup2\n      sload\n      dup2\n      0xffffffffffffffffffffffffffffffffffffffff\n      mul\n      not\n      and\n      swap1\n      dup4\n      0xffffffffffffffffffffffffffffffffffffffff\n      and\n      mul\n      or\n      swap1\n      sstore\n      pop\n        /* \"@openzeppelin/contracts/access/Ownable.sol\":3083:3091  newOwner */\n      dup2\n        /* \"@openzeppelin/contracts/access/Ownable.sol\":3052:3092  OwnershipTransferred(oldOwner, newOwner) */\n      0xffffffffffffffffffffffffffffffffffffffff\n      and\n        /* \"@openzeppelin/contracts/access/Ownable.sol\":3073:3081  oldOwner */\n      dup2\n        /* \"@openzeppelin/contracts/access/Ownable.sol\":3052:3092  OwnershipTransferred(oldOwner, newOwner) */\n      0xffffffffffffffffffffffffffffffffffffffff\n      and\n      0x8be0079c531659141344cd1fd0a4f28419497f9722a3daafe3b4186f6b6457e0\n      mload(0x40)\n      mload(0x40)\n      dup1\n      swap2\n      sub\n      swap1\n      log3\n        /* \"@openzeppelin/contracts/access/Ownable.sol\":2975:3099  {... */\n      pop\n        /* \"@openzeppelin/contracts/access/Ownable.sol\":2912:3099  function _transferOwnership(address newOwner) internal virtual {... */\n      pop\n      jump\t// out\n        /* \"@openzeppelin/contracts/utils/Context.sol\":656:752  function _msgSender() internal view virtual returns (address) {... */\n    tag_212:\n        /* \"@openzeppelin/contracts/utils/Context.sol\":709:716  address */\n      0x00\n        /* \"@openzeppelin/contracts/utils/Context.sol\":735:745  msg.sender */\n      caller\n        /* \"@openzeppelin/contracts/utils/Context.sol\":728:745  return msg.sender */\n      swap1\n      pop\n        /* \"@openzeppelin/contracts/utils/Context.sol\":656:752  function _msgSender() internal view virtual returns (address) {... */\n      swap1\n      jump\t// out\n    tag_114:\n      mload(0x40)\n      dup1\n      0x80\n      add\n      0x40\n      mstore\n      dup1\n      0x04\n      swap1\n      0x20\n      dup3\n      mul\n      dup1\n      calldatasize\n      dup4\n      calldatacopy\n      dup1\n      dup3\n      add\n      swap2\n      pop\n      pop\n      swap1\n      pop\n      pop\n      swap1\n      jump\t// out\n        /* \"#utility.yul\":7:133   */\n    tag_219:\n        /* \"#utility.yul\":44:51   */\n      0x00\n        /* \"#utility.yul\":84:126   */\n      0xffffffffffffffffffffffffffffffffffffffff\n        /* \"#utility.yul\":77:82   */\n      dup3\n        /* \"#utility.yul\":73:127   */\n      and\n        /* \"#utility.yul\":62:127   */\n      swap1\n      pop\n        /* \"#utility.yul\":7:133   */\n      swap2\n      swap1\n      pop\n      jump\t// out\n        /* \"#utility.yul\":139:235   */\n    tag_220:\n        /* \"#utility.yul\":176:183   */\n      0x00\n        /* \"#utility.yul\":205:229   */\n      tag_280\n        /* \"#utility.yul\":223:228   */\n      dup3\n        /* \"#utility.yul\":205:229   */\n      tag_219\n      jump\t// in\n    tag_280:\n        /* \"#utility.yul\":194:229   */\n      swap1\n      pop\n        /* \"#utility.yul\":139:235   */\n      swap2\n      swap1\n      pop\n      jump\t// out\n        /* \"#utility.yul\":241:359   */\n    tag_221:\n        /* \"#utility.yul\":328:352   */\n      tag_282\n        /* \"#utility.yul\":346:351   */\n      dup2\n        /* \"#utility.yul\":328:352   */\n      tag_220\n      jump\t// in\n    tag_282:\n        /* \"#utility.yul\":323:326   */\n      dup3\n        /* \"#utility.yul\":316:353   */\n      mstore\n        /* \"#utility.yul\":241:359   */\n      pop\n      pop\n      jump\t// out\n        /* \"#utility.yul\":365:587   */\n    tag_21:\n        /* \"#utility.yul\":458:462   */\n      0x00\n        /* \"#utility.yul\":496:498   */\n      0x20\n        /* \"#utility.yul\":485:494   */\n      dup3\n        /* \"#utility.yul\":481:499   */\n      add\n        /* \"#utility.yul\":473:499   */\n      swap1\n      pop\n        /* \"#utility.yul\":509:580   */\n      tag_284\n        /* \"#utility.yul\":577:578   */\n      0x00\n        /* \"#utility.yul\":566:575   */\n      dup4\n        /* \"#utility.yul\":562:579   */\n      add\n        /* \"#utility.yul\":553:559   */\n      dup5\n        /* \"#utility.yul\":509:580   */\n      tag_221\n      jump\t// in\n    tag_284:\n        /* \"#utility.yul\":365:587   */\n      swap3\n      swap2\n      pop\n      pop\n      jump\t// out\n        /* \"#utility.yul\":674:791   */\n    tag_223:\n        /* \"#utility.yul\":783:784   */\n      0x00\n        /* \"#utility.yul\":780:781   */\n      0x00\n        /* \"#utility.yul\":773:785   */\n      revert\n        /* \"#utility.yul\":797:914   */\n    tag_224:\n        /* \"#utility.yul\":906:907   */\n      0x00\n        /* \"#utility.yul\":903:904   */\n      0x00\n        /* \"#utility.yul\":896:908   */\n      revert\n        /* \"#utility.yul\":920:1037   */\n    tag_225:\n        /* \"#utility.yul\":1029:1030   */\n      0x00\n        /* \"#utility.yul\":1026:1027   */\n      0x00\n        /* \"#utility.yul\":1019:1031   */\n      revert\n        /* \"#utility.yul\":1043:1160   */\n    tag_226:\n        /* \"#utility.yul\":1152:1153   */\n      0x00\n        /* \"#utility.yul\":1149:1150   */\n      0x00\n        /* \"#utility.yul\":1142:1154   */\n      revert\n        /* \"#utility.yul\":1166:1283   */\n    tag_227:\n        /* \"#utility.yul\":1275:1276   */\n      0x00\n        /* \"#utility.yul\":1272:1273   */\n      0x00\n        /* \"#utility.yul\":1265:1277   */\n      revert\n        /* \"#utility.yul\":1306:1874   */\n    tag_228:\n        /* \"#utility.yul\":1379:1387   */\n      0x00\n        /* \"#utility.yul\":1389:1395   */\n      0x00\n        /* \"#utility.yul\":1439:1442   */\n      dup4\n        /* \"#utility.yul\":1432:1436   */\n      0x1f\n        /* \"#utility.yul\":1424:1430   */\n      dup5\n        /* \"#utility.yul\":1420:1437   */\n      add\n        /* \"#utility.yul\":1416:1443   */\n      slt\n        /* \"#utility.yul\":1406:1528   */\n      tag_292\n      jumpi\n        /* \"#utility.yul\":1447:1526   */\n      tag_293\n      tag_225\n      jump\t// in\n    tag_293:\n        /* \"#utility.yul\":1406:1528   */\n    tag_292:\n        /* \"#utility.yul\":1560:1566   */\n      dup3\n        /* \"#utility.yul\":1547:1567   */\n      calldataload\n        /* \"#utility.yul\":1537:1567   */\n      swap1\n      pop\n        /* \"#utility.yul\":1590:1608   */\n      0xffffffffffffffff\n        /* \"#utility.yul\":1582:1588   */\n      dup2\n        /* \"#utility.yul\":1579:1609   */\n      gt\n        /* \"#utility.yul\":1576:1693   */\n      iszero\n      tag_294\n      jumpi\n        /* \"#utility.yul\":1612:1691   */\n      tag_295\n      tag_226\n      jump\t// in\n    tag_295:\n        /* \"#utility.yul\":1576:1693   */\n    tag_294:\n        /* \"#utility.yul\":1726:1730   */\n      0x20\n        /* \"#utility.yul\":1718:1724   */\n      dup4\n        /* \"#utility.yul\":1714:1731   */\n      add\n        /* \"#utility.yul\":1702:1731   */\n      swap2\n      pop\n        /* \"#utility.yul\":1780:1783   */\n      dup4\n        /* \"#utility.yul\":1772:1776   */\n      0x20\n        /* \"#utility.yul\":1764:1770   */\n      dup3\n        /* \"#utility.yul\":1760:1777   */\n      mul\n        /* \"#utility.yul\":1750:1758   */\n      dup4\n        /* \"#utility.yul\":1746:1778   */\n      add\n        /* \"#utility.yul\":1743:1784   */\n      gt\n        /* \"#utility.yul\":1740:1868   */\n      iszero\n      tag_296\n      jumpi\n        /* \"#utility.yul\":1787:1866   */\n      tag_297\n      tag_227\n      jump\t// in\n    tag_297:\n        /* \"#utility.yul\":1740:1868   */\n    tag_296:\n        /* \"#utility.yul\":1306:1874   */\n      swap3\n      pop\n      swap3\n      swap1\n      pop\n      jump\t// out\n        /* \"#utility.yul\":1880:1957   */\n    tag_229:\n        /* \"#utility.yul\":1917:1924   */\n      0x00\n        /* \"#utility.yul\":1946:1951   */\n      dup2\n        /* \"#utility.yul\":1935:1951   */\n      swap1\n      pop\n        /* \"#utility.yul\":1880:1957   */\n      swap2\n      swap1\n      pop\n      jump\t// out\n        /* \"#utility.yul\":1963:2085   */\n    tag_230:\n        /* \"#utility.yul\":2036:2060   */\n      tag_300\n        /* \"#utility.yul\":2054:2059   */\n      dup2\n        /* \"#utility.yul\":2036:2060   */\n      tag_229\n      jump\t// in\n    tag_300:\n        /* \"#utility.yul\":2029:2034   */\n      dup2\n        /* \"#utility.yul\":2026:2061   */\n      eq\n        /* \"#utility.yul\":2016:2079   */\n      tag_301\n      jumpi\n        /* \"#utility.yul\":2075:2076   */\n      0x00\n        /* \"#utility.yul\":2072:2073   */\n      0x00\n        /* \"#utility.yul\":2065:2077   */\n      revert\n        /* \"#utility.yul\":2016:2079   */\n    tag_301:\n        /* \"#utility.yul\":1963:2085   */\n      pop\n      jump\t// out\n        /* \"#utility.yul\":2091:2230   */\n    tag_231:\n        /* \"#utility.yul\":2137:2142   */\n      0x00\n        /* \"#utility.yul\":2175:2181   */\n      dup2\n        /* \"#utility.yul\":2162:2182   */\n      calldataload\n        /* \"#utility.yul\":2153:2182   */\n      swap1\n      pop\n        /* \"#utility.yul\":2191:2224   */\n      tag_303\n        /* \"#utility.yul\":2218:2223   */\n      dup2\n        /* \"#utility.yul\":2191:2224   */\n      tag_230\n      jump\t// in\n    tag_303:\n        /* \"#utility.yul\":2091:2230   */\n      swap3\n      swap2\n      pop\n      pop\n      jump\t// out\n        /* \"#utility.yul\":2236:2358   */\n    tag_232:\n        /* \"#utility.yul\":2309:2333   */\n      tag_305\n        /* \"#utility.yul\":2327:2332   */\n      dup2\n        /* \"#utility.yul\":2309:2333   */\n      tag_220\n      jump\t// in\n    tag_305:\n        /* \"#utility.yul\":2302:2307   */\n      dup2\n        /* \"#utility.yul\":2299:2334   */\n      eq\n        /* \"#utility.yul\":2289:2352   */\n      tag_306\n      jumpi\n        /* \"#utility.yul\":2348:2349   */\n      0x00\n        /* \"#utility.yul\":2345:2346   */\n      0x00\n        /* \"#utility.yul\":2338:2350   */\n      revert\n        /* \"#utility.yul\":2289:2352   */\n    tag_306:\n        /* \"#utility.yul\":2236:2358   */\n      pop\n      jump\t// out\n        /* \"#utility.yul\":2364:2503   */\n    tag_233:\n        /* \"#utility.yul\":2410:2415   */\n      0x00\n        /* \"#utility.yul\":2448:2454   */\n      dup2\n        /* \"#utility.yul\":2435:2455   */\n      calldataload\n        /* \"#utility.yul\":2426:2455   */\n      swap1\n      pop\n        /* \"#utility.yul\":2464:2497   */\n      tag_308\n        /* \"#utility.yul\":2491:2496   */\n      dup2\n        /* \"#utility.yul\":2464:2497   */\n      tag_232\n      jump\t// in\n    tag_308:\n        /* \"#utility.yul\":2364:2503   */\n      swap3\n      swap2\n      pop\n      pop\n      jump\t// out\n        /* \"#utility.yul\":2509:3504   */\n    tag_24:\n        /* \"#utility.yul\":2622:2628   */\n      0x00\n        /* \"#utility.yul\":2630:2636   */\n      0x00\n        /* \"#utility.yul\":2638:2644   */\n      0x00\n        /* \"#utility.yul\":2646:2652   */\n      0x00\n        /* \"#utility.yul\":2654:2660   */\n      0x00\n        /* \"#utility.yul\":2703:2706   */\n      0x80\n        /* \"#utility.yul\":2691:2700   */\n      dup7\n        /* \"#utility.yul\":2682:2689   */\n      dup9\n        /* \"#utility.yul\":2678:2701   */\n      sub\n        /* \"#utility.yul\":2674:2707   */\n      slt\n        /* \"#utility.yul\":2671:2791   */\n      iszero\n      tag_310\n      jumpi\n        /* \"#utility.yul\":2710:2789   */\n      tag_311\n      tag_223\n      jump\t// in\n    tag_311:\n        /* \"#utility.yul\":2671:2791   */\n    tag_310:\n        /* \"#utility.yul\":2858:2859   */\n      0x00\n        /* \"#utility.yul\":2847:2856   */\n      dup7\n        /* \"#utility.yul\":2843:2860   */\n      add\n        /* \"#utility.yul\":2830:2861   */\n      calldataload\n        /* \"#utility.yul\":2888:2906   */\n      0xffffffffffffffff\n        /* \"#utility.yul\":2880:2886   */\n      dup2\n        /* \"#utility.yul\":2877:2907   */\n      gt\n        /* \"#utility.yul\":2874:2991   */\n      iszero\n      tag_312\n      jumpi\n        /* \"#utility.yul\":2910:2989   */\n      tag_313\n      tag_224\n      jump\t// in\n    tag_313:\n        /* \"#utility.yul\":2874:2991   */\n    tag_312:\n        /* \"#utility.yul\":3023:3103   */\n      tag_314\n        /* \"#utility.yul\":3095:3102   */\n      dup9\n        /* \"#utility.yul\":3086:3092   */\n      dup3\n        /* \"#utility.yul\":3075:3084   */\n      dup10\n        /* \"#utility.yul\":3071:3093   */\n      add\n        /* \"#utility.yul\":3023:3103   */\n      tag_228\n      jump\t// in\n    tag_314:\n        /* \"#utility.yul\":3005:3103   */\n      swap6\n      pop\n      swap6\n      pop\n        /* \"#utility.yul\":2801:3113   */\n      pop\n        /* \"#utility.yul\":3152:3154   */\n      0x20\n        /* \"#utility.yul\":3178:3231   */\n      tag_315\n        /* \"#utility.yul\":3223:3230   */\n      dup9\n        /* \"#utility.yul\":3214:3220   */\n      dup3\n        /* \"#utility.yul\":3203:3212   */\n      dup10\n        /* \"#utility.yul\":3199:3221   */\n      add\n        /* \"#utility.yul\":3178:3231   */\n      tag_231\n      jump\t// in\n    tag_315:\n        /* \"#utility.yul\":3168:3231   */\n      swap4\n      pop\n        /* \"#utility.yul\":3123:3241   */\n      pop\n        /* \"#utility.yul\":3280:3282   */\n      0x40\n        /* \"#utility.yul\":3306:3359   */\n      tag_316\n        /* \"#utility.yul\":3351:3358   */\n      dup9\n        /* \"#utility.yul\":3342:3348   */\n      dup3\n        /* \"#utility.yul\":3331:3340   */\n      dup10\n        /* \"#utility.yul\":3327:3349   */\n      add\n        /* \"#utility.yul\":3306:3359   */\n      tag_233\n      jump\t// in\n    tag_316:\n        /* \"#utility.yul\":3296:3359   */\n      swap3\n      pop\n        /* \"#utility.yul\":3251:3369   */\n      pop\n        /* \"#utility.yul\":3408:3410   */\n      0x60\n        /* \"#utility.yul\":3434:3487   */\n      tag_317\n        /* \"#utility.yul\":3479:3486   */\n      dup9\n        /* \"#utility.yul\":3470:3476   */\n      dup3\n        /* \"#utility.yul\":3459:3468   */\n      dup10\n        /* \"#utility.yul\":3455:3477   */\n      add\n        /* \"#utility.yul\":3434:3487   */\n      tag_231\n      jump\t// in\n    tag_317:\n        /* \"#utility.yul\":3424:3487   */\n      swap2\n      pop\n        /* \"#utility.yul\":3379:3497   */\n      pop\n        /* \"#utility.yul\":2509:3504   */\n      swap3\n      swap6\n      pop\n      swap3\n      swap6\n      swap1\n      swap4\n      pop\n      jump\t// out\n        /* \"#utility.yul\":3510:3614   */\n    tag_234:\n        /* \"#utility.yul\":3575:3581   */\n      0x00\n        /* \"#utility.yul\":3603:3607   */\n      0x04\n        /* \"#utility.yul\":3593:3607   */\n      swap1\n      pop\n        /* \"#utility.yul\":3510:3614   */\n      swap2\n      swap1\n      pop\n      jump\t// out\n        /* \"#utility.yul\":3620:3763   */\n    tag_235:\n        /* \"#utility.yul\":3717:3728   */\n      0x00\n        /* \"#utility.yul\":3754:3757   */\n      dup2\n        /* \"#utility.yul\":3739:3757   */\n      swap1\n      pop\n        /* \"#utility.yul\":3620:3763   */\n      swap3\n      swap2\n      pop\n      pop\n      jump\t// out\n        /* \"#utility.yul\":3769:3867   */\n    tag_236:\n        /* \"#utility.yul\":3834:3838   */\n      0x00\n        /* \"#utility.yul\":3857:3860   */\n      dup2\n        /* \"#utility.yul\":3849:3860   */\n      swap1\n      pop\n        /* \"#utility.yul\":3769:3867   */\n      swap2\n      swap1\n      pop\n      jump\t// out\n        /* \"#utility.yul\":3873:3981   */\n    tag_237:\n        /* \"#utility.yul\":3950:3974   */\n      tag_322\n        /* \"#utility.yul\":3968:3973   */\n      dup2\n        /* \"#utility.yul\":3950:3974   */\n      tag_220\n      jump\t// in\n    tag_322:\n        /* \"#utility.yul\":3945:3948   */\n      dup3\n        /* \"#utility.yul\":3938:3975   */\n      mstore\n        /* \"#utility.yul\":3873:3981   */\n      pop\n      pop\n      jump\t// out\n        /* \"#utility.yul\":3987:4166   */\n    tag_238:\n        /* \"#utility.yul\":4056:4066   */\n      0x00\n        /* \"#utility.yul\":4077:4123   */\n      tag_324\n        /* \"#utility.yul\":4119:4122   */\n      dup4\n        /* \"#utility.yul\":4111:4117   */\n      dup4\n        /* \"#utility.yul\":4077:4123   */\n      tag_237\n      jump\t// in\n    tag_324:\n        /* \"#utility.yul\":4155:4159   */\n      0x20\n        /* \"#utility.yul\":4150:4153   */\n      dup4\n        /* \"#utility.yul\":4146:4160   */\n      add\n        /* \"#utility.yul\":4132:4160   */\n      swap1\n      pop\n        /* \"#utility.yul\":3987:4166   */\n      swap3\n      swap2\n      pop\n      pop\n      jump\t// out\n        /* \"#utility.yul\":4172:4283   */\n    tag_239:\n        /* \"#utility.yul\":4240:4244   */\n      0x00\n        /* \"#utility.yul\":4272:4276   */\n      0x20\n        /* \"#utility.yul\":4267:4270   */\n      dup3\n        /* \"#utility.yul\":4263:4277   */\n      add\n        /* \"#utility.yul\":4255:4277   */\n      swap1\n      pop\n        /* \"#utility.yul\":4172:4283   */\n      swap2\n      swap1\n      pop\n      jump\t// out\n        /* \"#utility.yul\":4321:5015   */\n    tag_240:\n        /* \"#utility.yul\":4457:4509   */\n      tag_327\n        /* \"#utility.yul\":4503:4508   */\n      dup2\n        /* \"#utility.yul\":4457:4509   */\n      tag_234\n      jump\t// in\n    tag_327:\n        /* \"#utility.yul\":4525:4609   */\n      tag_328\n        /* \"#utility.yul\":4602:4608   */\n      dup2\n        /* \"#utility.yul\":4597:4600   */\n      dup5\n        /* \"#utility.yul\":4525:4609   */\n      tag_235\n      jump\t// in\n    tag_328:\n        /* \"#utility.yul\":4518:4609   */\n      swap3\n      pop\n        /* \"#utility.yul\":4633:4687   */\n      tag_329\n        /* \"#utility.yul\":4681:4686   */\n      dup3\n        /* \"#utility.yul\":4633:4687   */\n      tag_236\n      jump\t// in\n    tag_329:\n        /* \"#utility.yul\":4710:4717   */\n      dup1\n        /* \"#utility.yul\":4741:4742   */\n      0x00\n        /* \"#utility.yul\":4726:5008   */\n    tag_330:\n        /* \"#utility.yul\":4751:4757   */\n      dup4\n        /* \"#utility.yul\":4748:4749   */\n      dup2\n        /* \"#utility.yul\":4745:4758   */\n      lt\n        /* \"#utility.yul\":4726:5008   */\n      iszero\n      tag_332\n      jumpi\n        /* \"#utility.yul\":4827:4833   */\n      dup2\n        /* \"#utility.yul\":4821:4834   */\n      mload\n        /* \"#utility.yul\":4854:4917   */\n      tag_333\n        /* \"#utility.yul\":4913:4916   */\n      dup8\n        /* \"#utility.yul\":4898:4911   */\n      dup3\n        /* \"#utility.yul\":4854:4917   */\n      tag_238\n      jump\t// in\n    tag_333:\n        /* \"#utility.yul\":4847:4917   */\n      swap7\n      pop\n        /* \"#utility.yul\":4940:4998   */\n      tag_334\n        /* \"#utility.yul\":4991:4997   */\n      dup4\n        /* \"#utility.yul\":4940:4998   */\n      tag_239\n      jump\t// in\n    tag_334:\n        /* \"#utility.yul\":4930:4998   */\n      swap3\n      pop\n        /* \"#utility.yul\":4786:5008   */\n      pop\n        /* \"#utility.yul\":4773:4774   */\n      0x01\n        /* \"#utility.yul\":4770:4771   */\n      dup2\n        /* \"#utility.yul\":4766:4775   */\n      add\n        /* \"#utility.yul\":4761:4775   */\n      swap1\n      pop\n        /* \"#utility.yul\":4726:5008   */\n      jump(tag_330)\n    tag_332:\n        /* \"#utility.yul\":4730:4744   */\n      pop\n        /* \"#utility.yul\":4433:5015   */\n      pop\n      pop\n      pop\n        /* \"#utility.yul\":4321:5015   */\n      pop\n      pop\n      jump\t// out\n        /* \"#utility.yul\":5021:5336   */\n    tag_29:\n        /* \"#utility.yul\":5160:5164   */\n      0x00\n        /* \"#utility.yul\":5198:5201   */\n      0x80\n        /* \"#utility.yul\":5187:5196   */\n      dup3\n        /* \"#utility.yul\":5183:5202   */\n      add\n        /* \"#utility.yul\":5175:5202   */\n      swap1\n      pop\n        /* \"#utility.yul\":5212:5329   */\n      tag_336\n        /* \"#utility.yul\":5326:5327   */\n      0x00\n        /* \"#utility.yul\":5315:5324   */\n      dup4\n        /* \"#utility.yul\":5311:5328   */\n      add\n        /* \"#utility.yul\":5302:5308   */\n      dup5\n        /* \"#utility.yul\":5212:5329   */\n      tag_240\n      jump\t// in\n    tag_336:\n        /* \"#utility.yul\":5021:5336   */\n      swap3\n      swap2\n      pop\n      pop\n      jump\t// out\n        /* \"#utility.yul\":5342:5671   */\n    tag_32:\n        /* \"#utility.yul\":5401:5407   */\n      0x00\n        /* \"#utility.yul\":5450:5452   */\n      0x20\n        /* \"#utility.yul\":5438:5447   */\n      dup3\n        /* \"#utility.yul\":5429:5436   */\n      dup5\n        /* \"#utility.yul\":5425:5448   */\n      sub\n        /* \"#utility.yul\":5421:5453   */\n      slt\n        /* \"#utility.yul\":5418:5537   */\n      iszero\n      tag_338\n      jumpi\n        /* \"#utility.yul\":5456:5535   */\n      tag_339\n      tag_223\n      jump\t// in\n    tag_339:\n        /* \"#utility.yul\":5418:5537   */\n    tag_338:\n        /* \"#utility.yul\":5576:5577   */\n      0x00\n        /* \"#utility.yul\":5601:5654   */\n      tag_340\n        /* \"#utility.yul\":5646:5653   */\n      dup5\n        /* \"#utility.yul\":5637:5643   */\n      dup3\n        /* \"#utility.yul\":5626:5635   */\n      dup6\n        /* \"#utility.yul\":5622:5644   */\n      add\n        /* \"#utility.yul\":5601:5654   */\n      tag_233\n      jump\t// in\n    tag_340:\n        /* \"#utility.yul\":5591:5654   */\n      swap2\n      pop\n        /* \"#utility.yul\":5547:5664   */\n      pop\n        /* \"#utility.yul\":5342:5671   */\n      swap3\n      swap2\n      pop\n      pop\n      jump\t// out\n        /* \"#utility.yul\":5677:6526   */\n    tag_41:\n        /* \"#utility.yul\":5781:5787   */\n      0x00\n        /* \"#utility.yul\":5789:5795   */\n      0x00\n        /* \"#utility.yul\":5797:5803   */\n      0x00\n        /* \"#utility.yul\":5805:5811   */\n      0x00\n        /* \"#utility.yul\":5854:5856   */\n      0x60\n        /* \"#utility.yul\":5842:5851   */\n      dup6\n        /* \"#utility.yul\":5833:5840   */\n      dup8\n        /* \"#utility.yul\":5829:5852   */\n      sub\n        /* \"#utility.yul\":5825:5857   */\n      slt\n        /* \"#utility.yul\":5822:5941   */\n      iszero\n      tag_342\n      jumpi\n        /* \"#utility.yul\":5860:5939   */\n      tag_343\n      tag_223\n      jump\t// in\n    tag_343:\n        /* \"#utility.yul\":5822:5941   */\n    tag_342:\n        /* \"#utility.yul\":6008:6009   */\n      0x00\n        /* \"#utility.yul\":5997:6006   */\n      dup6\n        /* \"#utility.yul\":5993:6010   */\n      add\n        /* \"#utility.yul\":5980:6011   */\n      calldataload\n        /* \"#utility.yul\":6038:6056   */\n      0xffffffffffffffff\n        /* \"#utility.yul\":6030:6036   */\n      dup2\n        /* \"#utility.yul\":6027:6057   */\n      gt\n        /* \"#utility.yul\":6024:6141   */\n      iszero\n      tag_344\n      jumpi\n        /* \"#utility.yul\":6060:6139   */\n      tag_345\n      tag_224\n      jump\t// in\n    tag_345:\n        /* \"#utility.yul\":6024:6141   */\n    tag_344:\n        /* \"#utility.yul\":6173:6253   */\n      tag_346\n        /* \"#utility.yul\":6245:6252   */\n      dup8\n        /* \"#utility.yul\":6236:6242   */\n      dup3\n        /* \"#utility.yul\":6225:6234   */\n      dup9\n        /* \"#utility.yul\":6221:6243   */\n      add\n        /* \"#utility.yul\":6173:6253   */\n      tag_228\n      jump\t// in\n    tag_346:\n        /* \"#utility.yul\":6155:6253   */\n      swap5\n      pop\n      swap5\n      pop\n        /* \"#utility.yul\":5951:6263   */\n      pop\n        /* \"#utility.yul\":6302:6304   */\n      0x20\n        /* \"#utility.yul\":6328:6381   */\n      tag_347\n        /* \"#utility.yul\":6373:6380   */\n      dup8\n        /* \"#utility.yul\":6364:6370   */\n      dup3\n        /* \"#utility.yul\":6353:6362   */\n      dup9\n        /* \"#utility.yul\":6349:6371   */\n      add\n        /* \"#utility.yul\":6328:6381   */\n      tag_231\n      jump\t// in\n    tag_347:\n        /* \"#utility.yul\":6318:6381   */\n      swap3\n      pop\n        /* \"#utility.yul\":6273:6391   */\n      pop\n        /* \"#utility.yul\":6430:6432   */\n      0x40\n        /* \"#utility.yul\":6456:6509   */\n      tag_348\n        /* \"#utility.yul\":6501:6508   */\n      dup8\n        /* \"#utility.yul\":6492:6498   */\n      dup3\n        /* \"#utility.yul\":6481:6490   */\n      dup9\n        /* \"#utility.yul\":6477:6499   */\n      add\n        /* \"#utility.yul\":6456:6509   */\n      tag_231\n      jump\t// in\n    tag_348:\n        /* \"#utility.yul\":6446:6509   */\n      swap2\n      pop\n        /* \"#utility.yul\":6401:6519   */\n      pop\n        /* \"#utility.yul\":5677:6526   */\n      swap3\n      swap6\n      swap2\n      swap5\n      pop\n      swap3\n      pop\n      jump\t// out\n        /* \"#utility.yul\":6532:6861   */\n    tag_48:\n        /* \"#utility.yul\":6591:6597   */\n      0x00\n        /* \"#utility.yul\":6640:6642   */\n      0x20\n        /* \"#utility.yul\":6628:6637   */\n      dup3\n        /* \"#utility.yul\":6619:6626   */\n      dup5\n        /* \"#utility.yul\":6615:6638   */\n      sub\n        /* \"#utility.yul\":6611:6643   */\n      slt\n        /* \"#utility.yul\":6608:6727   */\n      iszero\n      tag_350\n      jumpi\n        /* \"#utility.yul\":6646:6725   */\n      tag_351\n      tag_223\n      jump\t// in\n    tag_351:\n        /* \"#utility.yul\":6608:6727   */\n    tag_350:\n        /* \"#utility.yul\":6766:6767   */\n      0x00\n        /* \"#utility.yul\":6791:6844   */\n      tag_352\n        /* \"#utility.yul\":6836:6843   */\n      dup5\n        /* \"#utility.yul\":6827:6833   */\n      dup3\n        /* \"#utility.yul\":6816:6825   */\n      dup6\n        /* \"#utility.yul\":6812:6834   */\n      add\n        /* \"#utility.yul\":6791:6844   */\n      tag_231\n      jump\t// in\n    tag_352:\n        /* \"#utility.yul\":6781:6844   */\n      swap2\n      pop\n        /* \"#utility.yul\":6737:6854   */\n      pop\n        /* \"#utility.yul\":6532:6861   */\n      swap3\n      swap2\n      pop\n      pop\n      jump\t// out\n        /* \"#utility.yul\":6867:6985   */\n    tag_241:\n        /* \"#utility.yul\":6954:6978   */\n      tag_354\n        /* \"#utility.yul\":6972:6977   */\n      dup2\n        /* \"#utility.yul\":6954:6978   */\n      tag_229\n      jump\t// in\n    tag_354:\n        /* \"#utility.yul\":6949:6952   */\n      dup3\n        /* \"#utility.yul\":6942:6979   */\n      mstore\n        /* \"#utility.yul\":6867:6985   */\n      pop\n      pop\n      jump\t// out\n        /* \"#utility.yul\":6991:7213   */\n    tag_51:\n        /* \"#utility.yul\":7084:7088   */\n      0x00\n        /* \"#utility.yul\":7122:7124   */\n      0x20\n        /* \"#utility.yul\":7111:7120   */\n      dup3\n        /* \"#utility.yul\":7107:7125   */\n      add\n        /* \"#utility.yul\":7099:7125   */\n      swap1\n      pop\n        /* \"#utility.yul\":7135:7206   */\n      tag_356\n        /* \"#utility.yul\":7203:7204   */\n      0x00\n        /* \"#utility.yul\":7192:7201   */\n      dup4\n        /* \"#utility.yul\":7188:7205   */\n      add\n        /* \"#utility.yul\":7179:7185   */\n      dup5\n        /* \"#utility.yul\":7135:7206   */\n      tag_241\n      jump\t// in\n    tag_356:\n        /* \"#utility.yul\":6991:7213   */\n      swap3\n      swap2\n      pop\n      pop\n      jump\t// out\n        /* \"#utility.yul\":7219:7279   */\n    tag_242:\n        /* \"#utility.yul\":7247:7250   */\n      0x00\n        /* \"#utility.yul\":7268:7273   */\n      dup2\n        /* \"#utility.yul\":7261:7273   */\n      swap1\n      pop\n        /* \"#utility.yul\":7219:7279   */\n      swap2\n      swap1\n      pop\n      jump\t// out\n        /* \"#utility.yul\":7285:7427   */\n    tag_243:\n        /* \"#utility.yul\":7335:7344   */\n      0x00\n        /* \"#utility.yul\":7368:7421   */\n      tag_359\n        /* \"#utility.yul\":7386:7420   */\n      tag_360\n        /* \"#utility.yul\":7395:7419   */\n      tag_361\n        /* \"#utility.yul\":7413:7418   */\n      dup5\n        /* \"#utility.yul\":7395:7419   */\n      tag_219\n      jump\t// in\n    tag_361:\n        /* \"#utility.yul\":7386:7420   */\n      tag_242\n      jump\t// in\n    tag_360:\n        /* \"#utility.yul\":7368:7421   */\n      tag_219\n      jump\t// in\n    tag_359:\n        /* \"#utility.yul\":7355:7421   */\n      swap1\n      pop\n        /* \"#utility.yul\":7285:7427   */\n      swap2\n      swap1\n      pop\n      jump\t// out\n        /* \"#utility.yul\":7433:7559   */\n    tag_244:\n        /* \"#utility.yul\":7483:7492   */\n      0x00\n        /* \"#utility.yul\":7516:7553   */\n      tag_363\n        /* \"#utility.yul\":7547:7552   */\n      dup3\n        /* \"#utility.yul\":7516:7553   */\n      tag_243\n      jump\t// in\n    tag_363:\n        /* \"#utility.yul\":7503:7553   */\n      swap1\n      pop\n        /* \"#utility.yul\":7433:7559   */\n      swap2\n      swap1\n      pop\n      jump\t// out\n        /* \"#utility.yul\":7565:7705   */\n    tag_245:\n        /* \"#utility.yul\":7629:7638   */\n      0x00\n        /* \"#utility.yul\":7662:7699   */\n      tag_365\n        /* \"#utility.yul\":7693:7698   */\n      dup3\n        /* \"#utility.yul\":7662:7699   */\n      tag_244\n      jump\t// in\n    tag_365:\n        /* \"#utility.yul\":7649:7699   */\n      swap1\n      pop\n        /* \"#utility.yul\":7565:7705   */\n      swap2\n      swap1\n      pop\n      jump\t// out\n        /* \"#utility.yul\":7711:7870   */\n    tag_246:\n        /* \"#utility.yul\":7812:7863   */\n      tag_367\n        /* \"#utility.yul\":7857:7862   */\n      dup2\n        /* \"#utility.yul\":7812:7863   */\n      tag_245\n      jump\t// in\n    tag_367:\n        /* \"#utility.yul\":7807:7810   */\n      dup3\n        /* \"#utility.yul\":7800:7864   */\n      mstore\n        /* \"#utility.yul\":7711:7870   */\n      pop\n      pop\n      jump\t// out\n        /* \"#utility.yul\":7876:8126   */\n    tag_64:\n        /* \"#utility.yul\":7983:7987   */\n      0x00\n        /* \"#utility.yul\":8021:8023   */\n      0x20\n        /* \"#utility.yul\":8010:8019   */\n      dup3\n        /* \"#utility.yul\":8006:8024   */\n      add\n        /* \"#utility.yul\":7998:8024   */\n      swap1\n      pop\n        /* \"#utility.yul\":8034:8119   */\n      tag_369\n        /* \"#utility.yul\":8116:8117   */\n      0x00\n        /* \"#utility.yul\":8105:8114   */\n      dup4\n        /* \"#utility.yul\":8101:8118   */\n      add\n        /* \"#utility.yul\":8092:8098   */\n      dup5\n        /* \"#utility.yul\":8034:8119   */\n      tag_246\n      jump\t// in\n    tag_369:\n        /* \"#utility.yul\":7876:8126   */\n      swap3\n      swap2\n      pop\n      pop\n      jump\t// out\n        /* \"#utility.yul\":8132:8301   */\n    tag_247:\n        /* \"#utility.yul\":8216:8227   */\n      0x00\n        /* \"#utility.yul\":8250:8256   */\n      dup3\n        /* \"#utility.yul\":8245:8248   */\n      dup3\n        /* \"#utility.yul\":8238:8257   */\n      mstore\n        /* \"#utility.yul\":8290:8294   */\n      0x20\n        /* \"#utility.yul\":8285:8288   */\n      dup3\n        /* \"#utility.yul\":8281:8295   */\n      add\n        /* \"#utility.yul\":8266:8295   */\n      swap1\n      pop\n        /* \"#utility.yul\":8132:8301   */\n      swap3\n      swap2\n      pop\n      pop\n      jump\t// out\n        /* \"#utility.yul\":8307:8474   */\n    tag_248:\n        /* \"#utility.yul\":8447:8466   */\n      0x4c6576656c206d75737420626520312d34000000000000000000000000000000\n        /* \"#utility.yul\":8443:8444   */\n      0x00\n        /* \"#utility.yul\":8435:8441   */\n      dup3\n        /* \"#utility.yul\":8431:8445   */\n      add\n        /* \"#utility.yul\":8424:8467   */\n      mstore\n        /* \"#utility.yul\":8307:8474   */\n      pop\n      jump\t// out\n        /* \"#utility.yul\":8480:8846   */\n    tag_249:\n        /* \"#utility.yul\":8622:8625   */\n      0x00\n        /* \"#utility.yul\":8643:8710   */\n      tag_373\n        /* \"#utility.yul\":8707:8709   */\n      0x11\n        /* \"#utility.yul\":8702:8705   */\n      dup4\n        /* \"#utility.yul\":8643:8710   */\n      tag_247\n      jump\t// in\n    tag_373:\n        /* \"#utility.yul\":8636:8710   */\n      swap2\n      pop\n        /* \"#utility.yul\":8719:8812   */\n      tag_374\n        /* \"#utility.yul\":8808:8811   */\n      dup3\n        /* \"#utility.yul\":8719:8812   */\n      tag_248\n      jump\t// in\n    tag_374:\n        /* \"#utility.yul\":8837:8839   */\n      0x20\n        /* \"#utility.yul\":8832:8835   */\n      dup3\n        /* \"#utility.yul\":8828:8840   */\n      add\n        /* \"#utility.yul\":8821:8840   */\n      swap1\n      pop\n        /* \"#utility.yul\":8480:8846   */\n      swap2\n      swap1\n      pop\n      jump\t// out\n        /* \"#utility.yul\":8852:9271   */\n    tag_72:\n        /* \"#utility.yul\":9018:9022   */\n      0x00\n        /* \"#utility.yul\":9056:9058   */\n      0x20\n        /* \"#utility.yul\":9045:9054   */\n      dup3\n        /* \"#utility.yul\":9041:9059   */\n      add\n        /* \"#utility.yul\":9033:9059   */\n      swap1\n      pop\n        /* \"#utility.yul\":9105:9114   */\n      dup2\n        /* \"#utility.yul\":9099:9103   */\n      dup2\n        /* \"#utility.yul\":9095:9115   */\n      sub\n        /* \"#utility.yul\":9091:9092   */\n      0x00\n        /* \"#utility.yul\":9080:9089   */\n      dup4\n        /* \"#utility.yul\":9076:9093   */\n      add\n        /* \"#utility.yul\":9069:9116   */\n      mstore\n        /* \"#utility.yul\":9133:9264   */\n      tag_376\n        /* \"#utility.yul\":9259:9263   */\n      dup2\n        /* \"#utility.yul\":9133:9264   */\n      tag_249\n      jump\t// in\n    tag_376:\n        /* \"#utility.yul\":9125:9264   */\n      swap1\n      pop\n        /* \"#utility.yul\":8852:9271   */\n      swap2\n      swap1\n      pop\n      jump\t// out\n        /* \"#utility.yul\":9277:9458   */\n    tag_250:\n        /* \"#utility.yul\":9417:9450   */\n      0x467261676d656e7420636f756e74206d757374206d61746368206c6576656c00\n        /* \"#utility.yul\":9413:9414   */\n      0x00\n        /* \"#utility.yul\":9405:9411   */\n      dup3\n        /* \"#utility.yul\":9401:9415   */\n      add\n        /* \"#utility.yul\":9394:9451   */\n      mstore\n        /* \"#utility.yul\":9277:9458   */\n      pop\n      jump\t// out\n        /* \"#utility.yul\":9464:9830   */\n    tag_251:\n        /* \"#utility.yul\":9606:9609   */\n      0x00\n        /* \"#utility.yul\":9627:9694   */\n      tag_379\n        /* \"#utility.yul\":9691:9693   */\n      0x1f\n        /* \"#utility.yul\":9686:9689   */\n      dup4\n        /* \"#utility.yul\":9627:9694   */\n      tag_247\n      jump\t// in\n    tag_379:\n        /* \"#utility.yul\":9620:9694   */\n      swap2\n      pop\n        /* \"#utility.yul\":9703:9796   */\n      tag_380\n        /* \"#utility.yul\":9792:9795   */\n      dup3\n        /* \"#utility.yul\":9703:9796   */\n      tag_250\n      jump\t// in\n    tag_380:\n        /* \"#utility.yul\":9821:9823   */\n      0x20\n        /* \"#utility.yul\":9816:9819   */\n      dup3\n        /* \"#utility.yul\":9812:9824   */\n      add\n        /* \"#utility.yul\":9805:9824   */\n      swap1\n      pop\n        /* \"#utility.yul\":9464:9830   */\n      swap2\n      swap1\n      pop\n      jump\t// out\n        /* \"#utility.yul\":9836:10255   */\n    tag_75:\n        /* \"#utility.yul\":10002:10006   */\n      0x00\n        /* \"#utility.yul\":10040:10042   */\n      0x20\n        /* \"#utility.yul\":10029:10038   */\n      dup3\n        /* \"#utility.yul\":10025:10043   */\n      add\n        /* \"#utility.yul\":10017:10043   */\n      swap1\n      pop\n        /* \"#utility.yul\":10089:10098   */\n      dup2\n        /* \"#utility.yul\":10083:10087   */\n      dup2\n        /* \"#utility.yul\":10079:10099   */\n      sub\n        /* \"#utility.yul\":10075:10076   */\n      0x00\n        /* \"#utility.yul\":10064:10073   */\n      dup4\n        /* \"#utility.yul\":10060:10077   */\n      add\n        /* \"#utility.yul\":10053:10100   */\n      mstore\n        /* \"#utility.yul\":10117:10248   */\n      tag_382\n        /* \"#utility.yul\":10243:10247   */\n      dup2\n        /* \"#utility.yul\":10117:10248   */\n      tag_251\n      jump\t// in\n    tag_382:\n        /* \"#utility.yul\":10109:10248   */\n      swap1\n      pop\n        /* \"#utility.yul\":9836:10255   */\n      swap2\n      swap1\n      pop\n      jump\t// out\n        /* \"#utility.yul\":10261:10434   */\n    tag_252:\n        /* \"#utility.yul\":10401:10426   */\n      0x496e76616c696420737465616c74682061646472657373000000000000000000\n        /* \"#utility.yul\":10397:10398   */\n      0x00\n        /* \"#utility.yul\":10389:10395   */\n      dup3\n        /* \"#utility.yul\":10385:10399   */\n      add\n        /* \"#utility.yul\":10378:10427   */\n      mstore\n        /* \"#utility.yul\":10261:10434   */\n      pop\n      jump\t// out\n        /* \"#utility.yul\":10440:10806   */\n    tag_253:\n        /* \"#utility.yul\":10582:10585   */\n      0x00\n        /* \"#utility.yul\":10603:10670   */\n      tag_385\n        /* \"#utility.yul\":10667:10669   */\n      0x17\n        /* \"#utility.yul\":10662:10665   */\n      dup4\n        /* \"#utility.yul\":10603:10670   */\n      tag_247\n      jump\t// in\n    tag_385:\n        /* \"#utility.yul\":10596:10670   */\n      swap2\n      pop\n        /* \"#utility.yul\":10679:10772   */\n      tag_386\n        /* \"#utility.yul\":10768:10771   */\n      dup3\n        /* \"#utility.yul\":10679:10772   */\n      tag_252\n      jump\t// in\n    tag_386:\n        /* \"#utility.yul\":10797:10799   */\n      0x20\n        /* \"#utility.yul\":10792:10795   */\n      dup3\n        /* \"#utility.yul\":10788:10800   */\n      add\n        /* \"#utility.yul\":10781:10800   */\n      swap1\n      pop\n        /* \"#utility.yul\":10440:10806   */\n      swap2\n      swap1\n      pop\n      jump\t// out\n        /* \"#utility.yul\":10812:11231   */\n    tag_78:\n        /* \"#utility.yul\":10978:10982   */\n      0x00\n        /* \"#utility.yul\":11016:11018   */\n      0x20\n        /* \"#utility.yul\":11005:11014   */\n      dup3\n        /* \"#utility.yul\":11001:11019   */\n      add\n        /* \"#utility.yul\":10993:11019   */\n      swap1\n      pop\n        /* \"#utility.yul\":11065:11074   */\n      dup2\n        /* \"#utility.yul\":11059:11063   */\n      dup2\n        /* \"#utility.yul\":11055:11075   */\n      sub\n        /* \"#utility.yul\":11051:11052   */\n      0x00\n        /* \"#utility.yul\":11040:11049   */\n      dup4\n        /* \"#utility.yul\":11036:11053   */\n      add\n        /* \"#utility.yul\":11029:11076   */\n      mstore\n        /* \"#utility.yul\":11093:11224   */\n      tag_388\n        /* \"#utility.yul\":11219:11223   */\n      dup2\n        /* \"#utility.yul\":11093:11224   */\n      tag_253\n      jump\t// in\n    tag_388:\n        /* \"#utility.yul\":11085:11224   */\n      swap1\n      pop\n        /* \"#utility.yul\":10812:11231   */\n      swap2\n      swap1\n      pop\n      jump\t// out\n        /* \"#utility.yul\":11237:11417   */\n    tag_84:\n        /* \"#utility.yul\":11285:11362   */\n      0x4e487b7100000000000000000000000000000000000000000000000000000000\n        /* \"#utility.yul\":11282:11283   */\n      0x00\n        /* \"#utility.yul\":11275:11363   */\n      mstore\n        /* \"#utility.yul\":11382:11386   */\n      0x32\n        /* \"#utility.yul\":11379:11380   */\n      0x04\n        /* \"#utility.yul\":11372:11387   */\n      mstore\n        /* \"#utility.yul\":11406:11410   */\n      0x24\n        /* \"#utility.yul\":11403:11404   */\n      0x00\n        /* \"#utility.yul\":11396:11411   */\n      revert\n        /* \"#utility.yul\":11423:11605   */\n    tag_254:\n        /* \"#utility.yul\":11563:11597   */\n      0x467261676d656e7420616d6f756e74206d75737420626520706f736974697665\n        /* \"#utility.yul\":11559:11560   */\n      0x00\n        /* \"#utility.yul\":11551:11557   */\n      dup3\n        /* \"#utility.yul\":11547:11561   */\n      add\n        /* \"#utility.yul\":11540:11598   */\n      mstore\n        /* \"#utility.yul\":11423:11605   */\n      pop\n      jump\t// out\n        /* \"#utility.yul\":11611:11977   */\n    tag_255:\n        /* \"#utility.yul\":11753:11756   */\n      0x00\n        /* \"#utility.yul\":11774:11841   */\n      tag_392\n        /* \"#utility.yul\":11838:11840   */\n      0x20\n        /* \"#utility.yul\":11833:11836   */\n      dup4\n        /* \"#utility.yul\":11774:11841   */\n      tag_247\n      jump\t// in\n    tag_392:\n        /* \"#utility.yul\":11767:11841   */\n      swap2\n      pop\n        /* \"#utility.yul\":11850:11943   */\n      tag_393\n        /* \"#utility.yul\":11939:11942   */\n      dup3\n        /* \"#utility.yul\":11850:11943   */\n      tag_254\n      jump\t// in\n    tag_393:\n        /* \"#utility.yul\":11968:11970   */\n      0x20\n        /* \"#utility.yul\":11963:11966   */\n      dup3\n        /* \"#utility.yul\":11959:11971   */\n      add\n        /* \"#utility.yul\":11952:11971   */\n      swap1\n      pop\n        /* \"#utility.yul\":11611:11977   */\n      swap2\n      swap1\n      pop\n      jump\t// out\n        /* \"#utility.yul\":11983:12402   */\n    tag_87:\n        /* \"#utility.yul\":12149:12153   */\n      0x00\n        /* \"#utility.yul\":12187:12189   */\n      0x20\n        /* \"#utility.yul\":12176:12185   */\n      dup3\n        /* \"#utility.yul\":12172:12190   */\n      add\n        /* \"#utility.yul\":12164:12190   */\n      swap1\n      pop\n        /* \"#utility.yul\":12236:12245   */\n      dup2\n        /* \"#utility.yul\":12230:12234   */\n      dup2\n        /* \"#utility.yul\":12226:12246   */\n      sub\n        /* \"#utility.yul\":12222:12223   */\n      0x00\n        /* \"#utility.yul\":12211:12220   */\n      dup4\n        /* \"#utility.yul\":12207:12224   */\n      add\n        /* \"#utility.yul\":12200:12247   */\n      mstore\n        /* \"#utility.yul\":12264:12395   */\n      tag_395\n        /* \"#utility.yul\":12390:12394   */\n      dup2\n        /* \"#utility.yul\":12264:12395   */\n      tag_255\n      jump\t// in\n    tag_395:\n        /* \"#utility.yul\":12256:12395   */\n      swap1\n      pop\n        /* \"#utility.yul\":11983:12402   */\n      swap2\n      swap1\n      pop\n      jump\t// out\n        /* \"#utility.yul\":12408:12588   */\n    tag_256:\n        /* \"#utility.yul\":12456:12533   */\n      0x4e487b7100000000000000000000000000000000000000000000000000000000\n        /* \"#utility.yul\":12453:12454   */\n      0x00\n        /* \"#utility.yul\":12446:12534   */\n      mstore\n        /* \"#utility.yul\":12553:12557   */\n      0x11\n        /* \"#utility.yul\":12550:12551   */\n      0x04\n        /* \"#utility.yul\":12543:12558   */\n      mstore\n        /* \"#utility.yul\":12577:12581   */\n      0x24\n        /* \"#utility.yul\":12574:12575   */\n      0x00\n        /* \"#utility.yul\":12567:12582   */\n      revert\n        /* \"#utility.yul\":12594:12785   */\n    tag_91:\n        /* \"#utility.yul\":12634:12637   */\n      0x00\n        /* \"#utility.yul\":12653:12673   */\n      tag_398\n        /* \"#utility.yul\":12671:12672   */\n      dup3\n        /* \"#utility.yul\":12653:12673   */\n      tag_229\n      jump\t// in\n    tag_398:\n        /* \"#utility.yul\":12648:12673   */\n      swap2\n      pop\n        /* \"#utility.yul\":12687:12707   */\n      tag_399\n        /* \"#utility.yul\":12705:12706   */\n      dup4\n        /* \"#utility.yul\":12687:12707   */\n      tag_229\n      jump\t// in\n    tag_399:\n        /* \"#utility.yul\":12682:12707   */\n      swap3\n      pop\n        /* \"#utility.yul\":12730:12731   */\n      dup3\n        /* \"#utility.yul\":12727:12728   */\n      dup3\n        /* \"#utility.yul\":12723:12732   */\n      add\n        /* \"#utility.yul\":12716:12732   */\n      swap1\n      pop\n        /* \"#utility.yul\":12751:12754   */\n      dup1\n        /* \"#utility.yul\":12748:12749   */\n      dup3\n        /* \"#utility.yul\":12745:12755   */\n      gt\n        /* \"#utility.yul\":12742:12778   */\n      iszero\n      tag_400\n      jumpi\n        /* \"#utility.yul\":12758:12776   */\n      tag_401\n      tag_256\n      jump\t// in\n    tag_401:\n        /* \"#utility.yul\":12742:12778   */\n    tag_400:\n        /* \"#utility.yul\":12594:12785   */\n      swap3\n      swap2\n      pop\n      pop\n      jump\t// out\n        /* \"#utility.yul\":12791:13011   */\n    tag_257:\n        /* \"#utility.yul\":12931:12965   */\n      0x546f74616c206d757374206d61746368206465706f736974656420616d6f756e\n        /* \"#utility.yul\":12927:12928   */\n      0x00\n        /* \"#utility.yul\":12919:12925   */\n      dup3\n        /* \"#utility.yul\":12915:12929   */\n      add\n        /* \"#utility.yul\":12908:12966   */\n      mstore\n        /* \"#utility.yul\":13000:13003   */\n      0x7400000000000000000000000000000000000000000000000000000000000000\n        /* \"#utility.yul\":12995:12997   */\n      0x20\n        /* \"#utility.yul\":12987:12993   */\n      dup3\n        /* \"#utility.yul\":12983:12998   */\n      add\n        /* \"#utility.yul\":12976:13004   */\n      mstore\n        /* \"#utility.yul\":12791:13011   */\n      pop\n      jump\t// out\n        /* \"#utility.yul\":13017:13383   */\n    tag_258:\n        /* \"#utility.yul\":13159:13162   */\n      0x00\n        /* \"#utility.yul\":13180:13247   */\n      tag_404\n        /* \"#utility.yul\":13244:13246   */\n      0x21\n        /* \"#utility.yul\":13239:13242   */\n      dup4\n        /* \"#utility.yul\":13180:13247   */\n      tag_247\n      jump\t// in\n    tag_404:\n        /* \"#utility.yul\":13173:13247   */\n      swap2\n      pop\n        /* \"#utility.yul\":13256:13349   */\n      tag_405\n        /* \"#utility.yul\":13345:13348   */\n      dup3\n        /* \"#utility.yul\":13256:13349   */\n      tag_257\n      jump\t// in\n    tag_405:\n        /* \"#utility.yul\":13374:13376   */\n      0x40\n        /* \"#utility.yul\":13369:13372   */\n      dup3\n        /* \"#utility.yul\":13365:13377   */\n      add\n        /* \"#utility.yul\":13358:13377   */\n      swap1\n      pop\n        /* \"#utility.yul\":13017:13383   */\n      swap2\n      swap1\n      pop\n      jump\t// out\n        /* \"#utility.yul\":13389:13808   */\n    tag_94:\n        /* \"#utility.yul\":13555:13559   */\n      0x00\n        /* \"#utility.yul\":13593:13595   */\n      0x20\n        /* \"#utility.yul\":13582:13591   */\n      dup3\n        /* \"#utility.yul\":13578:13596   */\n      add\n        /* \"#utility.yul\":13570:13596   */\n      swap1\n      pop\n        /* \"#utility.yul\":13642:13651   */\n      dup2\n        /* \"#utility.yul\":13636:13640   */\n      dup2\n        /* \"#utility.yul\":13632:13652   */\n      sub\n        /* \"#utility.yul\":13628:13629   */\n      0x00\n        /* \"#utility.yul\":13617:13626   */\n      dup4\n        /* \"#utility.yul\":13613:13630   */\n      add\n        /* \"#utility.yul\":13606:13653   */\n      mstore\n        /* \"#utility.yul\":13670:13801   */\n      tag_407\n        /* \"#utility.yul\":13796:13800   */\n      dup2\n        /* \"#utility.yul\":13670:13801   */\n      tag_258\n      jump\t// in\n    tag_407:\n        /* \"#utility.yul\":13662:13801   */\n      swap1\n      pop\n        /* \"#utility.yul\":13389:13808   */\n      swap2\n      swap1\n      pop\n      jump\t// out\n        /* \"#utility.yul\":13814:14146   */\n    tag_105:\n        /* \"#utility.yul\":13935:13939   */\n      0x00\n        /* \"#utility.yul\":13973:13975   */\n      0x40\n        /* \"#utility.yul\":13962:13971   */\n      dup3\n        /* \"#utility.yul\":13958:13976   */\n      add\n        /* \"#utility.yul\":13950:13976   */\n      swap1\n      pop\n        /* \"#utility.yul\":13986:14057   */\n      tag_409\n        /* \"#utility.yul\":14054:14055   */\n      0x00\n        /* \"#utility.yul\":14043:14052   */\n      dup4\n        /* \"#utility.yul\":14039:14056   */\n      add\n        /* \"#utility.yul\":14030:14036   */\n      dup6\n        /* \"#utility.yul\":13986:14057   */\n      tag_241\n      jump\t// in\n    tag_409:\n        /* \"#utility.yul\":14067:14139   */\n      tag_410\n        /* \"#utility.yul\":14135:14137   */\n      0x20\n        /* \"#utility.yul\":14124:14133   */\n      dup4\n        /* \"#utility.yul\":14120:14138   */\n      add\n        /* \"#utility.yul\":14111:14117   */\n      dup5\n        /* \"#utility.yul\":14067:14139   */\n      tag_221\n      jump\t// in\n    tag_410:\n        /* \"#utility.yul\":13814:14146   */\n      swap4\n      swap3\n      pop\n      pop\n      pop\n      jump\t// out\n        /* \"#utility.yul\":14152:14336   */\n    tag_259:\n        /* \"#utility.yul\":14251:14262   */\n      0x00\n        /* \"#utility.yul\":14285:14291   */\n      dup3\n        /* \"#utility.yul\":14280:14283   */\n      dup3\n        /* \"#utility.yul\":14273:14292   */\n      mstore\n        /* \"#utility.yul\":14325:14329   */\n      0x20\n        /* \"#utility.yul\":14320:14323   */\n      dup3\n        /* \"#utility.yul\":14316:14330   */\n      add\n        /* \"#utility.yul\":14301:14330   */\n      swap1\n      pop\n        /* \"#utility.yul\":14152:14336   */\n      swap3\n      swap2\n      pop\n      pop\n      jump\t// out\n        /* \"#utility.yul\":14342:14459   */\n    tag_260:\n        /* \"#utility.yul\":14451:14452   */\n      0x00\n        /* \"#utility.yul\":14448:14449   */\n      0x00\n        /* \"#utility.yul\":14441:14453   */\n      revert\n        /* \"#utility.yul\":14465:14564   */\n    tag_261:\n        /* \"#utility.yul\":14550:14556   */\n      dup3\n        /* \"#utility.yul\":14545:14548   */\n      dup2\n        /* \"#utility.yul\":14540:14543   */\n      dup4\n        /* \"#utility.yul\":14527:14557   */\n      calldatacopy\n        /* \"#utility.yul\":14465:14564   */\n      pop\n      pop\n      pop\n      jump\t// out\n        /* \"#utility.yul\":14600:15137   */\n    tag_262:\n        /* \"#utility.yul\":14728:14731   */\n      0x00\n        /* \"#utility.yul\":14749:14835   */\n      tag_415\n        /* \"#utility.yul\":14828:14834   */\n      dup4\n        /* \"#utility.yul\":14823:14826   */\n      dup6\n        /* \"#utility.yul\":14749:14835   */\n      tag_259\n      jump\t// in\n    tag_415:\n        /* \"#utility.yul\":14742:14835   */\n      swap4\n      pop\n        /* \"#utility.yul\":14859:14925   */\n      0x07ffffffffffffffffffffffffffffffffffffffffffffffffffffffffffffff\n        /* \"#utility.yul\":14851:14857   */\n      dup4\n        /* \"#utility.yul\":14848:14926   */\n      gt\n        /* \"#utility.yul\":14845:15010   */\n      iszero\n      tag_416\n      jumpi\n        /* \"#utility.yul\":14929:15008   */\n      tag_417\n      tag_260\n      jump\t// in\n    tag_417:\n        /* \"#utility.yul\":14845:15010   */\n    tag_416:\n        /* \"#utility.yul\":15041:15045   */\n      0x20\n        /* \"#utility.yul\":15033:15039   */\n      dup4\n        /* \"#utility.yul\":15029:15046   */\n      mul\n        /* \"#utility.yul\":15019:15046   */\n      swap3\n      pop\n        /* \"#utility.yul\":15056:15099   */\n      tag_418\n        /* \"#utility.yul\":15092:15098   */\n      dup4\n        /* \"#utility.yul\":15087:15090   */\n      dup6\n        /* \"#utility.yul\":15080:15085   */\n      dup5\n        /* \"#utility.yul\":15056:15099   */\n      tag_261\n      jump\t// in\n    tag_418:\n        /* \"#utility.yul\":15124:15130   */\n      dup3\n        /* \"#utility.yul\":15119:15122   */\n      dup5\n        /* \"#utility.yul\":15115:15131   */\n      add\n        /* \"#utility.yul\":15108:15131   */\n      swap1\n      pop\n        /* \"#utility.yul\":14600:15137   */\n      swap4\n      swap3\n      pop\n      pop\n      pop\n      jump\t// out\n        /* \"#utility.yul\":15143:15756   */\n    tag_110:\n        /* \"#utility.yul\":15352:15356   */\n      0x00\n        /* \"#utility.yul\":15390:15392   */\n      0x60\n        /* \"#utility.yul\":15379:15388   */\n      dup3\n        /* \"#utility.yul\":15375:15393   */\n      add\n        /* \"#utility.yul\":15367:15393   */\n      swap1\n      pop\n        /* \"#utility.yul\":15439:15448   */\n      dup2\n        /* \"#utility.yul\":15433:15437   */\n      dup2\n        /* \"#utility.yul\":15429:15449   */\n      sub\n        /* \"#utility.yul\":15425:15426   */\n      0x00\n        /* \"#utility.yul\":15414:15423   */\n      dup4\n        /* \"#utility.yul\":15410:15427   */\n      add\n        /* \"#utility.yul\":15403:15450   */\n      mstore\n        /* \"#utility.yul\":15467:15585   */\n      tag_420\n        /* \"#utility.yul\":15580:15584   */\n      dup2\n        /* \"#utility.yul\":15571:15577   */\n      dup7\n        /* \"#utility.yul\":15563:15569   */\n      dup9\n        /* \"#utility.yul\":15467:15585   */\n      tag_262\n      jump\t// in\n    tag_420:\n        /* \"#utility.yul\":15459:15585   */\n      swap1\n      pop\n        /* \"#utility.yul\":15595:15667   */\n      tag_421\n        /* \"#utility.yul\":15663:15665   */\n      0x20\n        /* \"#utility.yul\":15652:15661   */\n      dup4\n        /* \"#utility.yul\":15648:15666   */\n      add\n        /* \"#utility.yul\":15639:15645   */\n      dup6\n        /* \"#utility.yul\":15595:15667   */\n      tag_221\n      jump\t// in\n    tag_421:\n        /* \"#utility.yul\":15677:15749   */\n      tag_422\n        /* \"#utility.yul\":15745:15747   */\n      0x40\n        /* \"#utility.yul\":15734:15743   */\n      dup4\n        /* \"#utility.yul\":15730:15748   */\n      add\n        /* \"#utility.yul\":15721:15727   */\n      dup5\n        /* \"#utility.yul\":15677:15749   */\n      tag_241\n      jump\t// in\n    tag_422:\n        /* \"#utility.yul\":15143:15756   */\n      swap6\n      swap5\n      pop\n      pop\n      pop\n      pop\n      pop\n      jump\t// out\n        /* \"#utility.yul\":15762:15905   */\n    tag_263:\n        /* \"#utility.yul\":15819:15824   */\n      0x00\n        /* \"#utility.yul\":15850:15856   */\n      dup2\n        /* \"#utility.yul\":15844:15857   */\n      mload\n        /* \"#utility.yul\":15835:15857   */\n      swap1\n      pop\n        /* \"#utility.yul\":15866:15899   */\n      tag_424\n        /* \"#utility.yul\":15893:15898   */\n      dup2\n        /* \"#utility.yul\":15866:15899   */\n      tag_230\n      jump\t// in\n    tag_424:\n        /* \"#utility.yul\":15762:15905   */\n      swap3\n      swap2\n      pop\n      pop\n      jump\t// out\n        /* \"#utility.yul\":15911:16262   */\n    tag_124:\n        /* \"#utility.yul\":15981:15987   */\n      0x00\n        /* \"#utility.yul\":16030:16032   */\n      0x20\n        /* \"#utility.yul\":16018:16027   */\n      dup3\n        /* \"#utility.yul\":16009:16016   */\n      dup5\n        /* \"#utility.yul\":16005:16028   */\n      sub\n        /* \"#utility.yul\":16001:16033   */\n      slt\n        /* \"#utility.yul\":15998:16117   */\n      iszero\n      tag_426\n      jumpi\n        /* \"#utility.yul\":16036:16115   */\n      tag_427\n      tag_223\n      jump\t// in\n    tag_427:\n        /* \"#utility.yul\":15998:16117   */\n    tag_426:\n        /* \"#utility.yul\":16156:16157   */\n      0x00\n        /* \"#utility.yul\":16181:16245   */\n      tag_428\n        /* \"#utility.yul\":16237:16244   */\n      dup5\n        /* \"#utility.yul\":16228:16234   */\n      dup3\n        /* \"#utility.yul\":16217:16226   */\n      dup6\n        /* \"#utility.yul\":16213:16235   */\n      add\n        /* \"#utility.yul\":16181:16245   */\n      tag_263\n      jump\t// in\n    tag_428:\n        /* \"#utility.yul\":16171:16245   */\n      swap2\n      pop\n        /* \"#utility.yul\":16127:16255   */\n      pop\n        /* \"#utility.yul\":15911:16262   */\n      swap3\n      swap2\n      pop\n      pop\n      jump\t// out\n        /* \"#utility.yul\":16268:16439   */\n    tag_264:\n        /* \"#utility.yul\":16408:16431   */\n      0x4e6f20746f6b656e7320746f2077697468647261770000000000000000000000\n        /* \"#utility.yul\":16404:16405   */\n      0x00\n        /* \"#utility.yul\":16396:16402   */\n      dup3\n        /* \"#utility.yul\":16392:16406   */\n      add\n        /* \"#utility.yul\":16385:16432   */\n      mstore\n        /* \"#utility.yul\":16268:16439   */\n      pop\n      jump\t// out\n        /* \"#utility.yul\":16445:16811   */\n    tag_265:\n        /* \"#utility.yul\":16587:16590   */\n      0x00\n        /* \"#utility.yul\":16608:16675   */\n      tag_431\n        /* \"#utility.yul\":16672:16674   */\n      0x15\n        /* \"#utility.yul\":16667:16670   */\n      dup4\n        /* \"#utility.yul\":16608:16675   */\n      tag_247\n      jump\t// in\n    tag_431:\n        /* \"#utility.yul\":16601:16675   */\n      swap2\n      pop\n        /* \"#utility.yul\":16684:16777   */\n      tag_432\n        /* \"#utility.yul\":16773:16776   */\n      dup3\n        /* \"#utility.yul\":16684:16777   */\n      tag_264\n      jump\t// in\n    tag_432:\n        /* \"#utility.yul\":16802:16804   */\n      0x20\n        /* \"#utility.yul\":16797:16800   */\n      dup3\n        /* \"#utility.yul\":16793:16805   */\n      add\n        /* \"#utility.yul\":16786:16805   */\n      swap1\n      pop\n        /* \"#utility.yul\":16445:16811   */\n      swap2\n      swap1\n      pop\n      jump\t// out\n        /* \"#utility.yul\":16817:17236   */\n    tag_127:\n        /* \"#utility.yul\":16983:16987   */\n      0x00\n        /* \"#utility.yul\":17021:17023   */\n      0x20\n        /* \"#utility.yul\":17010:17019   */\n      dup3\n        /* \"#utility.yul\":17006:17024   */\n      add\n        /* \"#utility.yul\":16998:17024   */\n      swap1\n      pop\n        /* \"#utility.yul\":17070:17079   */\n      dup2\n        /* \"#utility.yul\":17064:17068   */\n      dup2\n        /* \"#utility.yul\":17060:17080   */\n      sub\n        /* \"#utility.yul\":17056:17057   */\n      0x00\n        /* \"#utility.yul\":17045:17054   */\n      dup4\n        /* \"#utility.yul\":17041:17058   */\n      add\n        /* \"#utility.yul\":17034:17081   */\n      mstore\n        /* \"#utility.yul\":17098:17229   */\n      tag_434\n        /* \"#utility.yul\":17224:17228   */\n      dup2\n        /* \"#utility.yul\":17098:17229   */\n      tag_265\n      jump\t// in\n    tag_434:\n        /* \"#utility.yul\":17090:17229   */\n      swap1\n      pop\n        /* \"#utility.yul\":16817:17236   */\n      swap2\n      swap1\n      pop\n      jump\t// out\n        /* \"#utility.yul\":17242:17574   */\n    tag_129:\n        /* \"#utility.yul\":17363:17367   */\n      0x00\n        /* \"#utility.yul\":17401:17403   */\n      0x40\n        /* \"#utility.yul\":17390:17399   */\n      dup3\n        /* \"#utility.yul\":17386:17404   */\n      add\n        /* \"#utility.yul\":17378:17404   */\n      swap1\n      pop\n        /* \"#utility.yul\":17414:17485   */\n      tag_436\n        /* \"#utility.yul\":17482:17483   */\n      0x00\n        /* \"#utility.yul\":17471:17480   */\n      dup4\n        /* \"#utility.yul\":17467:17484   */\n      add\n        /* \"#utility.yul\":17458:17464   */\n      dup6\n        /* \"#utility.yul\":17414:17485   */\n      tag_221\n      jump\t// in\n    tag_436:\n        /* \"#utility.yul\":17495:17567   */\n      tag_437\n        /* \"#utility.yul\":17563:17565   */\n      0x20\n        /* \"#utility.yul\":17552:17561   */\n      dup4\n        /* \"#utility.yul\":17548:17566   */\n      add\n        /* \"#utility.yul\":17539:17545   */\n      dup5\n        /* \"#utility.yul\":17495:17567   */\n      tag_241\n      jump\t// in\n    tag_437:\n        /* \"#utility.yul\":17242:17574   */\n      swap4\n      swap3\n      pop\n      pop\n      pop\n      jump\t// out\n        /* \"#utility.yul\":17580:17670   */\n    tag_266:\n        /* \"#utility.yul\":17614:17621   */\n      0x00\n        /* \"#utility.yul\":17657:17662   */\n      dup2\n        /* \"#utility.yul\":17650:17663   */\n      iszero\n        /* \"#utility.yul\":17643:17664   */\n      iszero\n        /* \"#utility.yul\":17632:17664   */\n      swap1\n      pop\n        /* \"#utility.yul\":17580:17670   */\n      swap2\n      swap1\n      pop\n      jump\t// out\n        /* \"#utility.yul\":17676:17792   */\n    tag_267:\n        /* \"#utility.yul\":17746:17767   */\n      tag_440\n        /* \"#utility.yul\":17761:17766   */\n      dup2\n        /* \"#utility.yul\":17746:17767   */\n      tag_266\n      jump\t// in\n    tag_440:\n        /* \"#utility.yul\":17739:17744   */\n      dup2\n        /* \"#utility.yul\":17736:17768   */\n      eq\n        /* \"#utility.yul\":17726:17786   */\n      tag_441\n      jumpi\n        /* \"#utility.yul\":17782:17783   */\n      0x00\n        /* \"#utility.yul\":17779:17780   */\n      0x00\n        /* \"#utility.yul\":17772:17784   */\n      revert\n        /* \"#utility.yul\":17726:17786   */\n    tag_441:\n        /* \"#utility.yul\":17676:17792   */\n      pop\n      jump\t// out\n        /* \"#utility.yul\":17798:17935   */\n    tag_268:\n        /* \"#utility.yul\":17852:17857   */\n      0x00\n        /* \"#utility.yul\":17883:17889   */\n      dup2\n        /* \"#utility.yul\":17877:17890   */\n      mload\n        /* \"#utility.yul\":17868:17890   */\n      swap1\n      pop\n        /* \"#utility.yul\":17899:17929   */\n      tag_443\n        /* \"#utility.yul\":17923:17928   */\n      dup2\n        /* \"#utility.yul\":17899:17929   */\n      tag_267\n      jump\t// in\n    tag_443:\n        /* \"#utility.yul\":17798:17935   */\n      swap3\n      swap2\n      pop\n      pop\n      jump\t// out\n        /* \"#utility.yul\":17941:18286   */\n    tag_133:\n        /* \"#utility.yul\":18008:18014   */\n      0x00\n        /* \"#utility.yul\":18057:18059   */\n      0x20\n        /* \"#utility.yul\":18045:18054   */\n      dup3\n        /* \"#utility.yul\":18036:18043   */\n      dup5\n        /* \"#utility.yul\":18032:18055   */\n      sub\n        /* \"#utility.yul\":18028:18060   */\n      slt\n        /* \"#utility.yul\":18025:18144   */\n      iszero\n      tag_445\n      jumpi\n        /* \"#utility.yul\":18063:18142   */\n      tag_446\n      tag_223\n      jump\t// in\n    tag_446:\n        /* \"#utility.yul\":18025:18144   */\n    tag_445:\n        /* \"#utility.yul\":18183:18184   */\n      0x00\n        /* \"#utility.yul\":18208:18269   */\n      tag_447\n        /* \"#utility.yul\":18261:18268   */\n      dup5\n        /* \"#utility.yul\":18252:18258   */\n      dup3\n        /* \"#utility.yul\":18241:18250   */\n      dup6\n        /* \"#utility.yul\":18237:18259   */\n      add\n        /* \"#utility.yul\":18208:18269   */\n      tag_268\n      jump\t// in\n    tag_447:\n        /* \"#utility.yul\":18198:18269   */\n      swap2\n      pop\n        /* \"#utility.yul\":18154:18279   */\n      pop\n        /* \"#utility.yul\":17941:18286   */\n      swap3\n      swap2\n      pop\n      pop\n      jump\t// out\n        /* \"#utility.yul\":18292:18467   */\n    tag_269:\n        /* \"#utility.yul\":18432:18459   */\n      0x456d657267656e6379207472616e73666572206661696c656400000000000000\n        /* \"#utility.yul\":18428:18429   */\n      0x00\n        /* \"#utility.yul\":18420:18426   */\n      dup3\n        /* \"#utility.yul\":18416:18430   */\n      add\n        /* \"#utility.yul\":18409:18460   */\n      mstore\n        /* \"#utility.yul\":18292:18467   */\n      pop\n      jump\t// out\n        /* \"#utility.yul\":18473:18839   */\n    tag_270:\n        /* \"#utility.yul\":18615:18618   */\n      0x00\n        /* \"#utility.yul\":18636:18703   */\n      tag_450\n        /* \"#utility.yul\":18700:18702   */\n      0x19\n        /* \"#utility.yul\":18695:18698   */\n      dup4\n        /* \"#utility.yul\":18636:18703   */\n      tag_247\n      jump\t// in\n    tag_450:\n        /* \"#utility.yul\":18629:18703   */\n      swap2\n      pop\n        /* \"#utility.yul\":18712:18805   */\n      tag_451\n        /* \"#utility.yul\":18801:18804   */\n      dup3\n        /* \"#utility.yul\":18712:18805   */\n      tag_269\n      jump\t// in\n    tag_451:\n        /* \"#utility.yul\":18830:18832   */\n      0x20\n        /* \"#utility.yul\":18825:18828   */\n      dup3\n        /* \"#utility.yul\":18821:18833   */\n      add\n        /* \"#utility.yul\":18814:18833   */\n      swap1\n      pop\n        /* \"#utility.yul\":18473:18839   */\n      swap2\n      swap1\n      pop\n      jump\t// out\n        /* \"#utility.yul\":18845:19264   */\n    tag_136:\n        /* \"#utility.yul\":19011:19015   */\n      0x00\n        /* \"#utility.yul\":19049:19051   */\n      0x20\n        /* \"#utility.yul\":19038:19047   */\n      dup3\n        /* \"#utility.yul\":19034:19052   */\n      add\n        /* \"#utility.yul\":19026:19052   */\n      swap1\n      pop\n        /* \"#utility.yul\":19098:19107   */\n      dup2\n        /* \"#utility.yul\":19092:19096   */\n      dup2\n        /* \"#utility.yul\":19088:19108   */\n      sub\n        /* \"#utility.yul\":19084:19085   */\n      0x00\n        /* \"#utility.yul\":19073:19082   */\n      dup4\n        /* \"#utility.yul\":19069:19086   */\n      add\n        /* \"#utility.yul\":19062:19109   */\n      mstore\n        /* \"#utility.yul\":19126:19257   */\n      tag_453\n        /* \"#utility.yul\":19252:19256   */\n      dup2\n        /* \"#utility.yul\":19126:19257   */\n      tag_270\n      jump\t// in\n    tag_453:\n        /* \"#utility.yul\":19118:19257   */\n      swap1\n      pop\n        /* \"#utility.yul\":18845:19264   */\n      swap2\n      swap1\n      pop\n      jump\t// out\n        /* \"#utility.yul\":19270:19449   */\n    tag_271:\n        /* \"#utility.yul\":19410:19441   */\n      0x546f74616c20616d6f756e74206d75737420626520706f736974697665000000\n        /* \"#utility.yul\":19406:19407   */\n      0x00\n        /* \"#utility.yul\":19398:19404   */\n      dup3\n        /* \"#utility.yul\":19394:19408   */\n      add\n        /* \"#utility.yul\":19387:19442   */\n      mstore\n        /* \"#utility.yul\":19270:19449   */\n      pop\n      jump\t// out\n        /* \"#utility.yul\":19455:19821   */\n    tag_272:\n        /* \"#utility.yul\":19597:19600   */\n      0x00\n        /* \"#utility.yul\":19618:19685   */\n      tag_456\n        /* \"#utility.yul\":19682:19684   */\n      0x1d\n        /* \"#utility.yul\":19677:19680   */\n      dup4\n        /* \"#utility.yul\":19618:19685   */\n      tag_247\n      jump\t// in\n    tag_456:\n        /* \"#utility.yul\":19611:19685   */\n      swap2\n      pop\n        /* \"#utility.yul\":19694:19787   */\n      tag_457\n        /* \"#utility.yul\":19783:19786   */\n      dup3\n        /* \"#utility.yul\":19694:19787   */\n      tag_271\n      jump\t// in\n    tag_457:\n        /* \"#utility.yul\":19812:19814   */\n      0x20\n        /* \"#utility.yul\":19807:19810   */\n      dup3\n        /* \"#utility.yul\":19803:19815   */\n      add\n        /* \"#utility.yul\":19796:19815   */\n      swap1\n      pop\n        /* \"#utility.yul\":19455:19821   */\n      swap2\n      swap1\n      pop\n      jump\t// out\n        /* \"#utility.yul\":19827:20246   */\n    tag_163:\n        /* \"#utility.yul\":19993:19997   */\n      0x00\n        /* \"#utility.yul\":20031:20033   */\n      0x20\n        /* \"#utility.yul\":20020:20029   */\n      dup3\n        /* \"#utility.yul\":20016:20034   */\n      add\n        /* \"#utility.yul\":20008:20034   */\n      swap1\n      pop\n        /* \"#utility.yul\":20080:20089   */\n      dup2\n        /* \"#utility.yul\":20074:20078   */\n      dup2\n        /* \"#utility.yul\":20070:20090   */\n      sub\n        /* \"#utility.yul\":20066:20067   */\n      0x00\n        /* \"#utility.yul\":20055:20064   */\n      dup4\n        /* \"#utility.yul\":20051:20068   */\n      add\n        /* \"#utility.yul\":20044:20091   */\n      mstore\n        /* \"#utility.yul\":20108:20239   */\n      tag_459\n        /* \"#utility.yul\":20234:20238   */\n      dup2\n        /* \"#utility.yul\":20108:20239   */\n      tag_272\n      jump\t// in\n    tag_459:\n        /* \"#utility.yul\":20100:20239   */\n      swap1\n      pop\n        /* \"#utility.yul\":19827:20246   */\n      swap2\n      swap1\n      pop\n      jump\t// out\n        /* \"#utility.yul\":20252:20694   */\n    tag_165:\n        /* \"#utility.yul\":20401:20405   */\n      0x00\n        /* \"#utility.yul\":20439:20441   */\n      0x60\n        /* \"#utility.yul\":20428:20437   */\n      dup3\n        /* \"#utility.yul\":20424:20442   */\n      add\n        /* \"#utility.yul\":20416:20442   */\n      swap1\n      pop\n        /* \"#utility.yul\":20452:20523   */\n      tag_461\n        /* \"#utility.yul\":20520:20521   */\n      0x00\n        /* \"#utility.yul\":20509:20518   */\n      dup4\n        /* \"#utility.yul\":20505:20522   */\n      add\n        /* \"#utility.yul\":20496:20502   */\n      dup7\n        /* \"#utility.yul\":20452:20523   */\n      tag_221\n      jump\t// in\n    tag_461:\n        /* \"#utility.yul\":20533:20605   */\n      tag_462\n        /* \"#utility.yul\":20601:20603   */\n      0x20\n        /* \"#utility.yul\":20590:20599   */\n      dup4\n        /* \"#utility.yul\":20586:20604   */\n      add\n        /* \"#utility.yul\":20577:20583   */\n      dup6\n        /* \"#utility.yul\":20533:20605   */\n      tag_221\n      jump\t// in\n    tag_462:\n        /* \"#utility.yul\":20615:20687   */\n      tag_463\n        /* \"#utility.yul\":20683:20685   */\n      0x40\n        /* \"#utility.yul\":20672:20681   */\n      dup4\n        /* \"#utility.yul\":20668:20686   */\n      add\n        /* \"#utility.yul\":20659:20665   */\n      dup5\n        /* \"#utility.yul\":20615:20687   */\n      tag_241\n      jump\t// in\n    tag_463:\n        /* \"#utility.yul\":20252:20694   */\n      swap5\n      swap4\n      pop\n      pop\n      pop\n      pop\n      jump\t// out\n        /* \"#utility.yul\":20700:20871   */\n    tag_273:\n        /* \"#utility.yul\":20840:20863   */\n      0x546f6b656e207472616e73666572206661696c65640000000000000000000000\n        /* \"#utility.yul\":20836:20837   */\n      0x00\n        /* \"#utility.yul\":20828:20834   */\n      dup3\n        /* \"#utility.yul\":20824:20838   */\n      add\n        /* \"#utility.yul\":20817:20864   */\n      mstore\n        /* \"#utility.yul\":20700:20871   */\n      pop\n      jump\t// out\n        /* \"#utility.yul\":20877:21243   */\n    tag_274:\n        /* \"#utility.yul\":21019:21022   */\n      0x00\n        /* \"#utility.yul\":21040:21107   */\n      tag_466\n        /* \"#utility.yul\":21104:21106   */\n      0x15\n        /* \"#utility.yul\":21099:21102   */\n      dup4\n        /* \"#utility.yul\":21040:21107   */\n      tag_247\n      jump\t// in\n    tag_466:\n        /* \"#utility.yul\":21033:21107   */\n      swap2\n      pop\n        /* \"#utility.yul\":21116:21209   */\n      tag_467\n        /* \"#utility.yul\":21205:21208   */\n      dup3\n        /* \"#utility.yul\":21116:21209   */\n      tag_273\n      jump\t// in\n    tag_467:\n        /* \"#utility.yul\":21234:21236   */\n      0x20\n        /* \"#utility.yul\":21229:21232   */\n      dup3\n        /* \"#utility.yul\":21225:21237   */\n      add\n        /* \"#utility.yul\":21218:21237   */\n      swap1\n      pop\n        /* \"#utility.yul\":20877:21243   */\n      swap2\n      swap1\n      pop\n      jump\t// out\n        /* \"#utility.yul\":21249:21668   */\n    tag_171:\n        /* \"#utility.yul\":21415:21419   */\n      0x00\n        /* \"#utility.yul\":21453:21455   */\n      0x20\n        /* \"#utility.yul\":21442:21451   */\n      dup3\n        /* \"#utility.yul\":21438:21456   */\n      add\n        /* \"#utility.yul\":21430:21456   */\n      swap1\n      pop\n        /* \"#utility.yul\":21502:21511   */\n      dup2\n        /* \"#utility.yul\":21496:21500   */\n      dup2\n        /* \"#utility.yul\":21492:21512   */\n      sub\n        /* \"#utility.yul\":21488:21489   */\n      0x00\n        /* \"#utility.yul\":21477:21486   */\n      dup4\n        /* \"#utility.yul\":21473:21490   */\n      add\n        /* \"#utility.yul\":21466:21513   */\n      mstore\n        /* \"#utility.yul\":21530:21661   */\n      tag_469\n        /* \"#utility.yul\":21656:21660   */\n      dup2\n        /* \"#utility.yul\":21530:21661   */\n      tag_274\n      jump\t// in\n    tag_469:\n        /* \"#utility.yul\":21522:21661   */\n      swap1\n      pop\n        /* \"#utility.yul\":21249:21668   */\n      swap2\n      swap1\n      pop\n      jump\t// out\n        /* \"#utility.yul\":21674:21844   */\n    tag_275:\n        /* \"#utility.yul\":21814:21836   */\n      0x506f6f6c20617070726f76616c206661696c6564000000000000000000000000\n        /* \"#utility.yul\":21810:21811   */\n      0x00\n        /* \"#utility.yul\":21802:21808   */\n      dup3\n        /* \"#utility.yul\":21798:21812   */\n      add\n        /* \"#utility.yul\":21791:21837   */\n      mstore\n        /* \"#utility.yul\":21674:21844   */\n      pop\n      jump\t// out\n        /* \"#utility.yul\":21850:22216   */\n    tag_276:\n        /* \"#utility.yul\":21992:21995   */\n      0x00\n        /* \"#utility.yul\":22013:22080   */\n      tag_472\n        /* \"#utility.yul\":22077:22079   */\n      0x14\n        /* \"#utility.yul\":22072:22075   */\n      dup4\n        /* \"#utility.yul\":22013:22080   */\n      tag_247\n      jump\t// in\n    tag_472:\n        /* \"#utility.yul\":22006:22080   */\n      swap2\n      pop\n        /* \"#utility.yul\":22089:22182   */\n      tag_473\n        /* \"#utility.yul\":22178:22181   */\n      dup3\n        /* \"#utility.yul\":22089:22182   */\n      tag_275\n      jump\t// in\n    tag_473:\n        /* \"#utility.yul\":22207:22209   */\n      0x20\n        /* \"#utility.yul\":22202:22205   */\n      dup3\n        /* \"#utility.yul\":22198:22210   */\n      add\n        /* \"#utility.yul\":22191:22210   */\n      swap1\n      pop\n        /* \"#utility.yul\":21850:22216   */\n      swap2\n      swap1\n      pop\n      jump\t// out\n        /* \"#utility.yul\":22222:22641   */\n    tag_190:\n        /* \"#utility.yul\":22388:22392   */\n      0x00\n        /* \"#utility.yul\":22426:22428   */\n      0x20\n        /* \"#utility.yul\":22415:22424   */\n      dup3\n        /* \"#utility.yul\":22411:22429   */\n      add\n        /* \"#utility.yul\":22403:22429   */\n      swap1\n      pop\n        /* \"#utility.yul\":22475:22484   */\n      dup2\n        /* \"#utility.yul\":22469:22473   */\n      dup2\n        /* \"#utility.yul\":22465:22485   */\n      sub\n        /* \"#utility.yul\":22461:22462   */\n      0x00\n        /* \"#utility.yul\":22450:22459   */\n      dup4\n        /* \"#utility.yul\":22446:22463   */\n      add\n        /* \"#utility.yul\":22439:22486   */\n      mstore\n        /* \"#utility.yul\":22503:22634   */\n      tag_475\n        /* \"#utility.yul\":22629:22633   */\n      dup2\n        /* \"#utility.yul\":22503:22634   */\n      tag_276\n      jump\t// in\n    tag_475:\n        /* \"#utility.yul\":22495:22634   */\n      swap1\n      pop\n        /* \"#utility.yul\":22222:22641   */\n      swap2\n      swap1\n      pop\n      jump\t// out\n        /* \"#utility.yul\":22647:22979   */\n    tag_194:\n        /* \"#utility.yul\":22768:22772   */\n      0x00\n        /* \"#utility.yul\":22806:22808   */\n      0x40\n        /* \"#utility.yul\":22795:22804   */\n      dup3\n        /* \"#utility.yul\":22791:22809   */\n      add\n        /* \"#utility.yul\":22783:22809   */\n      swap1\n      pop\n        /* \"#utility.yul\":22819:22890   */\n      tag_477\n        /* \"#utility.yul\":22887:22888   */\n      0x00\n        /* \"#utility.yul\":22876:22885   */\n      dup4\n        /* \"#utility.yul\":22872:22889   */\n      add\n        /* \"#utility.yul\":22863:22869   */\n      dup6\n        /* \"#utility.yul\":22819:22890   */\n      tag_241\n      jump\t// in\n    tag_477:\n        /* \"#utility.yul\":22900:22972   */\n      tag_478\n        /* \"#utility.yul\":22968:22970   */\n      0x20\n        /* \"#utility.yul\":22957:22966   */\n      dup4\n        /* \"#utility.yul\":22953:22971   */\n      add\n        /* \"#utility.yul\":22944:22950   */\n      dup5\n        /* \"#utility.yul\":22900:22972   */\n      tag_241\n      jump\t// in\n    tag_478:\n        /* \"#utility.yul\":22647:22979   */\n      swap4\n      swap3\n      pop\n      pop\n      pop\n      jump\t// out\n        /* \"#utility.yul\":22985:23488   */\n    tag_199:\n        /* \"#utility.yul\":23166:23170   */\n      0x00\n        /* \"#utility.yul\":23204:23206   */\n      0x40\n        /* \"#utility.yul\":23193:23202   */\n      dup3\n        /* \"#utility.yul\":23189:23207   */\n      add\n        /* \"#utility.yul\":23181:23207   */\n      swap1\n      pop\n        /* \"#utility.yul\":23253:23262   */\n      dup2\n        /* \"#utility.yul\":23247:23251   */\n      dup2\n        /* \"#utility.yul\":23243:23263   */\n      sub\n        /* \"#utility.yul\":23239:23240   */\n      0x00\n        /* \"#utility.yul\":23228:23237   */\n      dup4\n        /* \"#utility.yul\":23224:23241   */\n      add\n        /* \"#utility.yul\":23217:23264   */\n      mstore\n        /* \"#utility.yul\":23281:23399   */\n      tag_480\n        /* \"#utility.yul\":23394:23398   */\n      dup2\n        /* \"#utility.yul\":23385:23391   */\n      dup6\n        /* \"#utility.yul\":23377:23383   */\n      dup8\n        /* \"#utility.yul\":23281:23399   */\n      tag_262\n      jump\t// in\n    tag_480:\n        /* \"#utility.yul\":23273:23399   */\n      swap1\n      pop\n        /* \"#utility.yul\":23409:23481   */\n      tag_481\n        /* \"#utility.yul\":23477:23479   */\n      0x20\n        /* \"#utility.yul\":23466:23475   */\n      dup4\n        /* \"#utility.yul\":23462:23480   */\n      add\n        /* \"#utility.yul\":23453:23459   */\n      dup5\n        /* \"#utility.yul\":23409:23481   */\n      tag_241\n      jump\t// in\n    tag_481:\n        /* \"#utility.yul\":22985:23488   */\n      swap5\n      swap4\n      pop\n      pop\n      pop\n      pop\n      jump\t// out\n\n    auxdata: 0xa2646970667358221220b92b0aecdfcab2ab3b42bdbd3e7cdd18515e6820dbb1849eab488775e50893aa64736f6c634300081e0033\n}\n",
				"bytecode": {
					"linkReferences": {},
					"object": "610120604052348015610010575f5ffd5b506040516124da3803806124da8339818101604052810190610032919061050e565b335f73ffffffffffffffffffffffffffffffffffffffff168173ffffffffffffffffffffffffffffffffffffffff16036100a3575f6040517f1e4fbdf700000000000000000000000000000000000000000000000000000000815260040161009a9190610594565b60405180910390fd5b6100b2816103ef60201b60201c565b50600180819055505f73ffffffffffffffffffffffffffffffffffffffff168573ffffffffffffffffffffffffffffffffffffffff1603610128576040517f08c379a000000000000000000000000000000000000000000000000000000000815260040161011f90610607565b60405180910390fd5b5f73ffffffffffffffffffffffffffffffffffffffff168473ffffffffffffffffffffffffffffffffffffffff1603610196576040517f08c379a000000000000000000000000000000000000000000000000000000000815260040161018d9061066f565b60405180910390fd5b5f73ffffffffffffffffffffffffffffffffffffffff168373ffffffffffffffffffffffffffffffffffffffff1603610204576040517f08c379a00000000000000000000000000000000000000000000000000000000081526004016101fb906106d7565b60405180910390fd5b5f73ffffffffffffffffffffffffffffffffffffffff168273ffffffffffffffffffffffffffffffffffffffff1603610272576040517f08c379a00000000000000000000000000000000000000000000000000000000081526004016102699061073f565b60405180910390fd5b5f73ffffffffffffffffffffffffffffffffffffffff168173ffffffffffffffffffffffffffffffffffffffff16036102e0576040517f08c379a00000000000000000000000000000000000000000000000000000000081526004016102d7906107a7565b60405180910390fd5b8473ffffffffffffffffffffffffffffffffffffffff1660808173ffffffffffffffffffffffffffffffffffffffff16815250508373ffffffffffffffffffffffffffffffffffffffff1660a08173ffffffffffffffffffffffffffffffffffffffff16815250508273ffffffffffffffffffffffffffffffffffffffff1660c08173ffffffffffffffffffffffffffffffffffffffff16815250508173ffffffffffffffffffffffffffffffffffffffff1660e08173ffffffffffffffffffffffffffffffffffffffff16815250508073ffffffffffffffffffffffffffffffffffffffff166101008173ffffffffffffffffffffffffffffffffffffffff168152505050505050506107c5565b5f5f5f9054906101000a900473ffffffffffffffffffffffffffffffffffffffff169050815f5f6101000a81548173ffffffffffffffffffffffffffffffffffffffff021916908373ffffffffffffffffffffffffffffffffffffffff1602179055508173ffffffffffffffffffffffffffffffffffffffff168173ffffffffffffffffffffffffffffffffffffffff167f8be0079c531659141344cd1fd0a4f28419497f9722a3daafe3b4186f6b6457e060405160405180910390a35050565b5f5ffd5b5f73ffffffffffffffffffffffffffffffffffffffff82169050919050565b5f6104dd826104b4565b9050919050565b6104ed816104d3565b81146104f7575f5ffd5b50565b5f81519050610508816104e4565b92915050565b5f5f5f5f5f60a08688031215610527576105266104b0565b5b5f610534888289016104fa565b9550506020610545888289016104fa565b9450506040610556888289016104fa565b9350506060610567888289016104fa565b9250506080610578888289016104fa565b9150509295509295909350565b61058e816104d3565b82525050565b5f6020820190506105a75f830184610585565b92915050565b5f82825260208201905092915050565b7f496e76616c696420746f6b656e206164647265737300000000000000000000005f82015250565b5f6105f16015836105ad565b91506105fc826105bd565b602082019050919050565b5f6020820190508181035f83015261061e816105e5565b9050919050565b7f496e76616c696420506f6f6c41206164647265737300000000000000000000005f82015250565b5f6106596015836105ad565b915061066482610625565b602082019050919050565b5f6020820190508181035f8301526106868161064d565b9050919050565b7f496e76616c696420506f6f6c42206164647265737300000000000000000000005f82015250565b5f6106c16015836105ad565b91506106cc8261068d565b602082019050919050565b5f6020820190508181035f8301526106ee816106b5565b9050919050565b7f496e76616c696420506f6f6c43206164647265737300000000000000000000005f82015250565b5f6107296015836105ad565b9150610734826106f5565b602082019050919050565b5f6020820190508181035f8301526107568161071d565b9050919050565b7f496e76616c696420506f6f6c44206164647265737300000000000000000000005f82015250565b5f6107916015836105ad565b915061079c8261075d565b602082019050919050565b5f6020820190508181035f8301526107be81610785565b9050919050565b60805160a05160c05160e05161010051611c686108725f395f818161024f015281816105290152818161071c0152610c9201525f8181610501015281816106ca01528181610c6a0152610e8601525f81816104d10152818161067801528181610c3a0152610ee301525f81816104a10152818161062601528181610c0a0152610ebf01525f818161077a0152818161085601528181610aef01528181610cb80152610f8b0152611c685ff3fe608060405234801561000f575f5ffd5b50600436106100cd575f3560e01c8063a0f4a1281161008a578063cbbf425f11610064578063cbbf425f146101d7578063d4a2aa33146101f5578063f2fde38b14610213578063fc0c546a1461022f576100cd565b8063a0f4a1281461016d578063c39111d414610189578063c6c62390146101a7576100cd565b80631155a2a4146100d15780634b8323e7146100ef578063673a2a1f1461010b5780636ff1c9bc14610129578063715018a6146101455780638da5cb5b1461014f575b5f5ffd5b6100d961024d565b6040516100e691906111ac565b60405180910390f35b6101096004803603810190610104919061128b565b610271565b005b610113610611565b60405161012091906113b4565b60405180910390f35b610143600480360381019061013e91906113cd565b61076f565b005b61014d610932565b005b610157610945565b60405161016491906111ac565b60405180910390f35b610187600480360381019061018291906113f8565b61096c565b005b610191610e84565b60405161019e91906111ac565b60405180910390f35b6101c160048036038101906101bc9190611469565b610ea8565b6040516101ce91906114a3565b60405180910390f35b6101df610ebd565b6040516101ec91906111ac565b60405180910390f35b6101fd610ee1565b60405161020a91906111ac565b60405180910390f35b61022d600480360381019061022891906113cd565b610f05565b005b610237610f89565b6040516102449190611517565b60405180910390f35b7f000000000000000000000000000000000000000000000000000000000000000081565b610279610fad565b6001811015801561028b575060048111155b6102ca576040517f08c379a00000000000000000000000000000000000000000000000000000000081526004016102c19061158a565b60405180910390fd5b80858590501461030f576040517f08c379a0000000000000000000000000000000000000000000000000000000008152600401610306906115f2565b60405180910390fd5b5f73ffffffffffffffffffffffffffffffffffffffff168273ffffffffffffffffffffffffffffffffffffffff160361037d576040517f08c379a00000000000000000000000000000000000000000000000000000000081526004016103749061165a565b60405180910390fd5b5f5f5f90505b8686905081101561041d575f8787838181106103a2576103a1611678565b5b90506020020135116103e9576040517f08c379a00000000000000000000000000000000000000000000000000000000081526004016103e0906116ef565b60405180910390fd5b8686828181106103fc576103fb611678565b5b905060200201358261040e919061173a565b91508080600101915050610383565b5060025f8581526020019081526020015f20548114610471576040517f08c379a0000000000000000000000000000000000000000000000000000000008152600401610468906117dd565b60405180910390fd5b5f60025f8681526020019081526020015f20819055505f5f90505b868690508110156105c2575f5f82036104c7577f0000000000000000000000000000000000000000000000000000000000000000905061054d565b600182036104f7577f0000000000000000000000000000000000000000000000000000000000000000905061054c565b60028203610527577f0000000000000000000000000000000000000000000000000000000000000000905061054b565b7f000000000000000000000000000000000000000000000000000000000000000090505b5b5b8073ffffffffffffffffffffffffffffffffffffffff1662f714ce87876040518363ffffffff1660e01b81526004016105879291906117fb565b5f604051808303815f87803b15801561059e575f5ffd5b505af11580156105b0573d5f5f3e3d5ffd5b5050505050808060010191505061048c565b50837f62e4797a97126a0126333b9878ae0d13e7b21aad811ca49e900e6106ddd66d8d878786866040516105f9949392919061189a565b60405180910390a25061060a610ff3565b5050505050565b61061961114b565b60405180608001604052807f000000000000000000000000000000000000000000000000000000000000000073ffffffffffffffffffffffffffffffffffffffff1673ffffffffffffffffffffffffffffffffffffffff1681526020017f000000000000000000000000000000000000000000000000000000000000000073ffffffffffffffffffffffffffffffffffffffff1673ffffffffffffffffffffffffffffffffffffffff1681526020017f000000000000000000000000000000000000000000000000000000000000000073ffffffffffffffffffffffffffffffffffffffff1673ffffffffffffffffffffffffffffffffffffffff1681526020017f000000000000000000000000000000000000000000000000000000000000000073ffffffffffffffffffffffffffffffffffffffff1673ffffffffffffffffffffffffffffffffffffffff16815250905090565b610777610ffc565b5f7f000000000000000000000000000000000000000000000000000000000000000073ffffffffffffffffffffffffffffffffffffffff166370a08231306040518263ffffffff1660e01b81526004016107d191906111ac565b602060405180830381865afa1580156107ec573d5f5f3e3d5ffd5b505050506040513d601f19601f8201168201806040525081019061081091906118ec565b90505f8111610854576040517f08c379a000000000000000000000000000000000000000000000000000000000815260040161084b90611961565b60405180910390fd5b7f000000000000000000000000000000000000000000000000000000000000000073ffffffffffffffffffffffffffffffffffffffff1663a9059cbb83836040518363ffffffff1660e01b81526004016108af92919061197f565b6020604051808303815f875af11580156108cb573d5f5f3e3d5ffd5b505050506040513d601f19601f820116820180604052508101906108ef91906119db565b61092e576040517f08c379a000000000000000000000000000000000000000000000000000000000815260040161092590611a50565b60405180910390fd5b5050565b61093a610ffc565b6109435f611083565b565b5f5f5f9054906101000a900473ffffffffffffffffffffffffffffffffffffffff16905090565b610974610fad565b60018110158015610986575060048111155b6109c5576040517f08c379a00000000000000000000000000000000000000000000000000000000081526004016109bc9061158a565b60405180910390fd5b808484905014610a0a576040517f08c379a0000000000000000000000000000000000000000000000000000000008152600401610a01906115f2565b60405180910390fd5b5f5f5f90505b85859050811015610aaa575f868683818110610a2f57610a2e611678565b5b9050602002013511610a76576040517f08c379a0000000000000000000000000000000000000000000000000000000008152600401610a6d906116ef565b60405180910390fd5b858582818110610a8957610a88611678565b5b9050602002013582610a9b919061173a565b91508080600101915050610a10565b505f8111610aed576040517f08c379a0000000000000000000000000000000000000000000000000000000008152600401610ae490611ab8565b60405180910390fd5b7f000000000000000000000000000000000000000000000000000000000000000073ffffffffffffffffffffffffffffffffffffffff166323b872dd3330846040518463ffffffff1660e01b8152600401610b4a93929190611ad6565b6020604051808303815f875af1158015610b66573d5f5f3e3d5ffd5b505050506040513d601f19601f82011682018060405250810190610b8a91906119db565b610bc9576040517f08c379a0000000000000000000000000000000000000000000000000000000008152600401610bc090611b55565b60405180910390fd5b8060025f8581526020019081526020015f205f828254610be9919061173a565b925050819055505f5f90505b85859050811015610e38575f5f8203610c30577f00000000000000000000000000000000000000000000000000000000000000009050610cb6565b60018203610c60577f00000000000000000000000000000000000000000000000000000000000000009050610cb5565b60028203610c90577f00000000000000000000000000000000000000000000000000000000000000009050610cb4565b7f000000000000000000000000000000000000000000000000000000000000000090505b5b5b7f000000000000000000000000000000000000000000000000000000000000000073ffffffffffffffffffffffffffffffffffffffff1663095ea7b382898986818110610d0657610d05611678565b5b905060200201356040518363ffffffff1660e01b8152600401610d2a92919061197f565b6020604051808303815f875af1158015610d46573d5f5f3e3d5ffd5b505050506040513d601f19601f82011682018060405250810190610d6a91906119db565b610da9576040517f08c379a0000000000000000000000000000000000000000000000000000000008152600401610da090611bbd565b60405180910390fd5b8073ffffffffffffffffffffffffffffffffffffffff1663e2bbb158888885818110610dd857610dd7611678565b5b90506020020135876040518363ffffffff1660e01b8152600401610dfd929190611bdb565b5f604051808303815f87803b158015610e14575f5ffd5b505af1158015610e26573d5f5f3e3d5ffd5b50505050508080600101915050610bf5565b50827fb12ce7c92e7d614d3d6966bb36d8b8950883e5133d3b4da997a1dcf11e6ce160868685604051610e6d93929190611c02565b60405180910390a250610e7e610ff3565b50505050565b7f000000000000000000000000000000000000000000000000000000000000000081565b6002602052805f5260405f205f915090505481565b7f000000000000000000000000000000000000000000000000000000000000000081565b7f000000000000000000000000000000000000000000000000000000000000000081565b610f0d610ffc565b5f73ffffffffffffffffffffffffffffffffffffffff168173ffffffffffffffffffffffffffffffffffffffff1603610f7d575f6040517f1e4fbdf7000000000000000000000000000000000000000000000000000000008152600401610f7491906111ac565b60405180910390fd5b610f8681611083565b50565b7f000000000000000000000000000000000000000000000000000000000000000081565b600260015403610fe9576040517f3ee5aeb500000000000000000000000000000000000000000000000000000000815260040160405180910390fd5b6002600181905550565b60018081905550565b611004611144565b73ffffffffffffffffffffffffffffffffffffffff16611022610945565b73ffffffffffffffffffffffffffffffffffffffff161461108157611045611144565b6040517f118cdaa700000000000000000000000000000000000000000000000000000000815260040161107891906111ac565b60405180910390fd5b565b5f5f5f9054906101000a900473ffffffffffffffffffffffffffffffffffffffff169050815f5f6101000a81548173ffffffffffffffffffffffffffffffffffffffff021916908373ffffffffffffffffffffffffffffffffffffffff1602179055508173ffffffffffffffffffffffffffffffffffffffff168173ffffffffffffffffffffffffffffffffffffffff167f8be0079c531659141344cd1fd0a4f28419497f9722a3daafe3b4186f6b6457e060405160405180910390a35050565b5f33905090565b6040518060800160405280600490602082028036833780820191505090505090565b5f73ffffffffffffffffffffffffffffffffffffffff82169050919050565b5f6111968261116d565b9050919050565b6111a68161118c565b82525050565b5f6020820190506111bf5f83018461119d565b92915050565b5f5ffd5b5f5ffd5b5f5ffd5b5f5ffd5b5f5ffd5b5f5f83601f8401126111ee576111ed6111cd565b5b8235905067ffffffffffffffff81111561120b5761120a6111d1565b5b602083019150836020820283011115611227576112266111d5565b5b9250929050565b5f819050919050565b6112408161122e565b811461124a575f5ffd5b50565b5f8135905061125b81611237565b92915050565b61126a8161118c565b8114611274575f5ffd5b50565b5f8135905061128581611261565b92915050565b5f5f5f5f5f608086880312156112a4576112a36111c5565b5b5f86013567ffffffffffffffff8111156112c1576112c06111c9565b5b6112cd888289016111d9565b955095505060206112e08882890161124d565b93505060406112f188828901611277565b92505060606113028882890161124d565b9150509295509295909350565b5f60049050919050565b5f81905092915050565b5f819050919050565b6113358161118c565b82525050565b5f611346838361132c565b60208301905092915050565b5f602082019050919050565b6113678161130f565b6113718184611319565b925061137c82611323565b805f5b838110156113ac578151611393878261133b565b965061139e83611352565b92505060018101905061137f565b505050505050565b5f6080820190506113c75f83018461135e565b92915050565b5f602082840312156113e2576113e16111c5565b5b5f6113ef84828501611277565b91505092915050565b5f5f5f5f606085870312156114105761140f6111c5565b5b5f85013567ffffffffffffffff81111561142d5761142c6111c9565b5b611439878288016111d9565b9450945050602061144c8782880161124d565b925050604061145d8782880161124d565b91505092959194509250565b5f6020828403121561147e5761147d6111c5565b5b5f61148b8482850161124d565b91505092915050565b61149d8161122e565b82525050565b5f6020820190506114b65f830184611494565b92915050565b5f819050919050565b5f6114df6114da6114d58461116d565b6114bc565b61116d565b9050919050565b5f6114f0826114c5565b9050919050565b5f611501826114e6565b9050919050565b611511816114f7565b82525050565b5f60208201905061152a5f830184611508565b92915050565b5f82825260208201905092915050565b7f4c6576656c206d75737420626520312d340000000000000000000000000000005f82015250565b5f611574601183611530565b915061157f82611540565b602082019050919050565b5f6020820190508181035f8301526115a181611568565b9050919050565b7f467261676d656e7420636f756e74206d757374206d61746368206c6576656c005f82015250565b5f6115dc601f83611530565b91506115e7826115a8565b602082019050919050565b5f6020820190508181035f830152611609816115d0565b9050919050565b7f496e76616c696420737465616c746820616464726573730000000000000000005f82015250565b5f611644601783611530565b915061164f82611610565b602082019050919050565b5f6020820190508181035f83015261167181611638565b9050919050565b7f4e487b71000000000000000000000000000000000000000000000000000000005f52603260045260245ffd5b7f467261676d656e7420616d6f756e74206d75737420626520706f7369746976655f82015250565b5f6116d9602083611530565b91506116e4826116a5565b602082019050919050565b5f6020820190508181035f830152611706816116cd565b9050919050565b7f4e487b71000000000000000000000000000000000000000000000000000000005f52601160045260245ffd5b5f6117448261122e565b915061174f8361122e565b92508282019050808211156117675761176661170d565b5b92915050565b7f546f74616c206d757374206d61746368206465706f736974656420616d6f756e5f8201527f7400000000000000000000000000000000000000000000000000000000000000602082015250565b5f6117c7602183611530565b91506117d28261176d565b604082019050919050565b5f6020820190508181035f8301526117f4816117bb565b9050919050565b5f60408201905061180e5f830185611494565b61181b602083018461119d565b9392505050565b5f82825260208201905092915050565b5f5ffd5b82818337505050565b5f61184a8385611822565b93507f07ffffffffffffffffffffffffffffffffffffffffffffffffffffffffffffff83111561187d5761187c611832565b5b60208302925061188e838584611836565b82840190509392505050565b5f6060820190508181035f8301526118b381868861183f565b90506118c2602083018561119d565b6118cf6040830184611494565b95945050505050565b5f815190506118e681611237565b92915050565b5f60208284031215611901576119006111c5565b5b5f61190e848285016118d8565b91505092915050565b7f4e6f20746f6b656e7320746f20776974686472617700000000000000000000005f82015250565b5f61194b601583611530565b915061195682611917565b602082019050919050565b5f6020820190508181035f8301526119788161193f565b9050919050565b5f6040820190506119925f83018561119d565b61199f6020830184611494565b9392505050565b5f8115159050919050565b6119ba816119a6565b81146119c4575f5ffd5b50565b5f815190506119d5816119b1565b92915050565b5f602082840312156119f0576119ef6111c5565b5b5f6119fd848285016119c7565b91505092915050565b7f456d657267656e6379207472616e73666572206661696c6564000000000000005f82015250565b5f611a3a601983611530565b9150611a4582611a06565b602082019050919050565b5f6020820190508181035f830152611a6781611a2e565b9050919050565b7f546f74616c20616d6f756e74206d75737420626520706f7369746976650000005f82015250565b5f611aa2601d83611530565b9150611aad82611a6e565b602082019050919050565b5f6020820190508181035f830152611acf81611a96565b9050919050565b5f606082019050611ae95f83018661119d565b611af6602083018561119d565b611b036040830184611494565b949350505050565b7f546f6b656e207472616e73666572206661696c656400000000000000000000005f82015250565b5f611b3f601583611530565b9150611b4a82611b0b565b602082019050919050565b5f6020820190508181035f830152611b6c81611b33565b9050919050565b7f506f6f6c20617070726f76616c206661696c65640000000000000000000000005f82015250565b5f611ba7601483611530565b9150611bb282611b73565b602082019050919050565b5f6020820190508181035f830152611bd481611b9b565b9050919050565b5f604082019050611bee5f830185611494565b611bfb6020830184611494565b9392505050565b5f6040820190508181035f830152611c1b81858761183f565b9050611c2a6020830184611494565b94935050505056fea2646970667358221220b92b0aecdfcab2ab3b42bdbd3e7cdd18515e6820dbb1849eab488775e50893aa64736f6c634300081e0033",
					"opcodes": "PUSH2 0x120 PUSH1 0x40 MSTORE CALLVALUE DUP1 ISZERO PUSH2 0x10 JUMPI PUSH0 PUSH0 REVERT JUMPDEST POP PUSH1 0x40 MLOAD PUSH2 0x24DA CODESIZE SUB DUP1 PUSH2 0x24DA DUP4 CODECOPY DUP2 DUP2 ADD PUSH1 0x40 MSTORE DUP2 ADD SWAP1 PUSH2 0x32 SWAP2 SWAP1 PUSH2 0x50E JUMP JUMPDEST CALLER PUSH0 PUSH20 0xFFFFFFFFFFFFFFFFFFFFFFFFFFFFFFFFFFFFFFFF AND DUP2 PUSH20 0xFFFFFFFFFFFFFFFFFFFFFFFFFFFFFFFFFFFFFFFF AND SUB PUSH2 0xA3 JUMPI PUSH0 PUSH1 0x40 MLOAD PUSH32 0x1E4FBDF700000000000000000000000000000000000000000000000000000000 DUP2 MSTORE PUSH1 0x4 ADD PUSH2 0x9A SWAP2 SWAP1 PUSH2 0x594 JUMP JUMPDEST PUSH1 0x40 MLOAD DUP1 SWAP2 SUB SWAP1 REVERT JUMPDEST PUSH2 0xB2 DUP2 PUSH2 0x3EF PUSH1 0x20 SHL PUSH1 0x20 SHR JUMP JUMPDEST POP PUSH1 0x1 DUP1 DUP2 SWAP1 SSTORE POP PUSH0 PUSH20 0xFFFFFFFFFFFFFFFFFFFFFFFFFFFFFFFFFFFFFFFF AND DUP6 PUSH20 0xFFFFFFFFFFFFFFFFFFFFFFFFFFFFFFFFFFFFFFFF AND SUB PUSH2 0x128 JUMPI PUSH1 0x40 MLOAD PUSH32 0x8C379A000000000000000000000000000000000000000000000000000000000 DUP2 MSTORE PUSH1 0x4 ADD PUSH2 0x11F SWAP1 PUSH2 0x607 JUMP JUMPDEST PUSH1 0x40 MLOAD DUP1 SWAP2 SUB SWAP1 REVERT JUMPDEST PUSH0 PUSH20 0xFFFFFFFFFFFFFFFFFFFFFFFFFFFFFFFFFFFFFFFF AND DUP5 PUSH20 0xFFFFFFFFFFFFFFFFFFFFFFFFFFFFFFFFFFFFFFFF AND SUB PUSH2 0x196 JUMPI PUSH1 0x40 MLOAD PUSH32 0x8C379A000000000000000000000000000000000000000000000000000000000 DUP2 MSTORE PUSH1 0x4 ADD PUSH2 0x18D SWAP1 PUSH2 0x66F JUMP JUMPDEST PUSH1 0x40 MLOAD DUP1 SWAP2 SUB SWAP1 REVERT JUMPDEST PUSH0 PUSH20 0xFFFFFFFFFFFFFFFFFFFFFFFFFFFFFFFFFFFFFFFF AND DUP4 PUSH20 0xFFFFFFFFFFFFFFFFFFFFFFFFFFFFFFFFFFFFFFFF AND SUB PUSH2 0x204 JUMPI PUSH1 0x40 MLOAD PUSH32 0x8C379A000000000000000000000000000000000000000000000000000000000 DUP2 MSTORE PUSH1 0x4 ADD PUSH2 0x1FB SWAP1 PUSH2 0x6D7 JUMP JUMPDEST PUSH1 0x40 MLOAD DUP1 SWAP2 SUB SWAP1 REVERT JUMPDEST PUSH0 PUSH20 0xFFFFFFFFFFFFFFFFFFFFFFFFFFFFFFFFFFFFFFFF AND DUP3 PUSH20 0xFFFFFFFFFFFFFFFFFFFFFFFFFFFFFFFFFFFFFFFF AND SUB PUSH2 0x272 JUMPI PUSH1 0x40 MLOAD PUSH32 0x8C379A000000000000000000000000000000000000000000000000000000000 DUP2 MSTORE PUSH1 0x4 ADD PUSH2 0x269 SWAP1 PUSH2 0x73F JUMP JUMPDEST PUSH1 0x40 MLOAD DUP1 SWAP2 SUB SWAP1 REVERT JUMPDEST PUSH0 PUSH20 0xFFFFFFFFFFFFFFFFFFFFFFFFFFFFFFFFFFFFFFFF AND DUP2 PUSH20 0xFFFFFFFFFFFFFFFFFFFFFFFFFFFFFFFFFFFFFFFF AND SUB PUSH2 0x2E0 JUMPI PUSH1 0x40 MLOAD PUSH32 0x8C379A000000000000000000000000000000000000000000000000000000000 DUP2 MSTORE PUSH1 0x4 ADD PUSH2 0x2D7 SWAP1 PUSH2 0x7A7 JUMP JUMPDEST PUSH1 0x40 MLOAD DUP1 SWAP2 SUB SWAP1 REVERT JUMPDEST DUP5 PUSH20 0xFFFFFFFFFFFFFFFFFFFFFFFFFFFFFFFFFFFFFFFF AND PUSH1 0x80 DUP2 PUSH20 0xFFFFFFFFFFFFFFFFFFFFFFFFFFFFFFFFFFFFFFFF AND DUP2 MSTORE POP POP DUP4 PUSH20 0xFFFFFFFFFFFFFFFFFFFFFFFFFFFFFFFFFFFFFFFF AND PUSH1 0xA0 DUP2 PUSH20 0xFFFFFFFFFFFFFFFFFFFFFFFFFFFFFFFFFFFFFFFF AND DUP2 MSTORE POP POP DUP3 PUSH20 0xFFFFFFFFFFFFFFFFFFFFFFFFFFFFFFFFFFFFFFFF AND PUSH1 0xC0 DUP2 PUSH20 0xFFFFFFFFFFFFFFFFFFFFFFFFFFFFFFFFFFFFFFFF AND DUP2 MSTORE POP POP DUP2 PUSH20 0xFFFFFFFFFFFFFFFFFFFFFFFFFFFFFFFFFFFFFFFF AND PUSH1 0xE0 DUP2 PUSH20 0xFFFFFFFFFFFFFFFFFFFFFFFFFFFFFFFFFFFFFFFF AND DUP2 MSTORE POP POP DUP1 PUSH20 0xFFFFFFFFFFFFFFFFFFFFFFFFFFFFFFFFFFFFFFFF AND PUSH2 0x100 DUP2 PUSH20 0xFFFFFFFFFFFFFFFFFFFFFFFFFFFFFFFFFFFFFFFF AND DUP2 MSTORE POP POP POP POP POP POP POP PUSH2 0x7C5 JUMP JUMPDEST PUSH0 PUSH0 PUSH0 SWAP1 SLOAD SWAP1 PUSH2 0x100 EXP SWAP1 DIV PUSH20 0xFFFFFFFFFFFFFFFFFFFFFFFFFFFFFFFFFFFFFFFF AND SWAP1 POP DUP2 PUSH0 PUSH0 PUSH2 0x100 EXP DUP2 SLOAD DUP2 PUSH20 0xFFFFFFFFFFFFFFFFFFFFFFFFFFFFFFFFFFFFFFFF MUL NOT AND SWAP1 DUP4 PUSH20 0xFFFFFFFFFFFFFFFFFFFFFFFFFFFFFFFFFFFFFFFF AND MUL OR SWAP1 SSTORE POP DUP2 PUSH20 0xFFFFFFFFFFFFFFFFFFFFFFFFFFFFFFFFFFFFFFFF AND DUP2 PUSH20 0xFFFFFFFFFFFFFFFFFFFFFFFFFFFFFFFFFFFFFFFF AND PUSH32 0x8BE0079C531659141344CD1FD0A4F28419497F9722A3DAAFE3B4186F6B6457E0 PUSH1 0x40 MLOAD PUSH1 0x40 MLOAD DUP1 SWAP2 SUB SWAP1 LOG3 POP POP JUMP JUMPDEST PUSH0 PUSH0 REVERT JUMPDEST PUSH0 PUSH20 0xFFFFFFFFFFFFFFFFFFFFFFFFFFFFFFFFFFFFFFFF DUP3 AND SWAP1 POP SWAP2 SWAP1 POP JUMP JUMPDEST PUSH0 PUSH2 0x4DD DUP3 PUSH2 0x4B4 JUMP JUMPDEST SWAP1 POP SWAP2 SWAP1 POP JUMP JUMPDEST PUSH2 0x4ED DUP2 PUSH2 0x4D3 JUMP JUMPDEST DUP2 EQ PUSH2 0x4F7 JUMPI PUSH0 PUSH0 REVERT JUMPDEST POP JUMP JUMPDEST PUSH0 DUP2 MLOAD SWAP1 POP PUSH2 0x508 DUP2 PUSH2 0x4E4 JUMP JUMPDEST SWAP3 SWAP2 POP POP JUMP JUMPDEST PUSH0 PUSH0 PUSH0 PUSH0 PUSH0 PUSH1 0xA0 DUP7 DUP9 SUB SLT ISZERO PUSH2 0x527 JUMPI PUSH2 0x526 PUSH2 0x4B0 JUMP JUMPDEST JUMPDEST PUSH0 PUSH2 0x534 DUP9 DUP3 DUP10 ADD PUSH2 0x4FA JUMP JUMPDEST SWAP6 POP POP PUSH1 0x20 PUSH2 0x545 DUP9 DUP3 DUP10 ADD PUSH2 0x4FA JUMP JUMPDEST SWAP5 POP POP PUSH1 0x40 PUSH2 0x556 DUP9 DUP3 DUP10 ADD PUSH2 0x4FA JUMP JUMPDEST SWAP4 POP POP PUSH1 0x60 PUSH2 0x567 DUP9 DUP3 DUP10 ADD PUSH2 0x4FA JUMP JUMPDEST SWAP3 POP POP PUSH1 0x80 PUSH2 0x578 DUP9 DUP3 DUP10 ADD PUSH2 0x4FA JUMP JUMPDEST SWAP2 POP POP SWAP3 SWAP6 POP SWAP3 SWAP6 SWAP1 SWAP4 POP JUMP JUMPDEST PUSH2 0x58E DUP2 PUSH2 0x4D3 JUMP JUMPDEST DUP3 MSTORE POP POP JUMP JUMPDEST PUSH0 PUSH1 0x20 DUP3 ADD SWAP1 POP PUSH2 0x5A7 PUSH0 DUP4 ADD DUP5 PUSH2 0x585 JUMP JUMPDEST SWAP3 SWAP2 POP POP JUMP JUMPDEST PUSH0 DUP3 DUP3 MSTORE PUSH1 0x20 DUP3 ADD SWAP1 POP SWAP3 SWAP2 POP POP JUMP JUMPDEST PUSH32 0x496E76616C696420746F6B656E20616464726573730000000000000000000000 PUSH0 DUP3 ADD MSTORE POP JUMP JUMPDEST PUSH0 PUSH2 0x5F1 PUSH1 0x15 DUP4 PUSH2 0x5AD JUMP JUMPDEST SWAP2 POP PUSH2 0x5FC DUP3 PUSH2 0x5BD JUMP JUMPDEST PUSH1 0x20 DUP3 ADD SWAP1 POP SWAP2 SWAP1 POP JUMP JUMPDEST PUSH0 PUSH1 0x20 DUP3 ADD SWAP1 POP DUP2 DUP2 SUB PUSH0 DUP4 ADD MSTORE PUSH2 0x61E DUP2 PUSH2 0x5E5 JUMP JUMPDEST SWAP1 POP SWAP2 SWAP1 POP JUMP JUMPDEST PUSH32 0x496E76616C696420506F6F6C4120616464726573730000000000000000000000 PUSH0 DUP3 ADD MSTORE POP JUMP JUMPDEST PUSH0 PUSH2 0x659 PUSH1 0x15 DUP4 PUSH2 0x5AD JUMP JUMPDEST SWAP2 POP PUSH2 0x664 DUP3 PUSH2 0x625 JUMP JUMPDEST PUSH1 0x20 DUP3 ADD SWAP1 POP SWAP2 SWAP1 POP JUMP JUMPDEST PUSH0 PUSH1 0x20 DUP3 ADD SWAP1 POP DUP2 DUP2 SUB PUSH0 DUP4 ADD MSTORE PUSH2 0x686 DUP2 PUSH2 0x64D JUMP JUMPDEST SWAP1 POP SWAP2 SWAP1 POP JUMP JUMPDEST PUSH32 0x496E76616C696420506F6F6C4220616464726573730000000000000000000000 PUSH0 DUP3 ADD MSTORE POP JUMP JUMPDEST PUSH0 PUSH2 0x6C1 PUSH1 0x15 DUP4 PUSH2 0x5AD JUMP JUMPDEST SWAP2 POP PUSH2 0x6CC DUP3 PUSH2 0x68D JUMP JUMPDEST PUSH1 0x20 DUP3 ADD SWAP1 POP SWAP2 SWAP1 POP JUMP JUMPDEST PUSH0 PUSH1 0x20 DUP3 ADD SWAP1 POP DUP2 DUP2 SUB PUSH0 DUP4 ADD MSTORE PUSH2 0x6EE DUP2 PUSH2 0x6B5 JUMP JUMPDEST SWAP1 POP SWAP2 SWAP1 POP JUMP JUMPDEST PUSH32 0x496E76616C696420506F6F6C4320616464726573730000000000000000000000 PUSH0 DUP3 ADD MSTORE POP JUMP JUMPDEST PUSH0 PUSH2 0x729 PUSH1 0x15 DUP4 PUSH2 0x5AD JUMP JUMPDEST SWAP2 POP PUSH2 0x734 DUP3 PUSH2 0x6F5 JUMP JUMPDEST PUSH1 0x20 DUP3 ADD SWAP1 POP SWAP2 SWAP1 POP JUMP JUMPDEST PUSH0 PUSH1 0x20 DUP3 ADD SWAP1 POP DUP2 DUP2 SUB PUSH0 DUP4 ADD MSTORE PUSH2 0x756 DUP2 PUSH2 0x71D JUMP JUMPDEST SWAP1 POP SWAP2 SWAP1 POP JUMP JUMPDEST PUSH32 0x496E76616C696420506F6F6C4420616464726573730000000000000000000000 PUSH0 DUP3 ADD MSTORE POP JUMP JUMPDEST PUSH0 PUSH2 0x791 PUSH1 0x15 DUP4 PUSH2 0x5AD JUMP JUMPDEST SWAP2 POP PUSH2 0x79C DUP3 PUSH2 0x75D JUMP JUMPDEST PUSH1 0x20 DUP3 ADD SWAP1 POP SWAP2 SWAP1 POP JUMP JUMPDEST PUSH0 PUSH1 0x20 DUP3 ADD SWAP1 POP DUP2 DUP2 SUB PUSH0 DUP4 ADD MSTORE PUSH2 0x7BE DUP2 PUSH2 0x785 JUMP JUMPDEST SWAP1 POP SWAP2 SWAP1 POP JUMP JUMPDEST PUSH1 0x80 MLOAD PUSH1 0xA0 MLOAD PUSH1 0xC0 MLOAD PUSH1 0xE0 MLOAD PUSH2 0x100 MLOAD PUSH2 0x1C68 PUSH2 0x872 PUSH0 CODECOPY PUSH0 DUP2 DUP2 PUSH2 0x24F ADD MSTORE DUP2 DUP2 PUSH2 0x529 ADD MSTORE DUP2 DUP2 PUSH2 0x71C ADD MSTORE PUSH2 0xC92 ADD MSTORE PUSH0 DUP2 DUP2 PUSH2 0x501 ADD MSTORE DUP2 DUP2 PUSH2 0x6CA ADD MSTORE DUP2 DUP2 PUSH2 0xC6A ADD MSTORE PUSH2 0xE86 ADD MSTORE PUSH0 DUP2 DUP2 PUSH2 0x4D1 ADD MSTORE DUP2 DUP2 PUSH2 0x678 ADD MSTORE DUP2 DUP2 PUSH2 0xC3A ADD MSTORE PUSH2 0xEE3 ADD MSTORE PUSH0 DUP2 DUP2 PUSH2 0x4A1 ADD MSTORE DUP2 DUP2 PUSH2 0x626 ADD MSTORE DUP2 DUP2 PUSH2 0xC0A ADD MSTORE PUSH2 0xEBF ADD MSTORE PUSH0 DUP2 DUP2 PUSH2 0x77A ADD MSTORE DUP2 DUP2 PUSH2 0x856 ADD MSTORE DUP2 DUP2 PUSH2 0xAEF ADD MSTORE DUP2 DUP2 PUSH2 0xCB8 ADD MSTORE PUSH2 0xF8B ADD MSTORE PUSH2 0x1C68 PUSH0 RETURN INVALID PUSH1 0x80 PUSH1 0x40 MSTORE CALLVALUE DUP1 ISZERO PUSH2 0xF JUMPI PUSH0 PUSH0 REVERT JUMPDEST POP PUSH1 0x4 CALLDATASIZE LT PUSH2 0xCD JUMPI PUSH0 CALLDATALOAD PUSH1 0xE0 SHR DUP1 PUSH4 0xA0F4A128 GT PUSH2 0x8A JUMPI DUP1 PUSH4 0xCBBF425F GT PUSH2 0x64 JUMPI DUP1 PUSH4 0xCBBF425F EQ PUSH2 0x1D7 JUMPI DUP1 PUSH4 0xD4A2AA33 EQ PUSH2 0x1F5 JUMPI DUP1 PUSH4 0xF2FDE38B EQ PUSH2 0x213 JUMPI DUP1 PUSH4 0xFC0C546A EQ PUSH2 0x22F JUMPI PUSH2 0xCD JUMP JUMPDEST DUP1 PUSH4 0xA0F4A128 EQ PUSH2 0x16D JUMPI DUP1 PUSH4 0xC39111D4 EQ PUSH2 0x189 JUMPI DUP1 PUSH4 0xC6C62390 EQ PUSH2 0x1A7 JUMPI PUSH2 0xCD JUMP JUMPDEST DUP1 PUSH4 0x1155A2A4 EQ PUSH2 0xD1 JUMPI DUP1 PUSH4 0x4B8323E7 EQ PUSH2 0xEF JUMPI DUP1 PUSH4 0x673A2A1F EQ PUSH2 0x10B JUMPI DUP1 PUSH4 0x6FF1C9BC EQ PUSH2 0x129 JUMPI DUP1 PUSH4 0x715018A6 EQ PUSH2 0x145 JUMPI DUP1 PUSH4 0x8DA5CB5B EQ PUSH2 0x14F JUMPI JUMPDEST PUSH0 PUSH0 REVERT JUMPDEST PUSH2 0xD9 PUSH2 0x24D JUMP JUMPDEST PUSH1 0x40 MLOAD PUSH2 0xE6 SWAP2 SWAP1 PUSH2 0x11AC JUMP JUMPDEST PUSH1 0x40 MLOAD DUP1 SWAP2 SUB SWAP1 RETURN JUMPDEST PUSH2 0x109 PUSH1 0x4 DUP1 CALLDATASIZE SUB DUP2 ADD SWAP1 PUSH2 0x104 SWAP2 SWAP1 PUSH2 0x128B JUMP JUMPDEST PUSH2 0x271 JUMP JUMPDEST STOP JUMPDEST PUSH2 0x113 PUSH2 0x611 JUMP JUMPDEST PUSH1 0x40 MLOAD PUSH2 0x120 SWAP2 SWAP1 PUSH2 0x13B4 JUMP JUMPDEST PUSH1 0x40 MLOAD DUP1 SWAP2 SUB SWAP1 RETURN JUMPDEST PUSH2 0x143 PUSH1 0x4 DUP1 CALLDATASIZE SUB DUP2 ADD SWAP1 PUSH2 0x13E SWAP2 SWAP1 PUSH2 0x13CD JUMP JUMPDEST PUSH2 0x76F JUMP JUMPDEST STOP JUMPDEST PUSH2 0x14D PUSH2 0x932 JUMP JUMPDEST STOP JUMPDEST PUSH2 0x157 PUSH2 0x945 JUMP JUMPDEST PUSH1 0x40 MLOAD PUSH2 0x164 SWAP2 SWAP1 PUSH2 0x11AC JUMP JUMPDEST PUSH1 0x40 MLOAD DUP1 SWAP2 SUB SWAP1 RETURN JUMPDEST PUSH2 0x187 PUSH1 0x4 DUP1 CALLDATASIZE SUB DUP2 ADD SWAP1 PUSH2 0x182 SWAP2 SWAP1 PUSH2 0x13F8 JUMP JUMPDEST PUSH2 0x96C JUMP JUMPDEST STOP JUMPDEST PUSH2 0x191 PUSH2 0xE84 JUMP JUMPDEST PUSH1 0x40 MLOAD PUSH2 0x19E SWAP2 SWAP1 PUSH2 0x11AC JUMP JUMPDEST PUSH1 0x40 MLOAD DUP1 SWAP2 SUB SWAP1 RETURN JUMPDEST PUSH2 0x1C1 PUSH1 0x4 DUP1 CALLDATASIZE SUB DUP2 ADD SWAP1 PUSH2 0x1BC SWAP2 SWAP1 PUSH2 0x1469 JUMP JUMPDEST PUSH2 0xEA8 JUMP JUMPDEST PUSH1 0x40 MLOAD PUSH2 0x1CE SWAP2 SWAP1 PUSH2 0x14A3 JUMP JUMPDEST PUSH1 0x40 MLOAD DUP1 SWAP2 SUB SWAP1 RETURN JUMPDEST PUSH2 0x1DF PUSH2 0xEBD JUMP JUMPDEST PUSH1 0x40 MLOAD PUSH2 0x1EC SWAP2 SWAP1 PUSH2 0x11AC JUMP JUMPDEST PUSH1 0x40 MLOAD DUP1 SWAP2 SUB SWAP1 RETURN JUMPDEST PUSH2 0x1FD PUSH2 0xEE1 JUMP JUMPDEST PUSH1 0x40 MLOAD PUSH2 0x20A SWAP2 SWAP1 PUSH2 0x11AC JUMP JUMPDEST PUSH1 0x40 MLOAD DUP1 SWAP2 SUB SWAP1 RETURN JUMPDEST PUSH2 0x22D PUSH1 0x4 DUP1 CALLDATASIZE SUB DUP2 ADD SWAP1 PUSH2 0x228 SWAP2 SWAP1 PUSH2 0x13CD JUMP JUMPDEST PUSH2 0xF05 JUMP JUMPDEST STOP JUMPDEST PUSH2 0x237 PUSH2 0xF89 JUMP JUMPDEST PUSH1 0x40 MLOAD PUSH2 0x244 SWAP2 SWAP1 PUSH2 0x1517 JUMP JUMPDEST PUSH1 0x40 MLOAD DUP1 SWAP2 SUB SWAP1 RETURN JUMPDEST PUSH32 0x0 DUP2 JUMP JUMPDEST PUSH2 0x279 PUSH2 0xFAD JUMP JUMPDEST PUSH1 0x1 DUP2 LT ISZERO DUP1 ISZERO PUSH2 0x28B JUMPI POP PUSH1 0x4 DUP2 GT ISZERO JUMPDEST PUSH2 0x2CA JUMPI PUSH1 0x40 MLOAD PUSH32 0x8C379A000000000000000000000000000000000000000000000000000000000 DUP2 MSTORE PUSH1 0x4 ADD PUSH2 0x2C1 SWAP1 PUSH2 0x158A JUMP JUMPDEST PUSH1 0x40 MLOAD DUP1 SWAP2 SUB SWAP1 REVERT JUMPDEST DUP1 DUP6 DUP6 SWAP1 POP EQ PUSH2 0x30F JUMPI PUSH1 0x40 MLOAD PUSH32 0x8C379A000000000000000000000000000000000000000000000000000000000 DUP2 MSTORE PUSH1 0x4 ADD PUSH2 0x306 SWAP1 PUSH2 0x15F2 JUMP JUMPDEST PUSH1 0x40 MLOAD DUP1 SWAP2 SUB SWAP1 REVERT JUMPDEST PUSH0 PUSH20 0xFFFFFFFFFFFFFFFFFFFFFFFFFFFFFFFFFFFFFFFF AND DUP3 PUSH20 0xFFFFFFFFFFFFFFFFFFFFFFFFFFFFFFFFFFFFFFFF AND SUB PUSH2 0x37D JUMPI PUSH1 0x40 MLOAD PUSH32 0x8C379A000000000000000000000000000000000000000000000000000000000 DUP2 MSTORE PUSH1 0x4 ADD PUSH2 0x374 SWAP1 PUSH2 0x165A JUMP JUMPDEST PUSH1 0x40 MLOAD DUP1 SWAP2 SUB SWAP1 REVERT JUMPDEST PUSH0 PUSH0 PUSH0 SWAP1 POP JUMPDEST DUP7 DUP7 SWAP1 POP DUP2 LT ISZERO PUSH2 0x41D JUMPI PUSH0 DUP8 DUP8 DUP4 DUP2 DUP2 LT PUSH2 0x3A2 JUMPI PUSH2 0x3A1 PUSH2 0x1678 JUMP JUMPDEST JUMPDEST SWAP1 POP PUSH1 0x20 MUL ADD CALLDATALOAD GT PUSH2 0x3E9 JUMPI PUSH1 0x40 MLOAD PUSH32 0x8C379A000000000000000000000000000000000000000000000000000000000 DUP2 MSTORE PUSH1 0x4 ADD PUSH2 0x3E0 SWAP1 PUSH2 0x16EF JUMP JUMPDEST PUSH1 0x40 MLOAD DUP1 SWAP2 SUB SWAP1 REVERT JUMPDEST DUP7 DUP7 DUP3 DUP2 DUP2 LT PUSH2 0x3FC JUMPI PUSH2 0x3FB PUSH2 0x1678 JUMP JUMPDEST JUMPDEST SWAP1 POP PUSH1 0x20 MUL ADD CALLDATALOAD DUP3 PUSH2 0x40E SWAP2 SWAP1 PUSH2 0x173A JUMP JUMPDEST SWAP2 POP DUP1 DUP1 PUSH1 0x1 ADD SWAP2 POP POP PUSH2 0x383 JUMP JUMPDEST POP PUSH1 0x2 PUSH0 DUP6 DUP2 MSTORE PUSH1 0x20 ADD SWAP1 DUP2 MSTORE PUSH1 0x20 ADD PUSH0 KECCAK256 SLOAD DUP2 EQ PUSH2 0x471 JUMPI PUSH1 0x40 MLOAD PUSH32 0x8C379A000000000000000000000000000000000000000000000000000000000 DUP2 MSTORE PUSH1 0x4 ADD PUSH2 0x468 SWAP1 PUSH2 0x17DD JUMP JUMPDEST PUSH1 0x40 MLOAD DUP1 SWAP2 SUB SWAP1 REVERT JUMPDEST PUSH0 PUSH1 0x2 PUSH0 DUP7 DUP2 MSTORE PUSH1 0x20 ADD SWAP1 DUP2 MSTORE PUSH1 0x20 ADD PUSH0 KECCAK256 DUP2 SWAP1 SSTORE POP PUSH0 PUSH0 SWAP1 POP JUMPDEST DUP7 DUP7 SWAP1 POP DUP2 LT ISZERO PUSH2 0x5C2 JUMPI PUSH0 PUSH0 DUP3 SUB PUSH2 0x4C7 JUMPI PUSH32 0x0 SWAP1 POP PUSH2 0x54D JUMP JUMPDEST PUSH1 0x1 DUP3 SUB PUSH2 0x4F7 JUMPI PUSH32 0x0 SWAP1 POP PUSH2 0x54C JUMP JUMPDEST PUSH1 0x2 DUP3 SUB PUSH2 0x527 JUMPI PUSH32 0x0 SWAP1 POP PUSH2 0x54B JUMP JUMPDEST PUSH32 0x0 SWAP1 POP JUMPDEST JUMPDEST JUMPDEST DUP1 PUSH20 0xFFFFFFFFFFFFFFFFFFFFFFFFFFFFFFFFFFFFFFFF AND PUSH3 0xF714CE DUP8 DUP8 PUSH1 0x40 MLOAD DUP4 PUSH4 0xFFFFFFFF AND PUSH1 0xE0 SHL DUP2 MSTORE PUSH1 0x4 ADD PUSH2 0x587 SWAP3 SWAP2 SWAP1 PUSH2 0x17FB JUMP JUMPDEST PUSH0 PUSH1 0x40 MLOAD DUP1 DUP4 SUB DUP2 PUSH0 DUP8 DUP1 EXTCODESIZE ISZERO DUP1 ISZERO PUSH2 0x59E JUMPI PUSH0 PUSH0 REVERT JUMPDEST POP GAS CALL ISZERO DUP1 ISZERO PUSH2 0x5B0 JUMPI RETURNDATASIZE PUSH0 PUSH0 RETURNDATACOPY RETURNDATASIZE PUSH0 REVERT JUMPDEST POP POP POP POP POP DUP1 DUP1 PUSH1 0x1 ADD SWAP2 POP POP PUSH2 0x48C JUMP JUMPDEST POP DUP4 PUSH32 0x62E4797A97126A0126333B9878AE0D13E7B21AAD811CA49E900E6106DDD66D8D DUP8 DUP8 DUP7 DUP7 PUSH1 0x40 MLOAD PUSH2 0x5F9 SWAP5 SWAP4 SWAP3 SWAP2 SWAP1 PUSH2 0x189A JUMP JUMPDEST PUSH1 0x40 MLOAD DUP1 SWAP2 SUB SWAP1 LOG2 POP PUSH2 0x60A PUSH2 0xFF3 JUMP JUMPDEST POP POP POP POP POP JUMP JUMPDEST PUSH2 0x619 PUSH2 0x114B JUMP JUMPDEST PUSH1 0x40 MLOAD DUP1 PUSH1 0x80 ADD PUSH1 0x40 MSTORE DUP1 PUSH32 0x0 PUSH20 0xFFFFFFFFFFFFFFFFFFFFFFFFFFFFFFFFFFFFFFFF AND PUSH20 0xFFFFFFFFFFFFFFFFFFFFFFFFFFFFFFFFFFFFFFFF AND DUP2 MSTORE PUSH1 0x20 ADD PUSH32 0x0 PUSH20 0xFFFFFFFFFFFFFFFFFFFFFFFFFFFFFFFFFFFFFFFF AND PUSH20 0xFFFFFFFFFFFFFFFFFFFFFFFFFFFFFFFFFFFFFFFF AND DUP2 MSTORE PUSH1 0x20 ADD PUSH32 0x0 PUSH20 0xFFFFFFFFFFFFFFFFFFFFFFFFFFFFFFFFFFFFFFFF AND PUSH20 0xFFFFFFFFFFFFFFFFFFFFFFFFFFFFFFFFFFFFFFFF AND DUP2 MSTORE PUSH1 0x20 ADD PUSH32 0x0 PUSH20 0xFFFFFFFFFFFFFFFFFFFFFFFFFFFFFFFFFFFFFFFF AND PUSH20 0xFFFFFFFFFFFFFFFFFFFFFFFFFFFFFFFFFFFFFFFF AND DUP2 MSTORE POP SWAP1 POP SWAP1 JUMP JUMPDEST PUSH2 0x777 PUSH2 0xFFC JUMP JUMPDEST PUSH0 PUSH32 0x0 PUSH20 0xFFFFFFFFFFFFFFFFFFFFFFFFFFFFFFFFFFFFFFFF AND PUSH4 0x70A08231 ADDRESS PUSH1 0x40 MLOAD DUP3 PUSH4 0xFFFFFFFF AND PUSH1 0xE0 SHL DUP2 MSTORE PUSH1 0x4 ADD PUSH2 0x7D1 SWAP2 SWAP1 PUSH2 0x11AC JUMP JUMPDEST PUSH1 0x20 PUSH1 0x40 MLOAD DUP1 DUP4 SUB DUP2 DUP7 GAS STATICCALL ISZERO DUP1 ISZERO PUSH2 0x7EC JUMPI RETURNDATASIZE PUSH0 PUSH0 RETURNDATACOPY RETURNDATASIZE PUSH0 REVERT JUMPDEST POP POP POP POP PUSH1 0x40 MLOAD RETURNDATASIZE PUSH1 0x1F NOT PUSH1 0x1F DUP3 ADD AND DUP3 ADD DUP1 PUSH1 0x40 MSTORE POP DUP2 ADD SWAP1 PUSH2 0x810 SWAP2 SWAP1 PUSH2 0x18EC JUMP JUMPDEST SWAP1 POP PUSH0 DUP2 GT PUSH2 0x854 JUMPI PUSH1 0x40 MLOAD PUSH32 0x8C379A000000000000000000000000000000000000000000000000000000000 DUP2 MSTORE PUSH1 0x4 ADD PUSH2 0x84B SWAP1 PUSH2 0x1961 JUMP JUMPDEST PUSH1 0x40 MLOAD DUP1 SWAP2 SUB SWAP1 REVERT JUMPDEST PUSH32 0x0 PUSH20 0xFFFFFFFFFFFFFFFFFFFFFFFFFFFFFFFFFFFFFFFF AND PUSH4 0xA9059CBB DUP4 DUP4 PUSH1 0x40 MLOAD DUP4 PUSH4 0xFFFFFFFF AND PUSH1 0xE0 SHL DUP2 MSTORE PUSH1 0x4 ADD PUSH2 0x8AF SWAP3 SWAP2 SWAP1 PUSH2 0x197F JUMP JUMPDEST PUSH1 0x20 PUSH1 0x40 MLOAD DUP1 DUP4 SUB DUP2 PUSH0 DUP8 GAS CALL ISZERO DUP1 ISZERO PUSH2 0x8CB JUMPI RETURNDATASIZE PUSH0 PUSH0 RETURNDATACOPY RETURNDATASIZE PUSH0 REVERT JUMPDEST POP POP POP POP PUSH1 0x40 MLOAD RETURNDATASIZE PUSH1 0x1F NOT PUSH1 0x1F DUP3 ADD AND DUP3 ADD DUP1 PUSH1 0x40 MSTORE POP DUP2 ADD SWAP1 PUSH2 0x8EF SWAP2 SWAP1 PUSH2 0x19DB JUMP JUMPDEST PUSH2 0x92E JUMPI PUSH1 0x40 MLOAD PUSH32 0x8C379A000000000000000000000000000000000000000000000000000000000 DUP2 MSTORE PUSH1 0x4 ADD PUSH2 0x925 SWAP1 PUSH2 0x1A50 JUMP JUMPDEST PUSH1 0x40 MLOAD DUP1 SWAP2 SUB SWAP1 REVERT JUMPDEST POP POP JUMP JUMPDEST PUSH2 0x93A PUSH2 0xFFC JUMP JUMPDEST PUSH2 0x943 PUSH0 PUSH2 0x1083 JUMP JUMPDEST JUMP JUMPDEST PUSH0 PUSH0 PUSH0 SWAP1 SLOAD SWAP1 PUSH2 0x100 EXP SWAP1 DIV PUSH20 0xFFFFFFFFFFFFFFFFFFFFFFFFFFFFFFFFFFFFFFFF AND SWAP1 POP SWAP1 JUMP JUMPDEST PUSH2 0x974 PUSH2 0xFAD JUMP JUMPDEST PUSH1 0x1 DUP2 LT ISZERO DUP1 ISZERO PUSH2 0x986 JUMPI POP PUSH1 0x4 DUP2 GT ISZERO JUMPDEST PUSH2 0x9C5 JUMPI PUSH1 0x40 MLOAD PUSH32 0x8C379A000000000000000000000000000000000000000000000000000000000 DUP2 MSTORE PUSH1 0x4 ADD PUSH2 0x9BC SWAP1 PUSH2 0x158A JUMP JUMPDEST PUSH1 0x40 MLOAD DUP1 SWAP2 SUB SWAP1 REVERT JUMPDEST DUP1 DUP5 DUP5 SWAP1 POP EQ PUSH2 0xA0A JUMPI PUSH1 0x40 MLOAD PUSH32 0x8C379A000000000000000000000000000000000000000000000000000000000 DUP2 MSTORE PUSH1 0x4 ADD PUSH2 0xA01 SWAP1 PUSH2 0x15F2 JUMP JUMPDEST PUSH1 0x40 MLOAD DUP1 SWAP2 SUB SWAP1 REVERT JUMPDEST PUSH0 PUSH0 PUSH0 SWAP1 POP JUMPDEST DUP6 DUP6 SWAP1 POP DUP2 LT ISZERO PUSH2 0xAAA JUMPI PUSH0 DUP7 DUP7 DUP4 DUP2 DUP2 LT PUSH2 0xA2F JUMPI PUSH2 0xA2E PUSH2 0x1678 JUMP JUMPDEST JUMPDEST SWAP1 POP PUSH1 0x20 MUL ADD CALLDATALOAD GT PUSH2 0xA76 JUMPI PUSH1 0x40 MLOAD PUSH32 0x8C379A000000000000000000000000000000000000000000000000000000000 DUP2 MSTORE PUSH1 0x4 ADD PUSH2 0xA6D SWAP1 PUSH2 0x16EF JUMP JUMPDEST PUSH1 0x40 MLOAD DUP1 SWAP2 SUB SWAP1 REVERT JUMPDEST DUP6 DUP6 DUP3 DUP2 DUP2 LT PUSH2 0xA89 JUMPI PUSH2 0xA88 PUSH2 0x1678 JUMP JUMPDEST JUMPDEST SWAP1 POP PUSH1 0x20 MUL ADD CALLDATALOAD DUP3 PUSH2 0xA9B SWAP2 SWAP1 PUSH2 0x173A JUMP JUMPDEST SWAP2 POP DUP1 DUP1 PUSH1 0x1 ADD SWAP2 POP POP PUSH2 0xA10 JUMP JUMPDEST POP PUSH0 DUP2 GT PUSH2 0xAED JUMPI PUSH1 0x40 MLOAD PUSH32 0x8C379A000000000000000000000000000000000000000000000000000000000 DUP2 MSTORE PUSH1 0x4 ADD PUSH2 0xAE4 SWAP1 PUSH2 0x1AB8 JUMP JUMPDEST PUSH1 0x40 MLOAD DUP1 SWAP2 SUB SWAP1 REVERT JUMPDEST PUSH32 0x0 PUSH20 0xFFFFFFFFFFFFFFFFFFFFFFFFFFFFFFFFFFFFFFFF AND PUSH4 0x23B872DD CALLER ADDRESS DUP5 PUSH1 0x40 MLOAD DUP5 PUSH4 0xFFFFFFFF AND PUSH1 0xE0 SHL DUP2 MSTORE PUSH1 0x4 ADD PUSH2 0xB4A SWAP4 SWAP3 SWAP2 SWAP1 PUSH2 0x1AD6 JUMP JUMPDEST PUSH1 0x20 PUSH1 0x40 MLOAD DUP1 DUP4 SUB DUP2 PUSH0 DUP8 GAS CALL ISZERO DUP1 ISZERO PUSH2 0xB66 JUMPI RETURNDATASIZE PUSH0 PUSH0 RETURNDATACOPY RETURNDATASIZE PUSH0 REVERT JUMPDEST POP POP POP POP PUSH1 0x40 MLOAD RETURNDATASIZE PUSH1 0x1F NOT PUSH1 0x1F DUP3 ADD AND DUP3 ADD DUP1 PUSH1 0x40 MSTORE POP DUP2 ADD SWAP1 PUSH2 0xB8A SWAP2 SWAP1 PUSH2 0x19DB JUMP JUMPDEST PUSH2 0xBC9 JUMPI PUSH1 0x40 MLOAD PUSH32 0x8C379A000000000000000000000000000000000000000000000000000000000 DUP2 MSTORE PUSH1 0x4 ADD PUSH2 0xBC0 SWAP1 PUSH2 0x1B55 JUMP JUMPDEST PUSH1 0x40 MLOAD DUP1 SWAP2 SUB SWAP1 REVERT JUMPDEST DUP1 PUSH1 0x2 PUSH0 DUP6 DUP2 MSTORE PUSH1 0x20 ADD SWAP1 DUP2 MSTORE PUSH1 0x20 ADD PUSH0 KECCAK256 PUSH0 DUP3 DUP3 SLOAD PUSH2 0xBE9 SWAP2 SWAP1 PUSH2 0x173A JUMP JUMPDEST SWAP3 POP POP DUP2 SWAP1 SSTORE POP PUSH0 PUSH0 SWAP1 POP JUMPDEST DUP6 DUP6 SWAP1 POP DUP2 LT ISZERO PUSH2 0xE38 JUMPI PUSH0 PUSH0 DUP3 SUB PUSH2 0xC30 JUMPI PUSH32 0x0 SWAP1 POP PUSH2 0xCB6 JUMP JUMPDEST PUSH1 0x1 DUP3 SUB PUSH2 0xC60 JUMPI PUSH32 0x0 SWAP1 POP PUSH2 0xCB5 JUMP JUMPDEST PUSH1 0x2 DUP3 SUB PUSH2 0xC90 JUMPI PUSH32 0x0 SWAP1 POP PUSH2 0xCB4 JUMP JUMPDEST PUSH32 0x0 SWAP1 POP JUMPDEST JUMPDEST JUMPDEST PUSH32 0x0 PUSH20 0xFFFFFFFFFFFFFFFFFFFFFFFFFFFFFFFFFFFFFFFF AND PUSH4 0x95EA7B3 DUP3 DUP10 DUP10 DUP7 DUP2 DUP2 LT PUSH2 0xD06 JUMPI PUSH2 0xD05 PUSH2 0x1678 JUMP JUMPDEST JUMPDEST SWAP1 POP PUSH1 0x20 MUL ADD CALLDATALOAD PUSH1 0x40 MLOAD DUP4 PUSH4 0xFFFFFFFF AND PUSH1 0xE0 SHL DUP2 MSTORE PUSH1 0x4 ADD PUSH2 0xD2A SWAP3 SWAP2 SWAP1 PUSH2 0x197F JUMP JUMPDEST PUSH1 0x20 PUSH1 0x40 MLOAD DUP1 DUP4 SUB DUP2 PUSH0 DUP8 GAS CALL ISZERO DUP1 ISZERO PUSH2 0xD46 JUMPI RETURNDATASIZE PUSH0 PUSH0 RETURNDATACOPY RETURNDATASIZE PUSH0 REVERT JUMPDEST POP POP POP POP PUSH1 0x40 MLOAD RETURNDATASIZE PUSH1 0x1F NOT PUSH1 0x1F DUP3 ADD AND DUP3 ADD DUP1 PUSH1 0x40 MSTORE POP DUP2 ADD SWAP1 PUSH2 0xD6A SWAP2 SWAP1 PUSH2 0x19DB JUMP JUMPDEST PUSH2 0xDA9 JUMPI PUSH1 0x40 MLOAD PUSH32 0x8C379A000000000000000000000000000000000000000000000000000000000 DUP2 MSTORE PUSH1 0x4 ADD PUSH2 0xDA0 SWAP1 PUSH2 0x1BBD JUMP JUMPDEST PUSH1 0x40 MLOAD DUP1 SWAP2 SUB SWAP1 REVERT JUMPDEST DUP1 PUSH20 0xFFFFFFFFFFFFFFFFFFFFFFFFFFFFFFFFFFFFFFFF AND PUSH4 0xE2BBB158 DUP9 DUP9 DUP6 DUP2 DUP2 LT PUSH2 0xDD8 JUMPI PUSH2 0xDD7 PUSH2 0x1678 JUMP JUMPDEST JUMPDEST SWAP1 POP PUSH1 0x20 MUL ADD CALLDATALOAD DUP8 PUSH1 0x40 MLOAD DUP4 PUSH4 0xFFFFFFFF AND PUSH1 0xE0 SHL DUP2 MSTORE PUSH1 0x4 ADD PUSH2 0xDFD SWAP3 SWAP2 SWAP1 PUSH2 0x1BDB JUMP JUMPDEST PUSH0 PUSH1 0x40 MLOAD DUP1 DUP4 SUB DUP2 PUSH0 DUP8 DUP1 EXTCODESIZE ISZERO DUP1 ISZERO PUSH2 0xE14 JUMPI PUSH0 PUSH0 REVERT JUMPDEST POP GAS CALL ISZERO DUP1 ISZERO PUSH2 0xE26 JUMPI RETURNDATASIZE PUSH0 PUSH0 RETURNDATACOPY RETURNDATASIZE PUSH0 REVERT JUMPDEST POP POP POP POP POP DUP1 DUP1 PUSH1 0x1 ADD SWAP2 POP POP PUSH2 0xBF5 JUMP JUMPDEST POP DUP3 PUSH32 0xB12CE7C92E7D614D3D6966BB36D8B8950883E5133D3B4DA997A1DCF11E6CE160 DUP7 DUP7 DUP6 PUSH1 0x40 MLOAD PUSH2 0xE6D SWAP4 SWAP3 SWAP2 SWAP1 PUSH2 0x1C02 JUMP JUMPDEST PUSH1 0x40 MLOAD DUP1 SWAP2 SUB SWAP1 LOG2 POP PUSH2 0xE7E PUSH2 0xFF3 JUMP JUMPDEST POP POP POP POP JUMP JUMPDEST PUSH32 0x0 DUP2 JUMP JUMPDEST PUSH1 0x2 PUSH1 0x20 MSTORE DUP1 PUSH0 MSTORE PUSH1 0x40 PUSH0 KECCAK256 PUSH0 SWAP2 POP SWAP1 POP SLOAD DUP2 JUMP JUMPDEST PUSH32 0x0 DUP2 JUMP JUMPDEST PUSH32 0x0 DUP2 JUMP JUMPDEST PUSH2 0xF0D PUSH2 0xFFC JUMP JUMPDEST PUSH0 PUSH20 0xFFFFFFFFFFFFFFFFFFFFFFFFFFFFFFFFFFFFFFFF AND DUP2 PUSH20 0xFFFFFFFFFFFFFFFFFFFFFFFFFFFFFFFFFFFFFFFF AND SUB PUSH2 0xF7D JUMPI PUSH0 PUSH1 0x40 MLOAD PUSH32 0x1E4FBDF700000000000000000000000000000000000000000000000000000000 DUP2 MSTORE PUSH1 0x4 ADD PUSH2 0xF74 SWAP2 SWAP1 PUSH2 0x11AC JUMP JUMPDEST PUSH1 0x40 MLOAD DUP1 SWAP2 SUB SWAP1 REVERT JUMPDEST PUSH2 0xF86 DUP2 PUSH2 0x1083 JUMP JUMPDEST POP JUMP JUMPDEST PUSH32 0x0 DUP2 JUMP JUMPDEST PUSH1 0x2 PUSH1 0x1 SLOAD SUB PUSH2 0xFE9 JUMPI PUSH1 0x40 MLOAD PUSH32 0x3EE5AEB500000000000000000000000000000000000000000000000000000000 DUP2 MSTORE PUSH1 0x4 ADD PUSH1 0x40 MLOAD DUP1 SWAP2 SUB SWAP1 REVERT JUMPDEST PUSH1 0x2 PUSH1 0x1 DUP2 SWAP1 SSTORE POP JUMP JUMPDEST PUSH1 0x1 DUP1 DUP2 SWAP1 SSTORE POP JUMP JUMPDEST PUSH2 0x1004 PUSH2 0x1144 JUMP JUMPDEST PUSH20 0xFFFFFFFFFFFFFFFFFFFFFFFFFFFFFFFFFFFFFFFF AND PUSH2 0x1022 PUSH2 0x945 JUMP JUMPDEST PUSH20 0xFFFFFFFFFFFFFFFFFFFFFFFFFFFFFFFFFFFFFFFF AND EQ PUSH2 0x1081 JUMPI PUSH2 0x1045 PUSH2 0x1144 JUMP JUMPDEST PUSH1 0x40 MLOAD PUSH32 0x118CDAA700000000000000000000000000000000000000000000000000000000 DUP2 MSTORE PUSH1 0x4 ADD PUSH2 0x1078 SWAP2 SWAP1 PUSH2 0x11AC JUMP JUMPDEST PUSH1 0x40 MLOAD DUP1 SWAP2 SUB SWAP1 REVERT JUMPDEST JUMP JUMPDEST PUSH0 PUSH0 PUSH0 SWAP1 SLOAD SWAP1 PUSH2 0x100 EXP SWAP1 DIV PUSH20 0xFFFFFFFFFFFFFFFFFFFFFFFFFFFFFFFFFFFFFFFF AND SWAP1 POP DUP2 PUSH0 PUSH0 PUSH2 0x100 EXP DUP2 SLOAD DUP2 PUSH20 0xFFFFFFFFFFFFFFFFFFFFFFFFFFFFFFFFFFFFFFFF MUL NOT AND SWAP1 DUP4 PUSH20 0xFFFFFFFFFFFFFFFFFFFFFFFFFFFFFFFFFFFFFFFF AND MUL OR SWAP1 SSTORE POP DUP2 PUSH20 0xFFFFFFFFFFFFFFFFFFFFFFFFFFFFFFFFFFFFFFFF AND DUP2 PUSH20 0xFFFFFFFFFFFFFFFFFFFFFFFFFFFFFFFFFFFFFFFF AND PUSH32 0x8BE0079C531659141344CD1FD0A4F28419497F9722A3DAAFE3B4186F6B6457E0 PUSH1 0x40 MLOAD PUSH1 0x40 MLOAD DUP1 SWAP2 SUB SWAP1 LOG3 POP POP JUMP JUMPDEST PUSH0 CALLER SWAP1 POP SWAP1 JUMP JUMPDEST PUSH1 0x40 MLOAD DUP1 PUSH1 0x80 ADD PUSH1 0x40 MSTORE DUP1 PUSH1 0x4 SWAP1 PUSH1 0x20 DUP3 MUL DUP1 CALLDATASIZE DUP4 CALLDATACOPY DUP1 DUP3 ADD SWAP2 POP POP SWAP1 POP POP SWAP1 JUMP JUMPDEST PUSH0 PUSH20 0xFFFFFFFFFFFFFFFFFFFFFFFFFFFFFFFFFFFFFFFF DUP3 AND SWAP1 POP SWAP2 SWAP1 POP JUMP JUMPDEST PUSH0 PUSH2 0x1196 DUP3 PUSH2 0x116D JUMP JUMPDEST SWAP1 POP SWAP2 SWAP1 POP JUMP JUMPDEST PUSH2 0x11A6 DUP2 PUSH2 0x118C JUMP JUMPDEST DUP3 MSTORE POP POP JUMP JUMPDEST PUSH0 PUSH1 0x20 DUP3 ADD SWAP1 POP PUSH2 0x11BF PUSH0 DUP4 ADD DUP5 PUSH2 0x119D JUMP JUMPDEST SWAP3 SWAP2 POP POP JUMP JUMPDEST PUSH0 PUSH0 REVERT JUMPDEST PUSH0 PUSH0 REVERT JUMPDEST PUSH0 PUSH0 REVERT JUMPDEST PUSH0 PUSH0 REVERT JUMPDEST PUSH0 PUSH0 REVERT JUMPDEST PUSH0 PUSH0 DUP4 PUSH1 0x1F DUP5 ADD SLT PUSH2 0x11EE JUMPI PUSH2 0x11ED PUSH2 0x11CD JUMP JUMPDEST JUMPDEST DUP3 CALLDATALOAD SWAP1 POP PUSH8 0xFFFFFFFFFFFFFFFF DUP2 GT ISZERO PUSH2 0x120B JUMPI PUSH2 0x120A PUSH2 0x11D1 JUMP JUMPDEST JUMPDEST PUSH1 0x20 DUP4 ADD SWAP2 POP DUP4 PUSH1 0x20 DUP3 MUL DUP4 ADD GT ISZERO PUSH2 0x1227 JUMPI PUSH2 0x1226 PUSH2 0x11D5 JUMP JUMPDEST JUMPDEST SWAP3 POP SWAP3 SWAP1 POP JUMP JUMPDEST PUSH0 DUP2 SWAP1 POP SWAP2 SWAP1 POP JUMP JUMPDEST PUSH2 0x1240 DUP2 PUSH2 0x122E JUMP JUMPDEST DUP2 EQ PUSH2 0x124A JUMPI PUSH0 PUSH0 REVERT JUMPDEST POP JUMP JUMPDEST PUSH0 DUP2 CALLDATALOAD SWAP1 POP PUSH2 0x125B DUP2 PUSH2 0x1237 JUMP JUMPDEST SWAP3 SWAP2 POP POP JUMP JUMPDEST PUSH2 0x126A DUP2 PUSH2 0x118C JUMP JUMPDEST DUP2 EQ PUSH2 0x1274 JUMPI PUSH0 PUSH0 REVERT JUMPDEST POP JUMP JUMPDEST PUSH0 DUP2 CALLDATALOAD SWAP1 POP PUSH2 0x1285 DUP2 PUSH2 0x1261 JUMP JUMPDEST SWAP3 SWAP2 POP POP JUMP JUMPDEST PUSH0 PUSH0 PUSH0 PUSH0 PUSH0 PUSH1 0x80 DUP7 DUP9 SUB SLT ISZERO PUSH2 0x12A4 JUMPI PUSH2 0x12A3 PUSH2 0x11C5 JUMP JUMPDEST JUMPDEST PUSH0 DUP7 ADD CALLDATALOAD PUSH8 0xFFFFFFFFFFFFFFFF DUP2 GT ISZERO PUSH2 0x12C1 JUMPI PUSH2 0x12C0 PUSH2 0x11C9 JUMP JUMPDEST JUMPDEST PUSH2 0x12CD DUP9 DUP3 DUP10 ADD PUSH2 0x11D9 JUMP JUMPDEST SWAP6 POP SWAP6 POP POP PUSH1 0x20 PUSH2 0x12E0 DUP9 DUP3 DUP10 ADD PUSH2 0x124D JUMP JUMPDEST SWAP4 POP POP PUSH1 0x40 PUSH2 0x12F1 DUP9 DUP3 DUP10 ADD PUSH2 0x1277 JUMP JUMPDEST SWAP3 POP POP PUSH1 0x60 PUSH2 0x1302 DUP9 DUP3 DUP10 ADD PUSH2 0x124D JUMP JUMPDEST SWAP2 POP POP SWAP3 SWAP6 POP SWAP3 SWAP6 SWAP1 SWAP4 POP JUMP JUMPDEST PUSH0 PUSH1 0x4 SWAP1 POP SWAP2 SWAP1 POP JUMP JUMPDEST PUSH0 DUP2 SWAP1 POP SWAP3 SWAP2 POP POP JUMP JUMPDEST PUSH0 DUP2 SWAP1 POP SWAP2 SWAP1 POP JUMP JUMPDEST PUSH2 0x1335 DUP2 PUSH2 0x118C JUMP JUMPDEST DUP3 MSTORE POP POP JUMP JUMPDEST PUSH0 PUSH2 0x1346 DUP4 DUP4 PUSH2 0x132C JUMP JUMPDEST PUSH1 0x20 DUP4 ADD SWAP1 POP SWAP3 SWAP2 POP POP JUMP JUMPDEST PUSH0 PUSH1 0x20 DUP3 ADD SWAP1 POP SWAP2 SWAP1 POP JUMP JUMPDEST PUSH2 0x1367 DUP2 PUSH2 0x130F JUMP JUMPDEST PUSH2 0x1371 DUP2 DUP5 PUSH2 0x1319 JUMP JUMPDEST SWAP3 POP PUSH2 0x137C DUP3 PUSH2 0x1323 JUMP JUMPDEST DUP1 PUSH0 JUMPDEST DUP4 DUP2 LT ISZERO PUSH2 0x13AC JUMPI DUP2 MLOAD PUSH2 0x1393 DUP8 DUP3 PUSH2 0x133B JUMP JUMPDEST SWAP7 POP PUSH2 0x139E DUP4 PUSH2 0x1352 JUMP JUMPDEST SWAP3 POP POP PUSH1 0x1 DUP2 ADD SWAP1 POP PUSH2 0x137F JUMP JUMPDEST POP POP POP POP POP POP JUMP JUMPDEST PUSH0 PUSH1 0x80 DUP3 ADD SWAP1 POP PUSH2 0x13C7 PUSH0 DUP4 ADD DUP5 PUSH2 0x135E JUMP JUMPDEST SWAP3 SWAP2 POP POP JUMP JUMPDEST PUSH0 PUSH1 0x20 DUP3 DUP5 SUB SLT ISZERO PUSH2 0x13E2 JUMPI PUSH2 0x13E1 PUSH2 0x11C5 JUMP JUMPDEST JUMPDEST PUSH0 PUSH2 0x13EF DUP5 DUP3 DUP6 ADD PUSH2 0x1277 JUMP JUMPDEST SWAP2 POP POP SWAP3 SWAP2 POP POP JUMP JUMPDEST PUSH0 PUSH0 PUSH0 PUSH0 PUSH1 0x60 DUP6 DUP8 SUB SLT ISZERO PUSH2 0x1410 JUMPI PUSH2 0x140F PUSH2 0x11C5 JUMP JUMPDEST JUMPDEST PUSH0 DUP6 ADD CALLDATALOAD PUSH8 0xFFFFFFFFFFFFFFFF DUP2 GT ISZERO PUSH2 0x142D JUMPI PUSH2 0x142C PUSH2 0x11C9 JUMP JUMPDEST JUMPDEST PUSH2 0x1439 DUP8 DUP3 DUP9 ADD PUSH2 0x11D9 JUMP JUMPDEST SWAP5 POP SWAP5 POP POP PUSH1 0x20 PUSH2 0x144C DUP8 DUP3 DUP9 ADD PUSH2 0x124D JUMP JUMPDEST SWAP3 POP POP PUSH1 0x40 PUSH2 0x145D DUP8 DUP3 DUP9 ADD PUSH2 0x124D JUMP JUMPDEST SWAP2 POP POP SWAP3 SWAP6 SWAP2 SWAP5 POP SWAP3 POP JUMP JUMPDEST PUSH0 PUSH1 0x20 DUP3 DUP5 SUB SLT ISZERO PUSH2 0x147E JUMPI PUSH2 0x147D PUSH2 0x11C5 JUMP JUMPDEST JUMPDEST PUSH0 PUSH2 0x148B DUP5 DUP3 DUP6 ADD PUSH2 0x124D JUMP JUMPDEST SWAP2 POP POP SWAP3 SWAP2 POP POP JUMP JUMPDEST PUSH2 0x149D DUP2 PUSH2 0x122E JUMP JUMPDEST DUP3 MSTORE POP POP JUMP JUMPDEST PUSH0 PUSH1 0x20 DUP3 ADD SWAP1 POP PUSH2 0x14B6 PUSH0 DUP4 ADD DUP5 PUSH2 0x1494 JUMP JUMPDEST SWAP3 SWAP2 POP POP JUMP JUMPDEST PUSH0 DUP2 SWAP1 POP SWAP2 SWAP1 POP JUMP JUMPDEST PUSH0 PUSH2 0x14DF PUSH2 0x14DA PUSH2 0x14D5 DUP5 PUSH2 0x116D JUMP JUMPDEST PUSH2 0x14BC JUMP JUMPDEST PUSH2 0x116D JUMP JUMPDEST SWAP1 POP SWAP2 SWAP1 POP JUMP JUMPDEST PUSH0 PUSH2 0x14F0 DUP3 PUSH2 0x14C5 JUMP JUMPDEST SWAP1 POP SWAP2 SWAP1 POP JUMP JUMPDEST PUSH0 PUSH2 0x1501 DUP3 PUSH2 0x14E6 JUMP JUMPDEST SWAP1 POP SWAP2 SWAP1 POP JUMP JUMPDEST PUSH2 0x1511 DUP2 PUSH2 0x14F7 JUMP JUMPDEST DUP3 MSTORE POP POP JUMP JUMPDEST PUSH0 PUSH1 0x20 DUP3 ADD SWAP1 POP PUSH2 0x152A PUSH0 DUP4 ADD DUP5 PUSH2 0x1508 JUMP JUMPDEST SWAP3 SWAP2 POP POP JUMP JUMPDEST PUSH0 DUP3 DUP3 MSTORE PUSH1 0x20 DUP3 ADD SWAP1 POP SWAP3 SWAP2 POP POP JUMP JUMPDEST PUSH32 0x4C6576656C206D75737420626520312D34000000000000000000000000000000 PUSH0 DUP3 ADD MSTORE POP JUMP JUMPDEST PUSH0 PUSH2 0x1574 PUSH1 0x11 DUP4 PUSH2 0x1530 JUMP JUMPDEST SWAP2 POP PUSH2 0x157F DUP3 PUSH2 0x1540 JUMP JUMPDEST PUSH1 0x20 DUP3 ADD SWAP1 POP SWAP2 SWAP1 POP JUMP JUMPDEST PUSH0 PUSH1 0x20 DUP3 ADD SWAP1 POP DUP2 DUP2 SUB PUSH0 DUP4 ADD MSTORE PUSH2 0x15A1 DUP2 PUSH2 0x1568 JUMP JUMPDEST SWAP1 POP SWAP2 SWAP1 POP JUMP JUMPDEST PUSH32 0x467261676D656E7420636F756E74206D757374206D61746368206C6576656C00 PUSH0 DUP3 ADD MSTORE POP JUMP JUMPDEST PUSH0 PUSH2 0x15DC PUSH1 0x1F DUP4 PUSH2 0x1530 JUMP JUMPDEST SWAP2 POP PUSH2 0x15E7 DUP3 PUSH2 0x15A8 JUMP JUMPDEST PUSH1 0x20 DUP3 ADD SWAP1 POP SWAP2 SWAP1 POP JUMP JUMPDEST PUSH0 PUSH1 0x20 DUP3 ADD SWAP1 POP DUP2 DUP2 SUB PUSH0 DUP4 ADD MSTORE PUSH2 0x1609 DUP2 PUSH2 0x15D0 JUMP JUMPDEST SWAP1 POP SWAP2 SWAP1 POP JUMP JUMPDEST PUSH32 0x496E76616C696420737465616C74682061646472657373000000000000000000 PUSH0 DUP3 ADD MSTORE POP JUMP JUMPDEST PUSH0 PUSH2 0x1644 PUSH1 0x17 DUP4 PUSH2 0x1530 JUMP JUMPDEST SWAP2 POP PUSH2 0x164F DUP3 PUSH2 0x1610 JUMP JUMPDEST PUSH1 0x20 DUP3 ADD SWAP1 POP SWAP2 SWAP1 POP JUMP JUMPDEST PUSH0 PUSH1 0x20 DUP3 ADD SWAP1 POP DUP2 DUP2 SUB PUSH0 DUP4 ADD MSTORE PUSH2 0x1671 DUP2 PUSH2 0x1638 JUMP JUMPDEST SWAP1 POP SWAP2 SWAP1 POP JUMP JUMPDEST PUSH32 0x4E487B7100000000000000000000000000000000000000000000000000000000 PUSH0 MSTORE PUSH1 0x32 PUSH1 0x4 MSTORE PUSH1 0x24 PUSH0 REVERT JUMPDEST PUSH32 0x467261676D656E7420616D6F756E74206D75737420626520706F736974697665 PUSH0 DUP3 ADD MSTORE POP JUMP JUMPDEST PUSH0 PUSH2 0x16D9 PUSH1 0x20 DUP4 PUSH2 0x1530 JUMP JUMPDEST SWAP2 POP PUSH2 0x16E4 DUP3 PUSH2 0x16A5 JUMP JUMPDEST PUSH1 0x20 DUP3 ADD SWAP1 POP SWAP2 SWAP1 POP JUMP JUMPDEST PUSH0 PUSH1 0x20 DUP3 ADD SWAP1 POP DUP2 DUP2 SUB PUSH0 DUP4 ADD MSTORE PUSH2 0x1706 DUP2 PUSH2 0x16CD JUMP JUMPDEST SWAP1 POP SWAP2 SWAP1 POP JUMP JUMPDEST PUSH32 0x4E487B7100000000000000000000000000000000000000000000000000000000 PUSH0 MSTORE PUSH1 0x11 PUSH1 0x4 MSTORE PUSH1 0x24 PUSH0 REVERT JUMPDEST PUSH0 PUSH2 0x1744 DUP3 PUSH2 0x122E JUMP JUMPDEST SWAP2 POP PUSH2 0x174F DUP4 PUSH2 0x122E JUMP JUMPDEST SWAP3 POP DUP3 DUP3 ADD SWAP1 POP DUP1 DUP3 GT ISZERO PUSH2 0x1767 JUMPI PUSH2 0x1766 PUSH2 0x170D JUMP JUMPDEST JUMPDEST SWAP3 SWAP2 POP POP JUMP JUMPDEST PUSH32 0x546F74616C206D757374206D61746368206465706F736974656420616D6F756E PUSH0 DUP3 ADD MSTORE PUSH32 0x7400000000000000000000000000000000000000000000000000000000000000 PUSH1 0x20 DUP3 ADD MSTORE POP JUMP JUMPDEST PUSH0 PUSH2 0x17C7 PUSH1 0x21 DUP4 PUSH2 0x1530 JUMP JUMPDEST SWAP2 POP PUSH2 0x17D2 DUP3 PUSH2 0x176D JUMP JUMPDEST PUSH1 0x40 DUP3 ADD SWAP1 POP SWAP2 SWAP1 POP JUMP JUMPDEST PUSH0 PUSH1 0x20 DUP3 ADD SWAP1 POP DUP2 DUP2 SUB PUSH0 DUP4 ADD MSTORE PUSH2 0x17F4 DUP2 PUSH2 0x17BB JUMP JUMPDEST SWAP1 POP SWAP2 SWAP1 POP JUMP JUMPDEST PUSH0 PUSH1 0x40 DUP3 ADD SWAP1 POP PUSH2 0x180E PUSH0 DUP4 ADD DUP6 PUSH2 0x1494 JUMP JUMPDEST PUSH2 0x181B PUSH1 0x20 DUP4 ADD DUP5 PUSH2 0x119D JUMP JUMPDEST SWAP4 SWAP3 POP POP POP JUMP JUMPDEST PUSH0 DUP3 DUP3 MSTORE PUSH1 0x20 DUP3 ADD SWAP1 POP SWAP3 SWAP2 POP POP JUMP JUMPDEST PUSH0 PUSH0 REVERT JUMPDEST DUP3 DUP2 DUP4 CALLDATACOPY POP POP POP JUMP JUMPDEST PUSH0 PUSH2 0x184A DUP4 DUP6 PUSH2 0x1822 JUMP JUMPDEST SWAP4 POP PUSH32 0x7FFFFFFFFFFFFFFFFFFFFFFFFFFFFFFFFFFFFFFFFFFFFFFFFFFFFFFFFFFFFFF DUP4 GT ISZERO PUSH2 0x187D JUMPI PUSH2 0x187C PUSH2 0x1832 JUMP JUMPDEST JUMPDEST PUSH1 0x20 DUP4 MUL SWAP3 POP PUSH2 0x188E DUP4 DUP6 DUP5 PUSH2 0x1836 JUMP JUMPDEST DUP3 DUP5 ADD SWAP1 POP SWAP4 SWAP3 POP POP POP JUMP JUMPDEST PUSH0 PUSH1 0x60 DUP3 ADD SWAP1 POP DUP2 DUP2 SUB PUSH0 DUP4 ADD MSTORE PUSH2 0x18B3 DUP2 DUP7 DUP9 PUSH2 0x183F JUMP JUMPDEST SWAP1 POP PUSH2 0x18C2 PUSH1 0x20 DUP4 ADD DUP6 PUSH2 0x119D JUMP JUMPDEST PUSH2 0x18CF PUSH1 0x40 DUP4 ADD DUP5 PUSH2 0x1494 JUMP JUMPDEST SWAP6 SWAP5 POP POP POP POP POP JUMP JUMPDEST PUSH0 DUP2 MLOAD SWAP1 POP PUSH2 0x18E6 DUP2 PUSH2 0x1237 JUMP JUMPDEST SWAP3 SWAP2 POP POP JUMP JUMPDEST PUSH0 PUSH1 0x20 DUP3 DUP5 SUB SLT ISZERO PUSH2 0x1901 JUMPI PUSH2 0x1900 PUSH2 0x11C5 JUMP JUMPDEST JUMPDEST PUSH0 PUSH2 0x190E DUP5 DUP3 DUP6 ADD PUSH2 0x18D8 JUMP JUMPDEST SWAP2 POP POP SWAP3 SWAP2 POP POP JUMP JUMPDEST PUSH32 0x4E6F20746F6B656E7320746F2077697468647261770000000000000000000000 PUSH0 DUP3 ADD MSTORE POP JUMP JUMPDEST PUSH0 PUSH2 0x194B PUSH1 0x15 DUP4 PUSH2 0x1530 JUMP JUMPDEST SWAP2 POP PUSH2 0x1956 DUP3 PUSH2 0x1917 JUMP JUMPDEST PUSH1 0x20 DUP3 ADD SWAP1 POP SWAP2 SWAP1 POP JUMP JUMPDEST PUSH0 PUSH1 0x20 DUP3 ADD SWAP1 POP DUP2 DUP2 SUB PUSH0 DUP4 ADD MSTORE PUSH2 0x1978 DUP2 PUSH2 0x193F JUMP JUMPDEST SWAP1 POP SWAP2 SWAP1 POP JUMP JUMPDEST PUSH0 PUSH1 0x40 DUP3 ADD SWAP1 POP PUSH2 0x1992 PUSH0 DUP4 ADD DUP6 PUSH2 0x119D JUMP JUMPDEST PUSH2 0x199F PUSH1 0x20 DUP4 ADD DUP5 PUSH2 0x1494 JUMP JUMPDEST SWAP4 SWAP3 POP POP POP JUMP JUMPDEST PUSH0 DUP2 ISZERO ISZERO SWAP1 POP SWAP2 SWAP1 POP JUMP JUMPDEST PUSH2 0x19BA DUP2 PUSH2 0x19A6 JUMP JUMPDEST DUP2 EQ PUSH2 0x19C4 JUMPI PUSH0 PUSH0 REVERT JUMPDEST POP JUMP JUMPDEST PUSH0 DUP2 MLOAD SWAP1 POP PUSH2 0x19D5 DUP2 PUSH2 0x19B1 JUMP JUMPDEST SWAP3 SWAP2 POP POP JUMP JUMPDEST PUSH0 PUSH1 0x20 DUP3 DUP5 SUB SLT ISZERO PUSH2 0x19F0 JUMPI PUSH2 0x19EF PUSH2 0x11C5 JUMP JUMPDEST JUMPDEST PUSH0 PUSH2 0x19FD DUP5 DUP3 DUP6 ADD PUSH2 0x19C7 JUMP JUMPDEST SWAP2 POP POP SWAP3 SWAP2 POP POP JUMP JUMPDEST PUSH32 0x456D657267656E6379207472616E73666572206661696C656400000000000000 PUSH0 DUP3 ADD MSTORE POP JUMP JUMPDEST PUSH0 PUSH2 0x1A3A PUSH1 0x19 DUP4 PUSH2 0x1530 JUMP JUMPDEST SWAP2 POP PUSH2 0x1A45 DUP3 PUSH2 0x1A06 JUMP JUMPDEST PUSH1 0x20 DUP3 ADD SWAP1 POP SWAP2 SWAP1 POP JUMP JUMPDEST PUSH0 PUSH1 0x20 DUP3 ADD SWAP1 POP DUP2 DUP2 SUB PUSH0 DUP4 ADD MSTORE PUSH2 0x1A67 DUP2 PUSH2 0x1A2E JUMP JUMPDEST SWAP1 POP SWAP2 SWAP1 POP JUMP JUMPDEST PUSH32 0x546F74616C20616D6F756E74206D75737420626520706F736974697665000000 PUSH0 DUP3 ADD MSTORE POP JUMP JUMPDEST PUSH0 PUSH2 0x1AA2 PUSH1 0x1D DUP4 PUSH2 0x1530 JUMP JUMPDEST SWAP2 POP PUSH2 0x1AAD DUP3 PUSH2 0x1A6E JUMP JUMPDEST PUSH1 0x20 DUP3 ADD SWAP1 POP SWAP2 SWAP1 POP JUMP JUMPDEST PUSH0 PUSH1 0x20 DUP3 ADD SWAP1 POP DUP2 DUP2 SUB PUSH0 DUP4 ADD MSTORE PUSH2 0x1ACF DUP2 PUSH2 0x1A96 JUMP JUMPDEST SWAP1 POP SWAP2 SWAP1 POP JUMP JUMPDEST PUSH0 PUSH1 0x60 DUP3 ADD SWAP1 POP PUSH2 0x1AE9 PUSH0 DUP4 ADD DUP7 PUSH2 0x119D JUMP JUMPDEST PUSH2 0x1AF6 PUSH1 0x20 DUP4 ADD DUP6 PUSH2 0x119D JUMP JUMPDEST PUSH2 0x1B03 PUSH1 0x40 DUP4 ADD DUP5 PUSH2 0x1494 JUMP JUMPDEST SWAP5 SWAP4 POP POP POP POP JUMP JUMPDEST PUSH32 0x546F6B656E207472616E73666572206661696C65640000000000000000000000 PUSH0 DUP3 ADD MSTORE POP JUMP JUMPDEST PUSH0 PUSH2 0x1B3F PUSH1 0x15 DUP4 PUSH2 0x1530 JUMP JUMPDEST SWAP2 POP PUSH2 0x1B4A DUP3 PUSH2 0x1B0B JUMP JUMPDEST PUSH1 0x20 DUP3 ADD SWAP1 POP SWAP2 SWAP1 POP JUMP JUMPDEST PUSH0 PUSH1 0x20 DUP3 ADD SWAP1 POP DUP2 DUP2 SUB PUSH0 DUP4 ADD MSTORE PUSH2 0x1B6C DUP2 PUSH2 0x1B33 JUMP JUMPDEST SWAP1 POP SWAP2 SWAP1 POP JUMP JUMPDEST PUSH32 0x506F6F6C20617070726F76616C206661696C6564000000000000000000000000 PUSH0 DUP3 ADD MSTORE POP JUMP JUMPDEST PUSH0 PUSH2 0x1BA7 PUSH1 0x14 DUP4 PUSH2 0x1530 JUMP JUMPDEST SWAP2 POP PUSH2 0x1BB2 DUP3 PUSH2 0x1B73 JUMP JUMPDEST PUSH1 0x20 DUP3 ADD SWAP1 POP SWAP2 SWAP1 POP JUMP JUMPDEST PUSH0 PUSH1 0x20 DUP3 ADD SWAP1 POP DUP2 DUP2 SUB PUSH0 DUP4 ADD MSTORE PUSH2 0x1BD4 DUP2 PUSH2 0x1B9B JUMP JUMPDEST SWAP1 POP SWAP2 SWAP1 POP JUMP JUMPDEST PUSH0 PUSH1 0x40 DUP3 ADD SWAP1 POP PUSH2 0x1BEE PUSH0 DUP4 ADD DUP6 PUSH2 0x1494 JUMP JUMPDEST PUSH2 0x1BFB PUSH1 0x20 DUP4 ADD DUP5 PUSH2 0x1494 JUMP JUMPDEST SWAP4 SWAP3 POP POP POP JUMP JUMPDEST PUSH0 PUSH1 0x40 DUP3 ADD SWAP1 POP DUP2 DUP2 SUB PUSH0 DUP4 ADD MSTORE PUSH2 0x1C1B DUP2 DUP6 DUP8 PUSH2 0x183F JUMP JUMPDEST SWAP1 POP PUSH2 0x1C2A PUSH1 0x20 DUP4 ADD DUP5 PUSH2 0x1494 JUMP JUMPDEST SWAP5 SWAP4 POP POP POP POP JUMP INVALID LOG2 PUSH5 0x6970667358 0x22 SLT KECCAK256 0xB9 0x2B EXP EOFCREATE 0xDF 0xCA 0xB2 0xAB EXTCODESIZE TIMESTAMP 0xBD 0xBD RETURNDATACOPY PUSH29 0xDD18515E6820DBB1849EAB488775E50893AA64736F6C634300081E0033 "
				},
				"gasEstimates": {
					"creation": {
						"codeDepositCost": "1454400",
						"executionCost": "infinite",
						"totalCost": "infinite"
					},
					"external": {
						"depositFragments(uint256[],uint256,uint256)": "infinite",
						"emergencyWithdraw(address)": "infinite",
						"getPools()": "infinite",
						"owner()": "2625",
						"poolA()": "infinite",
						"poolB()": "infinite",
						"poolC()": "infinite",
						"poolD()": "infinite",
						"renounceOwnership()": "infinite",
						"token()": "infinite",
						"totalDeposited(uint256)": "infinite",
						"transferOwnership(address)": "infinite",
						"withdrawFragments(uint256[],uint256,address,uint256)": "infinite"
					}
				},
				"methodIdentifiers": {
					"depositFragments(uint256[],uint256,uint256)": "a0f4a128",
					"emergencyWithdraw(address)": "6ff1c9bc",
					"getPools()": "673a2a1f",
					"owner()": "8da5cb5b",
					"poolA()": "cbbf425f",
					"poolB()": "d4a2aa33",
					"poolC()": "c39111d4",
					"poolD()": "1155a2a4",
					"renounceOwnership()": "715018a6",
					"token()": "fc0c546a",
					"totalDeposited(uint256)": "c6c62390",
					"transferOwnership(address)": "f2fde38b",
					"withdrawFragments(uint256[],uint256,address,uint256)": "4b8323e7"
				}
			},
			"storageLayout": {
				"storage": [
					{
						"astId": 8,
						"contract": "src/core/FragmentManager.sol:FragmentManager",
						"label": "_owner",
						"offset": 0,
						"slot": "0",
						"type": "t_address"
					},
					{
						"astId": 266,
						"contract": "src/core/FragmentManager.sol:FragmentManager",
						"label": "_status",
						"offset": 0,
						"slot": "1",
						"type": "t_uint256"
					},
					{
						"astId": 349,
						"contract": "src/core/FragmentManager.sol:FragmentManager",
						"label": "totalDeposited",
						"offset": 0,
						"slot": "2",
						"type": "t_mapping(t_uint256,t_uint256)"
					}
				],
				"types": {
					"t_address": {
						"encoding": "inplace",
						"label": "address",
						"numberOfBytes": "20"
					},
					"t_mapping(t_uint256,t_uint256)": {
						"encoding": "mapping",
						"key": "t_uint256",
						"label": "mapping(uint256 => uint256)",
						"numberOfBytes": "32",
						"value": "t_uint256"
					},
					"t_uint256": {
						"encoding": "inplace",
						"label": "uint256",
						"numberOfBytes": "32"
					}
				}
			},
			"userdoc": {
				"kind": "user",
				"methods": {},
				"version": 1
			}
		}
	}
}