{"abi":[{"type":"constructor","inputs":[{"name":"_lzEndpoint","type":"address","internalType":"address"},{"name":"dstChainId","type":"uint16","internalType":"uint16"},{"name":"receiver","type":"address","internalType":"address"}],"stateMutability":"nonpayable"},{"type":"receive","stateMutability":"payable"},{"type":"function","name":"estimateFees","inputs":[{"name":"user","type":"address","internalType":"address"}],"outputs":[{"name":"nativeFee","type":"uint256","internalType":"uint256"},{"name":"zroFee","type":"uint256","internalType":"uint256"}],"stateMutability":"view"},{"type":"function","name":"isKYCVerified","inputs":[{"name":"","type":"address","internalType":"address"}],"outputs":[{"name":"","type":"bool","internalType":"bool"}],"stateMutability":"view"},{"type":"function","name":"lzEndpoint","inputs":[],"outputs":[{"name":"","type":"address","internalType":"contract ILayerZeroEndpoint"}],"stateMutability":"view"},{"type":"function","name":"mockSelfProtocolCallback","inputs":[{"name":"user","type":"address","internalType":"address"}],"outputs":[],"stateMutability":"nonpayable"},{"type":"function","name":"owner","inputs":[],"outputs":[{"name":"","type":"address","internalType":"address"}],"stateMutability":"view"},{"type":"function","name":"setReceiver","inputs":[{"name":"receiver","type":"address","internalType":"address"}],"outputs":[],"stateMutability":"nonpayable"},{"type":"function","name":"verifyKYC","inputs":[{"name":"user","type":"address","internalType":"address"}],"outputs":[],"stateMutability":"nonpayable"},{"type":"function","name":"withdraw","inputs":[],"outputs":[],"stateMutability":"nonpayable"},{"type":"event","name":"KYCVerified","inputs":[{"name":"user","type":"address","indexed":true,"internalType":"address"}],"anonymous":false},{"type":"event","name":"MessageSent","inputs":[{"name":"user","type":"address","indexed":true,"internalType":"address"},{"name":"dstChainId","type":"uint16","indexed":false,"internalType":"uint16"},{"name":"dstAddress","type":"bytes","indexed":false,"internalType":"bytes"}],"anonymous":false}],"bytecode":{"object":"0x60c060405234801561000f575f5ffd5b506040516110df3803806110df83398181016040528101906100319190610192565b8273ffffffffffffffffffffffffffffffffffffffff1660808173ffffffffffffffffffffffffffffffffffffffff16815250503360015f6101000a81548173ffffffffffffffffffffffffffffffffffffffff021916908373ffffffffffffffffffffffffffffffffffffffff1602179055508161ffff1660a08161ffff16815250508060025f6101000a81548173ffffffffffffffffffffffffffffffffffffffff021916908373ffffffffffffffffffffffffffffffffffffffff1602179055505050506101e2565b5f5ffd5b5f73ffffffffffffffffffffffffffffffffffffffff82169050919050565b5f61012a82610101565b9050919050565b61013a81610120565b8114610144575f5ffd5b50565b5f8151905061015581610131565b92915050565b5f61ffff82169050919050565b6101718161015b565b811461017b575f5ffd5b50565b5f8151905061018c81610168565b92915050565b5f5f5f606084860312156101a9576101a86100fd565b5b5f6101b686828701610147565b93505060206101c78682870161017e565b92505060406101d886828701610147565b9150509250925092565b60805160a051610eb261022d5f395f8181610270015281816107cd01528181610890015261093d01525f8181610234015281816106dc0152818161079101526108530152610eb25ff3fe60806040526004361061007e575f3560e01c806354b7636e1161004d57806354b7636e1461012c578063718da7ee146101685780638da5cb5b14610190578063b353aaa7146101ba57610085565b806316e8221d146100895780631a0bcb9b146100c657806338d16011146100ee5780633ccfd60b1461011657610085565b3661008557005b5f5ffd5b348015610094575f5ffd5b506100af60048036038101906100aa91906109d8565b6101e4565b6040516100bd929190610a1b565b60405180910390f35b3480156100d1575f5ffd5b506100ec60048036038101906100e791906109d8565b6102fc565b005b3480156100f9575f5ffd5b50610114600480360381019061010f91906109d8565b61039f565b005b348015610121575f5ffd5b5061012a6104d1565b005b348015610137575f5ffd5b50610152600480360381019061014d91906109d8565b6105c7565b60405161015f9190610a5c565b60405180910390f35b348015610173575f5ffd5b5061018e600480360381019061018991906109d8565b6105e3565b005b34801561019b575f5ffd5b506101a46106b5565b6040516101b19190610a84565b60405180910390f35b3480156101c5575f5ffd5b506101ce6106da565b6040516101db9190610af8565b60405180910390f35b5f5f5f836040516020016101f89190610a84565b60405160208183030381529060405290505f600162030d40604051602001610221929190610b72565b60405160208183030381529060405290507f000000000000000000000000000000000000000000000000000000000000000073ffffffffffffffffffffffffffffffffffffffff166340a7bb107f000000000000000000000000000000000000000000000000000000000000000030855f866040518663ffffffff1660e01b81526004016102b3959493929190610c1c565b6040805180830381865afa1580156102cd573d5f5f3e3d5ffd5b505050506040513d601f19601f820116820180604052508101906102f19190610ca5565b935093505050915091565b60015f5f8373ffffffffffffffffffffffffffffffffffffffff1673ffffffffffffffffffffffffffffffffffffffff1681526020019081526020015f205f6101000a81548160ff0219169083151502179055508073ffffffffffffffffffffffffffffffffffffffff167f65c84ee842eafc291d1272a6e3d10f8c454c4288e63f5db3f7be2b3012f321a960405160405180910390a261039c816106fe565b50565b60015f9054906101000a900473ffffffffffffffffffffffffffffffffffffffff1673ffffffffffffffffffffffffffffffffffffffff163373ffffffffffffffffffffffffffffffffffffffff161461042e576040517f08c379a000000000000000000000000000000000000000000000000000000000815260040161042590610d3d565b60405180910390fd5b60015f5f8373ffffffffffffffffffffffffffffffffffffffff1673ffffffffffffffffffffffffffffffffffffffff1681526020019081526020015f205f6101000a81548160ff0219169083151502179055508073ffffffffffffffffffffffffffffffffffffffff167f65c84ee842eafc291d1272a6e3d10f8c454c4288e63f5db3f7be2b3012f321a960405160405180910390a26104ce816106fe565b50565b60015f9054906101000a900473ffffffffffffffffffffffffffffffffffffffff1673ffffffffffffffffffffffffffffffffffffffff163373ffffffffffffffffffffffffffffffffffffffff1614610560576040517f08c379a000000000000000000000000000000000000000000000000000000000815260040161055790610d3d565b60405180910390fd5b60015f9054906101000a900473ffffffffffffffffffffffffffffffffffffffff1673ffffffffffffffffffffffffffffffffffffffff166108fc4790811502906040515f60405180830381858888f193505050501580156105c4573d5f5f3e3d5ffd5b50565b5f602052805f5260405f205f915054906101000a900460ff1681565b60015f9054906101000a900473ffffffffffffffffffffffffffffffffffffffff1673ffffffffffffffffffffffffffffffffffffffff163373ffffffffffffffffffffffffffffffffffffffff1614610672576040517f08c379a000000000000000000000000000000000000000000000000000000000815260040161066990610d3d565b60405180910390fd5b8060025f6101000a81548173ffffffffffffffffffffffffffffffffffffffff021916908373ffffffffffffffffffffffffffffffffffffffff16021790555050565b60015f9054906101000a900473ffffffffffffffffffffffffffffffffffffffff1681565b7f000000000000000000000000000000000000000000000000000000000000000081565b5f816040516020016107109190610a84565b60405160208183030381529060405290505f600162030d40604051602001610739929190610b72565b60405160208183030381529060405290505f60025f9054906101000a900473ffffffffffffffffffffffffffffffffffffffff1660405160200161077d9190610da0565b60405160208183030381529060405290505f7f000000000000000000000000000000000000000000000000000000000000000073ffffffffffffffffffffffffffffffffffffffff166340a7bb107f000000000000000000000000000000000000000000000000000000000000000030875f886040518663ffffffff1660e01b8152600401610810959493929190610c1c565b6040805180830381865afa15801561082a573d5f5f3e3d5ffd5b505050506040513d601f19601f8201168201806040525081019061084e9190610ca5565b5090507f000000000000000000000000000000000000000000000000000000000000000073ffffffffffffffffffffffffffffffffffffffff1663c5803100827f00000000000000000000000000000000000000000000000000000000000000008588305f8a6040518863ffffffff1660e01b81526004016108d596959493929190610dda565b5f604051808303818588803b1580156108ec575f5ffd5b505af11580156108fe573d5f5f3e3d5ffd5b50505050508473ffffffffffffffffffffffffffffffffffffffff167fd408d4216414850968be647fe61e3a3e7f0bbc0f584a118c13c22d78f52ff3777f00000000000000000000000000000000000000000000000000000000000000008460405161096b929190610e4e565b60405180910390a25050505050565b5f5ffd5b5f73ffffffffffffffffffffffffffffffffffffffff82169050919050565b5f6109a78261097e565b9050919050565b6109b78161099d565b81146109c1575f5ffd5b50565b5f813590506109d2816109ae565b92915050565b5f602082840312156109ed576109ec61097a565b5b5f6109fa848285016109c4565b91505092915050565b5f819050919050565b610a1581610a03565b82525050565b5f604082019050610a2e5f830185610a0c565b610a3b6020830184610a0c565b9392505050565b5f8115159050919050565b610a5681610a42565b82525050565b5f602082019050610a6f5f830184610a4d565b92915050565b610a7e8161099d565b82525050565b5f602082019050610a975f830184610a75565b92915050565b5f819050919050565b5f610ac0610abb610ab68461097e565b610a9d565b61097e565b9050919050565b5f610ad182610aa6565b9050919050565b5f610ae282610ac7565b9050919050565b610af281610ad8565b82525050565b5f602082019050610b0b5f830184610ae9565b92915050565b5f61ffff82169050919050565b5f8160f01b9050919050565b5f610b3482610b1e565b9050919050565b610b4c610b4782610b11565b610b2a565b82525050565b5f819050919050565b610b6c610b6782610a03565b610b52565b82525050565b5f610b7d8285610b3b565b600282019150610b8d8284610b5b565b6020820191508190509392505050565b610ba681610b11565b82525050565b5f81519050919050565b5f82825260208201905092915050565b8281835e5f83830152505050565b5f601f19601f8301169050919050565b5f610bee82610bac565b610bf88185610bb6565b9350610c08818560208601610bc6565b610c1181610bd4565b840191505092915050565b5f60a082019050610c2f5f830188610b9d565b610c3c6020830187610a75565b8181036040830152610c4e8186610be4565b9050610c5d6060830185610a4d565b8181036080830152610c6f8184610be4565b90509695505050505050565b610c8481610a03565b8114610c8e575f5ffd5b50565b5f81519050610c9f81610c7b565b92915050565b5f5f60408385031215610cbb57610cba61097a565b5b5f610cc885828601610c91565b9250506020610cd985828601610c91565b9150509250929050565b5f82825260208201905092915050565b7f4e6f74206f776e657200000000000000000000000000000000000000000000005f82015250565b5f610d27600983610ce3565b9150610d3282610cf3565b602082019050919050565b5f6020820190508181035f830152610d5481610d1b565b9050919050565b5f8160601b9050919050565b5f610d7182610d5b565b9050919050565b5f610d8282610d67565b9050919050565b610d9a610d958261099d565b610d78565b82525050565b5f610dab8284610d89565b60148201915081905092915050565b5f610dc48261097e565b9050919050565b610dd481610dba565b82525050565b5f60c082019050610ded5f830189610b9d565b8181036020830152610dff8188610be4565b90508181036040830152610e138187610be4565b9050610e226060830186610dcb565b610e2f6080830185610a75565b81810360a0830152610e418184610be4565b9050979650505050505050565b5f604082019050610e615f830185610b9d565b8181036020830152610e738184610be4565b9050939250505056fea264697066735822122082e59c277245232438dc7c3ff73eacdaac2f3bbaf1bed0abdcec964abf45bb4464736f6c634300081c0033","linkReferences":{}},"methodIdentifiers":{"estimateFees(address)":"16e8221d","isKYCVerified(address)":"54b7636e","lzEndpoint()":"b353aaa7","mockSelfProtocolCallback(address)":"1a0bcb9b","owner()":"8da5cb5b","setReceiver(address)":"718da7ee","verifyKYC(address)":"38d16011","withdraw()":"3ccfd60b"},"id":2}